{
  "_format": "hh-sol-artifact-1",
  "contractName": "PsyMiner",
  "sourceName": "contracts/PsyMiner.sol",
  "abi": [
    {
      "inputs": [
        {
          "internalType": "contract PsyLockSystem",
          "name": "_lockContract",
          "type": "address"
        }
      ],
      "stateMutability": "nonpayable",
      "type": "constructor"
    },
    {
      "anonymous": false,
      "inputs": [
        {
          "indexed": true,
          "internalType": "address",
          "name": "token",
          "type": "address"
        },
        {
          "indexed": true,
          "internalType": "uint256[]",
          "name": "tokenId",
          "type": "uint256[]"
        }
      ],
      "name": "NFTRecovered",
      "type": "event"
    },
    {
      "anonymous": false,
      "inputs": [
        {
          "indexed": true,
          "internalType": "address",
          "name": "previousOwner",
          "type": "address"
        },
        {
          "indexed": true,
          "internalType": "address",
          "name": "newOwner",
          "type": "address"
        }
      ],
      "name": "OwnershipTransferred",
      "type": "event"
    },
    {
      "anonymous": false,
      "inputs": [
        {
          "indexed": false,
          "internalType": "address",
          "name": "_old",
          "type": "address"
        },
        {
          "indexed": false,
          "internalType": "address",
          "name": "_new",
          "type": "address"
        }
      ],
      "name": "RecAddressUpdated",
      "type": "event"
    },
    {
      "anonymous": false,
      "inputs": [
        {
          "indexed": true,
          "internalType": "address",
          "name": "token",
          "type": "address"
        },
        {
          "indexed": false,
          "internalType": "uint256",
          "name": "amount",
          "type": "uint256"
        }
      ],
      "name": "TokenRecoverd",
      "type": "event"
    },
    {
      "inputs": [
        {
          "internalType": "uint256",
          "name": "",
          "type": "uint256"
        }
      ],
      "name": "MARKET_SEED",
      "outputs": [
        {
          "internalType": "uint256",
          "name": "",
          "type": "uint256"
        }
      ],
      "stateMutability": "view",
      "type": "function"
    },
    {
      "inputs": [],
      "name": "PsyLockContract",
      "outputs": [
        {
          "internalType": "contract PsyLockSystem",
          "name": "",
          "type": "address"
        }
      ],
      "stateMutability": "view",
      "type": "function"
    },
    {
      "inputs": [
        {
          "internalType": "uint256",
          "name": "",
          "type": "uint256"
        }
      ],
      "name": "RATE_LIMITER",
      "outputs": [
        {
          "internalType": "uint256",
          "name": "",
          "type": "uint256"
        }
      ],
      "stateMutability": "view",
      "type": "function"
    },
    {
      "inputs": [
        {
          "internalType": "address",
          "name": "ref",
          "type": "address"
        }
      ],
      "name": "buyCows",
      "outputs": [],
      "stateMutability": "payable",
      "type": "function"
    },
    {
      "inputs": [
        {
          "internalType": "uint256",
          "name": "eth",
          "type": "uint256"
        },
        {
          "internalType": "uint256",
          "name": "contractBalance",
          "type": "uint256"
        },
        {
          "internalType": "uint256",
          "name": "i",
          "type": "uint256"
        }
      ],
      "name": "calculateCowBuy",
      "outputs": [
        {
          "internalType": "uint256",
          "name": "",
          "type": "uint256"
        }
      ],
      "stateMutability": "view",
      "type": "function"
    },
    {
      "inputs": [
        {
          "internalType": "uint256",
          "name": "eth",
          "type": "uint256"
        },
        {
          "internalType": "uint256",
          "name": "i",
          "type": "uint256"
        }
      ],
      "name": "calculateCowBuySimple",
      "outputs": [
        {
          "internalType": "uint256",
          "name": "",
          "type": "uint256"
        }
      ],
      "stateMutability": "view",
      "type": "function"
    },
    {
      "inputs": [
        {
          "internalType": "uint256",
          "name": "clams",
          "type": "uint256"
        },
        {
          "internalType": "uint256",
          "name": "i",
          "type": "uint256"
        }
      ],
      "name": "calculateCowSell",
      "outputs": [
        {
          "internalType": "uint256",
          "name": "",
          "type": "uint256"
        }
      ],
      "stateMutability": "view",
      "type": "function"
    },
    {
      "inputs": [
        {
          "internalType": "address",
          "name": "_addr",
          "type": "address"
        }
      ],
      "name": "calculateRate",
      "outputs": [
        {
          "internalType": "uint256",
          "name": "marketEggs",
          "type": "uint256"
        },
        {
          "internalType": "uint256",
          "name": "marketSeed",
          "type": "uint256"
        }
      ],
      "stateMutability": "view",
      "type": "function"
    },
    {
      "inputs": [
        {
          "internalType": "address",
          "name": "_addr",
          "type": "address"
        }
      ],
      "name": "calculateRateIndex",
      "outputs": [
        {
          "internalType": "uint256",
          "name": "marketEggs",
          "type": "uint256"
        },
        {
          "internalType": "uint256",
          "name": "marketSeed",
          "type": "uint256"
        }
      ],
      "stateMutability": "view",
      "type": "function"
    },
    {
      "inputs": [
        {
          "internalType": "address",
          "name": "ref",
          "type": "address"
        }
      ],
      "name": "compoundCows",
      "outputs": [],
      "stateMutability": "nonpayable",
      "type": "function"
    },
    {
      "inputs": [
        {
          "internalType": "address",
          "name": "_adr",
          "type": "address"
        }
      ],
      "name": "cowsRewards",
      "outputs": [
        {
          "internalType": "uint256",
          "name": "",
          "type": "uint256"
        }
      ],
      "stateMutability": "view",
      "type": "function"
    },
    {
      "inputs": [],
      "name": "getBalance",
      "outputs": [
        {
          "internalType": "uint256",
          "name": "",
          "type": "uint256"
        }
      ],
      "stateMutability": "view",
      "type": "function"
    },
    {
      "inputs": [
        {
          "internalType": "address",
          "name": "adr",
          "type": "address"
        }
      ],
      "name": "getCowsSinceLastCompound",
      "outputs": [
        {
          "internalType": "uint256",
          "name": "",
          "type": "uint256"
        }
      ],
      "stateMutability": "view",
      "type": "function"
    },
    {
      "inputs": [
        {
          "internalType": "address",
          "name": "adr",
          "type": "address"
        }
      ],
      "name": "getMyCows",
      "outputs": [
        {
          "internalType": "uint256",
          "name": "",
          "type": "uint256"
        }
      ],
      "stateMutability": "view",
      "type": "function"
    },
    {
      "inputs": [
        {
          "internalType": "address",
          "name": "adr",
          "type": "address"
        }
      ],
      "name": "getMyMiners",
      "outputs": [
        {
          "internalType": "uint256",
          "name": "",
          "type": "uint256"
        }
      ],
      "stateMutability": "view",
      "type": "function"
    },
    {
      "inputs": [],
      "name": "owner",
      "outputs": [
        {
          "internalType": "address",
          "name": "",
          "type": "address"
        }
      ],
      "stateMutability": "view",
      "type": "function"
    },
    {
      "inputs": [
        {
          "internalType": "address",
          "name": "_token",
          "type": "address"
        },
        {
          "internalType": "uint256[]",
          "name": "_tokenId",
          "type": "uint256[]"
        }
      ],
      "name": "ownerRecoverNFT",
      "outputs": [],
      "stateMutability": "nonpayable",
      "type": "function"
    },
    {
      "inputs": [
        {
          "internalType": "address",
          "name": "_token",
          "type": "address"
        }
      ],
      "name": "ownerRecoverToken",
      "outputs": [],
      "stateMutability": "nonpayable",
      "type": "function"
    },
    {
      "inputs": [],
      "name": "renounceOwnership",
      "outputs": [],
      "stateMutability": "nonpayable",
      "type": "function"
    },
    {
      "inputs": [],
      "name": "seedMarket",
      "outputs": [],
      "stateMutability": "payable",
      "type": "function"
    },
    {
      "inputs": [],
      "name": "sellCows",
      "outputs": [],
      "stateMutability": "nonpayable",
      "type": "function"
    },
    {
      "inputs": [
        {
          "internalType": "address",
          "name": "newOwner",
          "type": "address"
        }
      ],
      "name": "transferOwnership",
      "outputs": [],
      "stateMutability": "nonpayable",
      "type": "function"
    },
    {
      "inputs": [
        {
          "internalType": "address",
          "name": "newAddress",
          "type": "address"
        }
      ],
      "name": "updateRecAddress",
      "outputs": [],
      "stateMutability": "nonpayable",
      "type": "function"
    },
    {
      "inputs": [],
      "name": "users",
      "outputs": [
        {
          "internalType": "uint256",
          "name": "",
          "type": "uint256"
        }
      ],
      "stateMutability": "view",
      "type": "function"
    }
  ],
  "bytecode": "0x6101406040526241eb006080908152622bf20060a0526215f90060c05262107ac060e052620d2f0061010052620bfe506101205262000043906002906006620001d8565b506127106008556113886009556040805160c08101825264649534e000815264430e234000602082015264218711a000918101919091526419254d3800606082015264141dd76000608082015264124cecd20060a0820152620000ab90600a90600662000222565b506040805160a0810182526113888152617530602082015261ea6091810191909152620124f8606082015262015f906080820152620000ef9060109060056200025c565b5060056015556016805460ff191690553480156200010c57600080fd5b50604051620019db380380620019db8339810160408190526200012f91620002aa565b6200013a3362000188565b60168054610100600160a81b03191674b5afa0238113a3c67787ac184bf4865a80e11c0300179055600180546001600160a01b0319166001600160a01b0392909216919091179055620002dc565b600080546001600160a01b038381166001600160a01b0319831681178455604051919092169283917f8be0079c531659141344cd1fd0a4f28419497f9722a3daafe3b4186f6b6457e09190a35050565b826006810192821562000210579160200282015b8281111562000210578251829062ffffff16905591602001919060010190620001ec565b506200021e92915062000293565b5090565b826006810192821562000210579160200282015b8281111562000210578251829064ffffffffff1690559160200191906001019062000236565b826005810192821562000210579160200282018281111562000210578251829062ffffff16905591602001919060010190620001ec565b5b808211156200021e576000815560010162000294565b600060208284031215620002bd57600080fd5b81516001600160a01b0381168114620002d557600080fd5b9392505050565b6116ef80620002ec6000396000f3fe60806040526004361061014b5760003560e01c8063b2bc496e116100b6578063e7b9f6761161006f578063e7b9f676146103b2578063eddbc690146103d2578063f2020275146103f2578063f2fde38b14610408578063f509ceb514610428578063f82af0291461043b57600080fd5b8063b2bc496e146102f2578063cf93302b14610312578063da3f0ad814610332578063de7a203114610352578063e2642a9614610372578063e3846ac01461039257600080fd5b8063526fe5f211610108578063526fe5f21461022b578063715018a61461024b578063869a630614610260578063894c2cca146102805780638da5cb5b146102a057806395e2363b146102d257600080fd5b80630839efb91461015057806312065fe0146101835780631a196a78146101965780631b51847c146101b65780633c5f07cb146101eb5780634b634b06146101f5575b600080fd5b34801561015c57600080fd5b5061017061016b366004611324565b610450565b6040519081526020015b60405180910390f35b34801561018f57600080fd5b5047610170565b3480156101a257600080fd5b506101706101b1366004611359565b610467565b3480156101c257600080fd5b506101d66101d1366004611359565b6104df565b6040805192835260208301919091520161017a565b6101f36105ef565b005b34801561020157600080fd5b50610170610210366004611359565b6001600160a01b031660009081526017602052604090205490565b34801561023757600080fd5b50610170610246366004611359565b610606565b34801561025757600080fd5b506101f3610637565b34801561026c57600080fd5b5061017061027b366004611374565b61064b565b34801561028c57600080fd5b5061017061029b366004611324565b61065f565b3480156102ac57600080fd5b506000546001600160a01b03165b6040516001600160a01b03909116815260200161017a565b3480156102de57600080fd5b506101d66102ed366004611359565b61066f565b3480156102fe57600080fd5b506101f361030d366004611359565b61076f565b34801561031e57600080fd5b5061017061032d366004611374565b61090c565b34801561033e57600080fd5b506101f361034d366004611359565b610919565b34801561035e57600080fd5b5061017061036d366004611396565b610a3b565b34801561037e57600080fd5b506101f361038d3660046113c2565b610a48565b34801561039e57600080fd5b506001546102ba906001600160a01b031681565b3480156103be57600080fd5b506101706103cd366004611359565b610b51565b3480156103de57600080fd5b506101f36103ed366004611359565b610b7d565b3480156103fe57600080fd5b50610170601c5481565b34801561041457600080fd5b506101f3610423366004611359565b610c41565b6101f3610436366004611359565b610cba565b34801561044757600080fd5b506101f3610e85565b6010816005811061046057600080fd5b0154905081565b600080610473336104df565b50905060006104b0826104ab4260196000896001600160a01b03166001600160a01b0316815260200190815260200160002054610f9f565b610fab565b6001600160a01b0385166000908152601760205260409020549091506104d7908290610fc1565b949350505050565b60015460405163212743f160e11b81526001600160a01b038381166004830152600092839283929091169063424e87e290602401602060405180830381865afa158015610530573d6000803e3d6000fd5b505050506040513d601f19601f820116820180604052508101906105549190611448565b601054909150811015610574576002549250600a60005b015491506105e9565b60035481101561058c576003549250600a600161056b565b6012548110156105a4576004549250600a600261056b565b6013548110156105bc576005549250600a600361056b565b6014548110156105d4576006549250600a600461056b565b60145481106105e957600754600f5490935091505b50915091565b6105f7610fcd565b6016805460ff19166001179055565b600080610612336104df565b915050600061062084610b51565b9050600061062e828461090c565b95945050505050565b61063f610fcd565b6106496000611027565b565b6000610658834784610a3b565b9392505050565b600a816006811061046057600080fd5b60015460405163212743f160e11b81526001600160a01b038381166004830152600092839283929091169063424e87e290602401602060405180830381865afa1580156106c0573d6000803e3d6000fd5b505050506040513d601f19601f820116820180604052508101906106e49190611448565b6010549091508110156106fe5760009250600091506105e9565b6003548110156107155760019250600191506105e9565b60125481101561072c5760029250600291506105e9565b6013548110156107435760039250600391506105e9565b60145481101561075a5760049250600491506105e9565b60145481106105e95750600593849350915050565b60165460ff1661077e57600080fd5b6000610789336104df565b50905060006107973361066f565b5090506001600160a01b0383163314156107b057600092505b336000908152601a60205260409020546001600160a01b03161580156107ed5750336000818152601a60205260409020546001600160a01b031614155b1561081b57336000908152601a6020526040902080546001600160a01b0319166001600160a01b0385161790555b600061082633610b51565b905060006108348285611077565b336000908152601760205260409020549091506108519082611083565b33600090815260176020908152604080832093909355601880825283832083905560198252838320429055601a8252838320546001600160a01b03168352905220546108a7906108a2846008611077565b611083565b336000908152601a60209081526040808320546001600160a01b0316835260189091529020556108f0600a84600681106108e3576108e3611461565b01546108a2846005611077565b600a846006811061090357610903611461565b01555050505050565b600061065883834761108f565b610921610fcd565b6040516370a0823160e01b81523060048201526000906001600160a01b038316906370a0823190602401602060405180830381865afa158015610968573d6000803e3d6000fd5b505050506040513d601f19601f8201168201806040525081019061098c9190611448565b9050806109e05760405162461bcd60e51b815260206004820152601f60248201527f4f7065726174696f6e733a204e6f20746f6b656e20746f207265636f7665720060448201526064015b60405180910390fd5b6109f46001600160a01b03831633836110cf565b816001600160a01b03167f33446578f932f930c093f8ca9b7d449e2af5ac4b70bf78c6927a88da0d33833682604051610a2f91815260200190565b60405180910390a25050565b60006104d784848461108f565b610a50610fcd565b8060005b81811015610aff57846001600160a01b03166342842e0e3033878786818110610a7f57610a7f611461565b6040516001600160e01b031960e088901b1681526001600160a01b03958616600482015294909316602485015250602090910201356044820152606401600060405180830381600087803b158015610ad657600080fd5b505af1158015610aea573d6000803e3d6000fd5b5050505080610af89061148d565b9050610a54565b508282604051610b109291906114a8565b604051908190038120906001600160a01b038616907f3551588aebc798892f9d5f9c8cc83700e1005be61735e02d95764f0f09b089d990600090a350505050565b6001600160a01b038116600090815260186020526040812054610b77906108a284610467565b92915050565b610b85610fcd565b6001600160a01b038116610bcd5760405162461bcd60e51b815260206004820152600f60248201526e43616e206e6f74206265207a65726f60881b60448201526064016109d7565b601654604080516001600160a01b036101009093048316815291831660208301527f1b199f677b3b3147a12cf531865528339dc544b720485dbad1d8805b3f37a49c910160405180910390a1601680546001600160a01b0390921661010002610100600160a81b0319909216919091179055565b610c49610fcd565b6001600160a01b038116610cae5760405162461bcd60e51b815260206004820152602660248201527f4f776e61626c653a206e6577206f776e657220697320746865207a65726f206160448201526564647265737360d01b60648201526084016109d7565b610cb781611027565b50565b6001546040516371d4ed8d60e11b81523360048201526000916001600160a01b03169063e3a9db1a90602401600060405180830381865afa158015610d03573d6000803e3d6000fd5b505050506040513d6000823e601f3d908101601f19168201604052610d2b91908101906114ea565b90506000815111610d6f5760405162461bcd60e51b815260206004820152600e60248201526d139bc81391951cc814dd185ad95960921b60448201526064016109d7565b60165460ff16610d7e57600080fd5b6000610d89336104df565b9150506000610d984734610f9f565b90506000610da7348385610a3b565b9050610dbb81610db683611126565b610f9f565b90506000610dc834611126565b60165460405191925061010090046001600160a01b0316906108fc8315029083906000818181858888f19350505050158015610e08573d6000803e3d6000fd5b5033600090815260186020526040902054610e239083611083565b33600090815260186020908152604080832093909355601b9052205460ff16610e7457336000908152601b60205260408120805460ff19166001179055601c805491610e6e8361148d565b91905055505b610e7d8661076f565b505050505050565b60165460ff16610e9457600080fd5b6000610e9f336104df565b9150506000610ead3361066f565b5090506000610ebb33610b51565b90506000610ec9828561090c565b90506000610ed682611126565b336000908152601860209081526040808320839055601990915290204290559050610f15600a8560068110610f0d57610f0d611461565b015484611083565b600a8560068110610f2857610f28611461565b01556016546040516101009091046001600160a01b0316906108fc8315029083906000818181858888f19350505050158015610f68573d6000803e3d6000fd5b50336108fc610f778484610f9f565b6040518115909202916000818181858888f19350505050158015610e7d573d6000803e3d6000fd5b600061065882846115a8565b6000818310610fba5781610658565b5090919050565b600061065882846115bf565b6000546001600160a01b031633146106495760405162461bcd60e51b815260206004820181905260248201527f4f776e61626c653a2063616c6c6572206973206e6f7420746865206f776e657260448201526064016109d7565b600080546001600160a01b038381166001600160a01b0319831681178455604051919092169283917f8be0079c531659141344cd1fd0a4f28419497f9722a3daafe3b4186f6b6457e09190a35050565b600061065882846115de565b60006106588284611600565b60006104d76110a060085484610fc1565b6110ca6009546108a26110c46110b86008548a610fc1565b6108a26009548c610fc1565b89611077565b611077565b604080516001600160a01b038416602482015260448082018490528251808303909101815260649091019091526020810180516001600160e01b031663a9059cbb60e01b17905261112190849061113e565b505050565b6000610b7761113783601554610fc1565b6064611077565b6000611193826040518060400160405280602081526020017f5361666545524332303a206c6f772d6c6576656c2063616c6c206661696c6564815250856001600160a01b03166112109092919063ffffffff16565b80519091501561112157808060200190518101906111b19190611618565b6111215760405162461bcd60e51b815260206004820152602a60248201527f5361666545524332303a204552433230206f7065726174696f6e20646964206e6044820152691bdd081cdd58d8d9595960b21b60648201526084016109d7565b60606104d78484600085856001600160a01b0385163b6112725760405162461bcd60e51b815260206004820152601d60248201527f416464726573733a2063616c6c20746f206e6f6e2d636f6e747261637400000060448201526064016109d7565b600080866001600160a01b0316858760405161128e919061166a565b60006040518083038185875af1925050503d80600081146112cb576040519150601f19603f3d011682016040523d82523d6000602084013e6112d0565b606091505b50915091506112e08282866112eb565b979650505050505050565b606083156112fa575081610658565b82511561130a5782518084602001fd5b8160405162461bcd60e51b81526004016109d79190611686565b60006020828403121561133657600080fd5b5035919050565b80356001600160a01b038116811461135457600080fd5b919050565b60006020828403121561136b57600080fd5b6106588261133d565b6000806040838503121561138757600080fd5b50508035926020909101359150565b6000806000606084860312156113ab57600080fd5b505081359360208301359350604090920135919050565b6000806000604084860312156113d757600080fd5b6113e08461133d565b9250602084013567ffffffffffffffff808211156113fd57600080fd5b818601915086601f83011261141157600080fd5b81358181111561142057600080fd5b8760208260051b850101111561143557600080fd5b6020830194508093505050509250925092565b60006020828403121561145a57600080fd5b5051919050565b634e487b7160e01b600052603260045260246000fd5b634e487b7160e01b600052601160045260246000fd5b60006000198214156114a1576114a1611477565b5060010190565b60006001600160fb1b038311156114be57600080fd5b8260051b80858437600092019182525092915050565b634e487b7160e01b600052604160045260246000fd5b600060208083850312156114fd57600080fd5b825167ffffffffffffffff8082111561151557600080fd5b818501915085601f83011261152957600080fd5b81518181111561153b5761153b6114d4565b8060051b604051601f19603f83011681018181108582111715611560576115606114d4565b60405291825284820192508381018501918883111561157e57600080fd5b938501935b8285101561159c57845184529385019392850192611583565b98975050505050505050565b6000828210156115ba576115ba611477565b500390565b60008160001904831182151516156115d9576115d9611477565b500290565b6000826115fb57634e487b7160e01b600052601260045260246000fd5b500490565b6000821982111561161357611613611477565b500190565b60006020828403121561162a57600080fd5b8151801515811461065857600080fd5b60005b8381101561165557818101518382015260200161163d565b83811115611664576000848401525b50505050565b6000825161167c81846020870161163a565b9190910192915050565b60208152600082518060208401526116a581604085016020870161163a565b601f01601f1916919091016040019291505056fea2646970667358221220285211642adce1a38f45536cf47d7a6bcc5b42255d1ced5d44ee94583fd4a0c064736f6c634300080b0033",
  "linkReferences": {},
  "deployedLinkReferences": {}
}