{
  "_format": "hh-sol-artifact-1",
  "contractName": "ERC721Base",
  "sourceName": "contracts/ERC721Base.sol",
  "abi": [
    {
      "inputs": [
        {
          "internalType": "string",
          "name": "_name",
          "type": "string"
        },
        {
          "internalType": "string",
          "name": "_symbol",
          "type": "string"
        },
        {
          "internalType": "string",
          "name": "_baseURI",
          "type": "string"
        }
      ],
      "stateMutability": "nonpayable",
      "type": "constructor"
    },
    {
      "anonymous": false,
      "inputs": [
        {
          "indexed": true,
          "internalType": "address",
          "name": "owner",
          "type": "address"
        },
        {
          "indexed": true,
          "internalType": "address",
          "name": "approved",
          "type": "address"
        },
        {
          "indexed": true,
          "internalType": "uint256",
          "name": "tokenId",
          "type": "uint256"
        }
      ],
      "name": "Approval",
      "type": "event"
    },
    {
      "anonymous": false,
      "inputs": [
        {
          "indexed": true,
          "internalType": "address",
          "name": "owner",
          "type": "address"
        },
        {
          "indexed": true,
          "internalType": "address",
          "name": "operator",
          "type": "address"
        },
        {
          "indexed": false,
          "internalType": "bool",
          "name": "approved",
          "type": "bool"
        }
      ],
      "name": "ApprovalForAll",
      "type": "event"
    },
    {
      "anonymous": false,
      "inputs": [
        {
          "indexed": true,
          "internalType": "address",
          "name": "previousOwner",
          "type": "address"
        },
        {
          "indexed": true,
          "internalType": "address",
          "name": "newOwner",
          "type": "address"
        }
      ],
      "name": "OwnershipTransferred",
      "type": "event"
    },
    {
      "anonymous": false,
      "inputs": [
        {
          "indexed": true,
          "internalType": "address",
          "name": "from",
          "type": "address"
        },
        {
          "indexed": true,
          "internalType": "address",
          "name": "to",
          "type": "address"
        },
        {
          "indexed": true,
          "internalType": "uint256",
          "name": "tokenId",
          "type": "uint256"
        }
      ],
      "name": "Transfer",
      "type": "event"
    },
    {
      "inputs": [
        {
          "internalType": "address",
          "name": "to",
          "type": "address"
        },
        {
          "internalType": "uint256",
          "name": "tokenId",
          "type": "uint256"
        }
      ],
      "name": "approve",
      "outputs": [],
      "stateMutability": "nonpayable",
      "type": "function"
    },
    {
      "inputs": [
        {
          "internalType": "address",
          "name": "owner",
          "type": "address"
        }
      ],
      "name": "balanceOf",
      "outputs": [
        {
          "internalType": "uint256",
          "name": "",
          "type": "uint256"
        }
      ],
      "stateMutability": "view",
      "type": "function"
    },
    {
      "inputs": [
        {
          "internalType": "uint256",
          "name": "tokenId",
          "type": "uint256"
        }
      ],
      "name": "getApproved",
      "outputs": [
        {
          "internalType": "address",
          "name": "",
          "type": "address"
        }
      ],
      "stateMutability": "view",
      "type": "function"
    },
    {
      "inputs": [
        {
          "internalType": "address",
          "name": "owner",
          "type": "address"
        },
        {
          "internalType": "address",
          "name": "operator",
          "type": "address"
        }
      ],
      "name": "isApprovedForAll",
      "outputs": [
        {
          "internalType": "bool",
          "name": "",
          "type": "bool"
        }
      ],
      "stateMutability": "view",
      "type": "function"
    },
    {
      "inputs": [],
      "name": "name",
      "outputs": [
        {
          "internalType": "string",
          "name": "",
          "type": "string"
        }
      ],
      "stateMutability": "view",
      "type": "function"
    },
    {
      "inputs": [],
      "name": "owner",
      "outputs": [
        {
          "internalType": "address",
          "name": "",
          "type": "address"
        }
      ],
      "stateMutability": "view",
      "type": "function"
    },
    {
      "inputs": [
        {
          "internalType": "uint256",
          "name": "tokenId",
          "type": "uint256"
        }
      ],
      "name": "ownerOf",
      "outputs": [
        {
          "internalType": "address",
          "name": "",
          "type": "address"
        }
      ],
      "stateMutability": "view",
      "type": "function"
    },
    {
      "inputs": [
        {
          "internalType": "address",
          "name": "_token",
          "type": "address"
        },
        {
          "internalType": "uint256",
          "name": "_tokenId",
          "type": "uint256"
        }
      ],
      "name": "recoverNonFungibleToken",
      "outputs": [],
      "stateMutability": "nonpayable",
      "type": "function"
    },
    {
      "inputs": [
        {
          "internalType": "address",
          "name": "_token",
          "type": "address"
        }
      ],
      "name": "recoverToken",
      "outputs": [],
      "stateMutability": "nonpayable",
      "type": "function"
    },
    {
      "inputs": [],
      "name": "renounceOwnership",
      "outputs": [],
      "stateMutability": "nonpayable",
      "type": "function"
    },
    {
      "inputs": [
        {
          "internalType": "address",
          "name": "from",
          "type": "address"
        },
        {
          "internalType": "address",
          "name": "to",
          "type": "address"
        },
        {
          "internalType": "uint256",
          "name": "tokenId",
          "type": "uint256"
        }
      ],
      "name": "safeTransferFrom",
      "outputs": [],
      "stateMutability": "nonpayable",
      "type": "function"
    },
    {
      "inputs": [
        {
          "internalType": "address",
          "name": "from",
          "type": "address"
        },
        {
          "internalType": "address",
          "name": "to",
          "type": "address"
        },
        {
          "internalType": "uint256",
          "name": "tokenId",
          "type": "uint256"
        },
        {
          "internalType": "bytes",
          "name": "data",
          "type": "bytes"
        }
      ],
      "name": "safeTransferFrom",
      "outputs": [],
      "stateMutability": "nonpayable",
      "type": "function"
    },
    {
      "inputs": [
        {
          "internalType": "address",
          "name": "operator",
          "type": "address"
        },
        {
          "internalType": "bool",
          "name": "approved",
          "type": "bool"
        }
      ],
      "name": "setApprovalForAll",
      "outputs": [],
      "stateMutability": "nonpayable",
      "type": "function"
    },
    {
      "inputs": [
        {
          "internalType": "string",
          "name": "_uri",
          "type": "string"
        }
      ],
      "name": "setBaseURI",
      "outputs": [],
      "stateMutability": "nonpayable",
      "type": "function"
    },
    {
      "inputs": [
        {
          "internalType": "bytes4",
          "name": "interfaceId",
          "type": "bytes4"
        }
      ],
      "name": "supportsInterface",
      "outputs": [
        {
          "internalType": "bool",
          "name": "",
          "type": "bool"
        }
      ],
      "stateMutability": "view",
      "type": "function"
    },
    {
      "inputs": [],
      "name": "symbol",
      "outputs": [
        {
          "internalType": "string",
          "name": "",
          "type": "string"
        }
      ],
      "stateMutability": "view",
      "type": "function"
    },
    {
      "inputs": [
        {
          "internalType": "uint256",
          "name": "index",
          "type": "uint256"
        }
      ],
      "name": "tokenByIndex",
      "outputs": [
        {
          "internalType": "uint256",
          "name": "",
          "type": "uint256"
        }
      ],
      "stateMutability": "view",
      "type": "function"
    },
    {
      "inputs": [
        {
          "internalType": "address",
          "name": "owner",
          "type": "address"
        },
        {
          "internalType": "uint256",
          "name": "index",
          "type": "uint256"
        }
      ],
      "name": "tokenOfOwnerByIndex",
      "outputs": [
        {
          "internalType": "uint256",
          "name": "",
          "type": "uint256"
        }
      ],
      "stateMutability": "view",
      "type": "function"
    },
    {
      "inputs": [
        {
          "internalType": "uint256",
          "name": "tokenId",
          "type": "uint256"
        }
      ],
      "name": "tokenURI",
      "outputs": [
        {
          "internalType": "string",
          "name": "",
          "type": "string"
        }
      ],
      "stateMutability": "view",
      "type": "function"
    },
    {
      "inputs": [
        {
          "internalType": "address",
          "name": "_owner",
          "type": "address"
        }
      ],
      "name": "tokensOfOwner",
      "outputs": [
        {
          "internalType": "uint256[]",
          "name": "",
          "type": "uint256[]"
        }
      ],
      "stateMutability": "view",
      "type": "function"
    },
    {
      "inputs": [
        {
          "internalType": "address",
          "name": "user",
          "type": "address"
        },
        {
          "internalType": "uint256",
          "name": "cursor",
          "type": "uint256"
        },
        {
          "internalType": "uint256",
          "name": "size",
          "type": "uint256"
        }
      ],
      "name": "tokensOfOwnerBySize",
      "outputs": [
        {
          "internalType": "uint256[]",
          "name": "",
          "type": "uint256[]"
        },
        {
          "internalType": "uint256",
          "name": "",
          "type": "uint256"
        }
      ],
      "stateMutability": "view",
      "type": "function"
    },
    {
      "inputs": [],
      "name": "totalSupply",
      "outputs": [
        {
          "internalType": "uint256",
          "name": "",
          "type": "uint256"
        }
      ],
      "stateMutability": "view",
      "type": "function"
    },
    {
      "inputs": [
        {
          "internalType": "address",
          "name": "from",
          "type": "address"
        },
        {
          "internalType": "address",
          "name": "to",
          "type": "address"
        },
        {
          "internalType": "uint256",
          "name": "tokenId",
          "type": "uint256"
        }
      ],
      "name": "transferFrom",
      "outputs": [],
      "stateMutability": "nonpayable",
      "type": "function"
    },
    {
      "inputs": [
        {
          "internalType": "address",
          "name": "newOwner",
          "type": "address"
        }
      ],
      "name": "transferOwnership",
      "outputs": [],
      "stateMutability": "nonpayable",
      "type": "function"
    }
  ],
  "bytecode": "0x60806040523480156200001157600080fd5b506040516200233f3803806200233f833981016040819052620000349162000268565b8251839083906200004d906000906020850190620000f5565b50805162000063906001906020840190620000f5565b505050620000806200007a6200009f60201b60201c565b620000a3565b80516200009590600b906020840190620000f5565b5050505062000336565b3390565b600a80546001600160a01b038381166001600160a01b0319831681179093556040519116919082907f8be0079c531659141344cd1fd0a4f28419497f9722a3daafe3b4186f6b6457e090600090a35050565b8280546200010390620002f9565b90600052602060002090601f01602090048101928262000127576000855562000172565b82601f106200014257805160ff191683800117855562000172565b8280016001018555821562000172579182015b828111156200017257825182559160200191906001019062000155565b506200018092915062000184565b5090565b5b8082111562000180576000815560010162000185565b634e487b7160e01b600052604160045260246000fd5b600082601f830112620001c357600080fd5b81516001600160401b0380821115620001e057620001e06200019b565b604051601f8301601f19908116603f011681019082821181831017156200020b576200020b6200019b565b816040528381526020925086838588010111156200022857600080fd5b600091505b838210156200024c57858201830151818301840152908201906200022d565b838211156200025e5760008385830101525b9695505050505050565b6000806000606084860312156200027e57600080fd5b83516001600160401b03808211156200029657600080fd5b620002a487838801620001b1565b94506020860151915080821115620002bb57600080fd5b620002c987838801620001b1565b93506040860151915080821115620002e057600080fd5b50620002ef86828701620001b1565b9150509250925092565b600181811c908216806200030e57607f821691505b602082108114156200033057634e487b7160e01b600052602260045260246000fd5b50919050565b611ff980620003466000396000f3fe608060405234801561001057600080fd5b50600436106101585760003560e01c8063715018a6116100c3578063a22cb4651161007c578063a22cb465146102e6578063b88d4fde146102f9578063bb0fd1471461030c578063c87b56dd1461031f578063e985e9c514610332578063f2fde38b1461036e57600080fd5b8063715018a6146102715780638462151c14610279578063854ec1af146102995780638da5cb5b146102ba57806395d89b41146102cb5780639be65a60146102d357600080fd5b80632f745c59116101155780632f745c59146101ff57806342842e0e146102125780634f6ccce71461022557806355f804b3146102385780636352211e1461024b57806370a082311461025e57600080fd5b806301ffc9a71461015d57806306fdde0314610185578063081812fc1461019a578063095ea7b3146101c557806318160ddd146101da57806323b872dd146101ec575b600080fd5b61017061016b3660046118f1565b610381565b60405190151581526020015b60405180910390f35b61018d6103ac565b60405161017c9190611966565b6101ad6101a8366004611979565b61043e565b6040516001600160a01b03909116815260200161017c565b6101d86101d33660046119ae565b610465565b005b6008545b60405190815260200161017c565b6101d86101fa3660046119d8565b610580565b6101de61020d3660046119ae565b6105b1565b6101d86102203660046119d8565b610647565b6101de610233366004611979565b610662565b6101d8610246366004611aa0565b6106f5565b6101ad610259366004611979565b610714565b6101de61026c366004611ae9565b610774565b6101d86107fa565b61028c610287366004611ae9565b61080e565b60405161017c9190611b3f565b6102ac6102a7366004611b52565b6108b0565b60405161017c929190611b85565b600a546001600160a01b03166101ad565b61018d610990565b6101d86102e1366004611ae9565b61099f565b6101d86102f4366004611bb5565b610a75565b6101d8610307366004611bec565b610a80565b6101d861031a3660046119ae565b610ab8565b61018d61032d366004611979565b610b2a565b610170610340366004611c68565b6001600160a01b03918216600090815260056020908152604080832093909416825291909152205460ff1690565b6101d861037c366004611ae9565b610bed565b60006001600160e01b0319821663780e9d6360e01b14806103a657506103a682610c66565b92915050565b6060600080546103bb90611c9b565b80601f01602080910402602001604051908101604052809291908181526020018280546103e790611c9b565b80156104345780601f1061040957610100808354040283529160200191610434565b820191906000526020600020905b81548152906001019060200180831161041757829003601f168201915b5050505050905090565b600061044982610cb6565b506000908152600460205260409020546001600160a01b031690565b600061047082610714565b9050806001600160a01b0316836001600160a01b031614156104e35760405162461bcd60e51b815260206004820152602160248201527f4552433732313a20617070726f76616c20746f2063757272656e74206f776e656044820152603960f91b60648201526084015b60405180910390fd5b336001600160a01b03821614806104ff57506104ff8133610340565b6105715760405162461bcd60e51b815260206004820152603e60248201527f4552433732313a20617070726f76652063616c6c6572206973206e6f7420746f60448201527f6b656e206f776e6572206e6f7220617070726f76656420666f7220616c6c000060648201526084016104da565b61057b8383610d15565b505050565b61058a3382610d83565b6105a65760405162461bcd60e51b81526004016104da90611cd6565b61057b838383610e02565b60006105bc83610774565b821061061e5760405162461bcd60e51b815260206004820152602b60248201527f455243373231456e756d657261626c653a206f776e657220696e646578206f7560448201526a74206f6620626f756e647360a81b60648201526084016104da565b506001600160a01b03919091166000908152600660209081526040808320938352929052205490565b61057b83838360405180602001604052806000815250610a80565b600061066d60085490565b82106106d05760405162461bcd60e51b815260206004820152602c60248201527f455243373231456e756d657261626c653a20676c6f62616c20696e646578206f60448201526b7574206f6620626f756e647360a01b60648201526084016104da565b600882815481106106e3576106e3611d24565b90600052602060002001549050919050565b6106fd610fa9565b805161071090600b906020840190611842565b5050565b6000818152600260205260408120546001600160a01b0316806103a65760405162461bcd60e51b8152602060048201526018602482015277115490cdcc8c4e881a5b9d985b1a59081d1bdad95b88125160421b60448201526064016104da565b60006001600160a01b0382166107de5760405162461bcd60e51b815260206004820152602960248201527f4552433732313a2061646472657373207a65726f206973206e6f7420612076616044820152683634b21037bbb732b960b91b60648201526084016104da565b506001600160a01b031660009081526003602052604090205490565b610802610fa9565b61080c6000611003565b565b6060600061081b83610774565b905060008167ffffffffffffffff81111561083857610838611a14565b604051908082528060200260200182016040528015610861578160200160208202803683370190505b50905060005b828110156108a85761087985826105b1565b82828151811061088b5761088b611d24565b6020908102919091010152806108a081611d50565b915050610867565b509392505050565b6060600082846108bf87610774565b6108c99190611d6b565b8111156108e757846108da87610774565b6108e49190611d6b565b90505b60008167ffffffffffffffff81111561090257610902611a14565b60405190808252806020026020018201604052801561092b578160200160208202803683370190505b50905060005b82811015610976576109478861020d838a611d82565b82828151811061095957610959611d24565b60209081029190910101528061096e81611d50565b915050610931565b50806109828388611d82565b935093505050935093915050565b6060600180546103bb90611c9b565b6109a7610fa9565b6040516370a0823160e01b81523060048201526000906001600160a01b038316906370a0823190602401602060405180830381865afa1580156109ee573d6000803e3d6000fd5b505050506040513d601f19601f82011682018060405250810190610a129190611d9a565b905080610a615760405162461bcd60e51b815260206004820152601b60248201527f43616e6e6f74207265636f766572207a65726f2062616c616e6365000000000060448201526064016104da565b6107106001600160a01b0383163383611055565b6107103383836110a7565b610a8a3383610d83565b610aa65760405162461bcd60e51b81526004016104da90611cd6565b610ab284848484611176565b50505050565b610ac0610fa9565b6040516323b872dd60e01b8152306004820152336024820152604481018290526001600160a01b038316906323b872dd90606401600060405180830381600087803b158015610b0e57600080fd5b505af1158015610b22573d6000803e3d6000fd5b505050505050565b6000818152600260205260409020546060906001600160a01b0316610b915760405162461bcd60e51b815260206004820152601f60248201527f55524920717565727920666f72206e6f6e6578697374656e7420746f6b656e0060448201526064016104da565b6000600b8054610ba090611c9b565b905011610bbc57604051806020016040528060008152506103a6565b600b610bc7836111a9565b604051602001610bd8929190611dcf565b60405160208183030381529060405292915050565b610bf5610fa9565b6001600160a01b038116610c5a5760405162461bcd60e51b815260206004820152602660248201527f4f776e61626c653a206e6577206f776e657220697320746865207a65726f206160448201526564647265737360d01b60648201526084016104da565b610c6381611003565b50565b60006001600160e01b031982166380ac58cd60e01b1480610c9757506001600160e01b03198216635b5e139f60e01b145b806103a657506301ffc9a760e01b6001600160e01b03198316146103a6565b6000818152600260205260409020546001600160a01b0316610c635760405162461bcd60e51b8152602060048201526018602482015277115490cdcc8c4e881a5b9d985b1a59081d1bdad95b88125160421b60448201526064016104da565b600081815260046020526040902080546001600160a01b0319166001600160a01b0384169081179091558190610d4a82610714565b6001600160a01b03167f8c5be1e5ebec7d5bd14f71427d1e84f3dd0314c0f7b2291e5b200ac8c7c3b92560405160405180910390a45050565b600080610d8f83610714565b9050806001600160a01b0316846001600160a01b03161480610dd657506001600160a01b0380821660009081526005602090815260408083209388168352929052205460ff165b80610dfa5750836001600160a01b0316610def8461043e565b6001600160a01b0316145b949350505050565b826001600160a01b0316610e1582610714565b6001600160a01b031614610e795760405162461bcd60e51b815260206004820152602560248201527f4552433732313a207472616e736665722066726f6d20696e636f72726563742060448201526437bbb732b960d91b60648201526084016104da565b6001600160a01b038216610edb5760405162461bcd60e51b8152602060048201526024808201527f4552433732313a207472616e7366657220746f20746865207a65726f206164646044820152637265737360e01b60648201526084016104da565b610ee68383836112a7565b610ef1600082610d15565b6001600160a01b0383166000908152600360205260408120805460019290610f1a908490611d6b565b90915550506001600160a01b0382166000908152600360205260408120805460019290610f48908490611d82565b909155505060008181526002602052604080822080546001600160a01b0319166001600160a01b0386811691821790925591518493918716917fddf252ad1be2c89b69c2b068fc378daa952ba7f163c4a11628f55a4df523b3ef91a4505050565b600a546001600160a01b0316331461080c5760405162461bcd60e51b815260206004820181905260248201527f4f776e61626c653a2063616c6c6572206973206e6f7420746865206f776e657260448201526064016104da565b600a80546001600160a01b038381166001600160a01b0319831681179093556040519116919082907f8be0079c531659141344cd1fd0a4f28419497f9722a3daafe3b4186f6b6457e090600090a35050565b604080516001600160a01b038416602482015260448082018490528251808303909101815260649091019091526020810180516001600160e01b031663a9059cbb60e01b17905261057b90849061135f565b816001600160a01b0316836001600160a01b031614156111095760405162461bcd60e51b815260206004820152601960248201527f4552433732313a20617070726f766520746f2063616c6c65720000000000000060448201526064016104da565b6001600160a01b03838116600081815260056020908152604080832094871680845294825291829020805460ff191686151590811790915591519182527f17307eab39ab6107e8899845ad3d59bd9653f200f220920489ca2b5937696c31910160405180910390a3505050565b611181848484610e02565b61118d84848484611431565b610ab25760405162461bcd60e51b81526004016104da90611e8a565b6060816111cd5750506040805180820190915260018152600360fc1b602082015290565b8160005b81156111f757806111e181611d50565b91506111f09050600a83611ef2565b91506111d1565b60008167ffffffffffffffff81111561121257611212611a14565b6040519080825280601f01601f19166020018201604052801561123c576020820181803683370190505b5090505b8415610dfa57611251600183611d6b565b915061125e600a86611f06565b611269906030611d82565b60f81b81838151811061127e5761127e611d24565b60200101906001600160f81b031916908160001a9053506112a0600a86611ef2565b9450611240565b6001600160a01b038316611302576112fd81600880546000838152600960205260408120829055600182018355919091527ff3f7a9fe364faab93b216da50a3214154f22a0a2b415b23a84c8169e8b636ee30155565b611325565b816001600160a01b0316836001600160a01b03161461132557611325838261152f565b6001600160a01b03821661133c5761057b816115cc565b826001600160a01b0316826001600160a01b03161461057b5761057b828261167b565b60006113b4826040518060400160405280602081526020017f5361666545524332303a206c6f772d6c6576656c2063616c6c206661696c6564815250856001600160a01b03166116bf9092919063ffffffff16565b80519091501561057b57808060200190518101906113d29190611f1a565b61057b5760405162461bcd60e51b815260206004820152602a60248201527f5361666545524332303a204552433230206f7065726174696f6e20646964206e6044820152691bdd081cdd58d8d9595960b21b60648201526084016104da565b60006001600160a01b0384163b1561152457604051630a85bd0160e11b81526001600160a01b0385169063150b7a0290611475903390899088908890600401611f37565b6020604051808303816000875af19250505080156114b0575060408051601f3d908101601f191682019092526114ad91810190611f74565b60015b61150a573d8080156114de576040519150601f19603f3d011682016040523d82523d6000602084013e6114e3565b606091505b5080516115025760405162461bcd60e51b81526004016104da90611e8a565b805181602001fd5b6001600160e01b031916630a85bd0160e11b149050610dfa565b506001949350505050565b6000600161153c84610774565b6115469190611d6b565b600083815260076020526040902054909150808214611599576001600160a01b03841660009081526006602090815260408083208584528252808320548484528184208190558352600790915290208190555b5060009182526007602090815260408084208490556001600160a01b039094168352600681528383209183525290812055565b6008546000906115de90600190611d6b565b6000838152600960205260408120546008805493945090928490811061160657611606611d24565b90600052602060002001549050806008838154811061162757611627611d24565b600091825260208083209091019290925582815260099091526040808220849055858252812055600880548061165f5761165f611f91565b6001900381819060005260206000200160009055905550505050565b600061168683610774565b6001600160a01b039093166000908152600660209081526040808320868452825280832085905593825260079052919091209190915550565b60606116ce84846000856116d8565b90505b9392505050565b6060824710156117395760405162461bcd60e51b815260206004820152602660248201527f416464726573733a20696e73756666696369656e742062616c616e636520666f6044820152651c8818d85b1b60d21b60648201526084016104da565b6001600160a01b0385163b6117905760405162461bcd60e51b815260206004820152601d60248201527f416464726573733a2063616c6c20746f206e6f6e2d636f6e747261637400000060448201526064016104da565b600080866001600160a01b031685876040516117ac9190611fa7565b60006040518083038185875af1925050503d80600081146117e9576040519150601f19603f3d011682016040523d82523d6000602084013e6117ee565b606091505b50915091506117fe828286611809565b979650505050505050565b606083156118185750816116d1565b8251156118285782518084602001fd5b8160405162461bcd60e51b81526004016104da9190611966565b82805461184e90611c9b565b90600052602060002090601f01602090048101928261187057600085556118b6565b82601f1061188957805160ff19168380011785556118b6565b828001600101855582156118b6579182015b828111156118b657825182559160200191906001019061189b565b506118c29291506118c6565b5090565b5b808211156118c257600081556001016118c7565b6001600160e01b031981168114610c6357600080fd5b60006020828403121561190357600080fd5b81356116d1816118db565b60005b83811015611929578181015183820152602001611911565b83811115610ab25750506000910152565b6000815180845261195281602086016020860161190e565b601f01601f19169290920160200192915050565b6020815260006116d1602083018461193a565b60006020828403121561198b57600080fd5b5035919050565b80356001600160a01b03811681146119a957600080fd5b919050565b600080604083850312156119c157600080fd5b6119ca83611992565b946020939093013593505050565b6000806000606084860312156119ed57600080fd5b6119f684611992565b9250611a0460208501611992565b9150604084013590509250925092565b634e487b7160e01b600052604160045260246000fd5b600067ffffffffffffffff80841115611a4557611a45611a14565b604051601f8501601f19908116603f01168101908282118183101715611a6d57611a6d611a14565b81604052809350858152868686011115611a8657600080fd5b858560208301376000602087830101525050509392505050565b600060208284031215611ab257600080fd5b813567ffffffffffffffff811115611ac957600080fd5b8201601f81018413611ada57600080fd5b610dfa84823560208401611a2a565b600060208284031215611afb57600080fd5b6116d182611992565b600081518084526020808501945080840160005b83811015611b3457815187529582019590820190600101611b18565b509495945050505050565b6020815260006116d16020830184611b04565b600080600060608486031215611b6757600080fd5b611b7084611992565b95602085013595506040909401359392505050565b604081526000611b986040830185611b04565b90508260208301529392505050565b8015158114610c6357600080fd5b60008060408385031215611bc857600080fd5b611bd183611992565b91506020830135611be181611ba7565b809150509250929050565b60008060008060808587031215611c0257600080fd5b611c0b85611992565b9350611c1960208601611992565b925060408501359150606085013567ffffffffffffffff811115611c3c57600080fd5b8501601f81018713611c4d57600080fd5b611c5c87823560208401611a2a565b91505092959194509250565b60008060408385031215611c7b57600080fd5b611c8483611992565b9150611c9260208401611992565b90509250929050565b600181811c90821680611caf57607f821691505b60208210811415611cd057634e487b7160e01b600052602260045260246000fd5b50919050565b6020808252602e908201527f4552433732313a2063616c6c6572206973206e6f7420746f6b656e206f776e6560408201526d1c881b9bdc88185c1c1c9bdd995960921b606082015260800190565b634e487b7160e01b600052603260045260246000fd5b634e487b7160e01b600052601160045260246000fd5b6000600019821415611d6457611d64611d3a565b5060010190565b600082821015611d7d57611d7d611d3a565b500390565b60008219821115611d9557611d95611d3a565b500190565b600060208284031215611dac57600080fd5b5051919050565b60008151611dc581856020860161190e565b9290920192915050565b600080845481600182811c915080831680611deb57607f831692505b6020808410821415611e0b57634e487b7160e01b86526022600452602486fd5b818015611e1f5760018114611e3057611e5d565b60ff19861689528489019650611e5d565b60008b81526020902060005b86811015611e555781548b820152908501908301611e3c565b505084890196505b505050505050611e81611e708286611db3565b64173539b7b760d91b815260050190565b95945050505050565b60208082526032908201527f4552433732313a207472616e7366657220746f206e6f6e20455243373231526560408201527131b2b4bb32b91034b6b83632b6b2b73a32b960711b606082015260800190565b634e487b7160e01b600052601260045260246000fd5b600082611f0157611f01611edc565b500490565b600082611f1557611f15611edc565b500690565b600060208284031215611f2c57600080fd5b81516116d181611ba7565b6001600160a01b0385811682528416602082015260408101839052608060608201819052600090611f6a9083018461193a565b9695505050505050565b600060208284031215611f8657600080fd5b81516116d1816118db565b634e487b7160e01b600052603160045260246000fd5b60008251611fb981846020870161190e565b919091019291505056fea26469706673582212208074a22ad78778121fc5668e7e5943c0c58e1ba548e36fd2521f35309d19e2ce64736f6c634300080b0033",
  "linkReferences": {},
  "deployedLinkReferences": {}
}