{
  "_format": "hh-sol-artifact-1",
  "contractName": "PsyLockSystem",
  "sourceName": "contracts/PsyLockSystem.sol",
  "abi": [
    {
      "inputs": [
        {
          "internalType": "contract PsyBulls",
          "name": "_erc721",
          "type": "address"
        }
      ],
      "stateMutability": "nonpayable",
      "type": "constructor"
    },
    {
      "anonymous": false,
      "inputs": [
        {
          "indexed": true,
          "internalType": "address",
          "name": "token",
          "type": "address"
        },
        {
          "indexed": true,
          "internalType": "uint256[]",
          "name": "tokenId",
          "type": "uint256[]"
        }
      ],
      "name": "NFTRecovered",
      "type": "event"
    },
    {
      "anonymous": false,
      "inputs": [
        {
          "indexed": true,
          "internalType": "address",
          "name": "previousOwner",
          "type": "address"
        },
        {
          "indexed": true,
          "internalType": "address",
          "name": "newOwner",
          "type": "address"
        }
      ],
      "name": "OwnershipTransferred",
      "type": "event"
    },
    {
      "anonymous": false,
      "inputs": [
        {
          "indexed": true,
          "internalType": "address",
          "name": "token",
          "type": "address"
        },
        {
          "indexed": false,
          "internalType": "uint256",
          "name": "amount",
          "type": "uint256"
        }
      ],
      "name": "TokenRecoverd",
      "type": "event"
    },
    {
      "inputs": [],
      "name": "ERC721_CONTRACT",
      "outputs": [
        {
          "internalType": "contract PsyBulls",
          "name": "",
          "type": "address"
        }
      ],
      "stateMutability": "view",
      "type": "function"
    },
    {
      "inputs": [
        {
          "internalType": "uint256",
          "name": "",
          "type": "uint256"
        }
      ],
      "name": "NFTInfos",
      "outputs": [
        {
          "internalType": "uint256",
          "name": "lockPeriod",
          "type": "uint256"
        },
        {
          "internalType": "uint256",
          "name": "tokenId",
          "type": "uint256"
        }
      ],
      "stateMutability": "view",
      "type": "function"
    },
    {
      "inputs": [
        {
          "internalType": "uint256[]",
          "name": "tokenIds",
          "type": "uint256[]"
        }
      ],
      "name": "deposit",
      "outputs": [],
      "stateMutability": "nonpayable",
      "type": "function"
    },
    {
      "inputs": [
        {
          "internalType": "address",
          "name": "account",
          "type": "address"
        }
      ],
      "name": "depositsOf",
      "outputs": [
        {
          "internalType": "uint256[]",
          "name": "",
          "type": "uint256[]"
        }
      ],
      "stateMutability": "view",
      "type": "function"
    },
    {
      "inputs": [
        {
          "internalType": "uint256",
          "name": "tokenId",
          "type": "uint256"
        }
      ],
      "name": "findRarityOfNFT",
      "outputs": [
        {
          "internalType": "uint256",
          "name": "rate",
          "type": "uint256"
        }
      ],
      "stateMutability": "view",
      "type": "function"
    },
    {
      "inputs": [
        {
          "internalType": "address",
          "name": "user",
          "type": "address"
        }
      ],
      "name": "findRateOfUser",
      "outputs": [
        {
          "internalType": "uint256",
          "name": "",
          "type": "uint256"
        }
      ],
      "stateMutability": "view",
      "type": "function"
    },
    {
      "inputs": [
        {
          "internalType": "address",
          "name": "",
          "type": "address"
        },
        {
          "internalType": "address",
          "name": "",
          "type": "address"
        },
        {
          "internalType": "uint256",
          "name": "",
          "type": "uint256"
        },
        {
          "internalType": "bytes",
          "name": "",
          "type": "bytes"
        }
      ],
      "name": "onERC721Received",
      "outputs": [
        {
          "internalType": "bytes4",
          "name": "",
          "type": "bytes4"
        }
      ],
      "stateMutability": "pure",
      "type": "function"
    },
    {
      "inputs": [],
      "name": "owner",
      "outputs": [
        {
          "internalType": "address",
          "name": "",
          "type": "address"
        }
      ],
      "stateMutability": "view",
      "type": "function"
    },
    {
      "inputs": [
        {
          "internalType": "address",
          "name": "_token",
          "type": "address"
        },
        {
          "internalType": "uint256[]",
          "name": "_tokenId",
          "type": "uint256[]"
        }
      ],
      "name": "ownerRecoverNFT",
      "outputs": [],
      "stateMutability": "nonpayable",
      "type": "function"
    },
    {
      "inputs": [
        {
          "internalType": "address",
          "name": "_token",
          "type": "address"
        }
      ],
      "name": "ownerRecoverToken",
      "outputs": [],
      "stateMutability": "nonpayable",
      "type": "function"
    },
    {
      "inputs": [],
      "name": "renounceOwnership",
      "outputs": [],
      "stateMutability": "nonpayable",
      "type": "function"
    },
    {
      "inputs": [
        {
          "internalType": "uint256",
          "name": "_locktime",
          "type": "uint256"
        }
      ],
      "name": "resetLockTime",
      "outputs": [],
      "stateMutability": "nonpayable",
      "type": "function"
    },
    {
      "inputs": [
        {
          "internalType": "uint256[]",
          "name": "tokenIds",
          "type": "uint256[]"
        }
      ],
      "name": "restake",
      "outputs": [],
      "stateMutability": "nonpayable",
      "type": "function"
    },
    {
      "inputs": [
        {
          "internalType": "uint256",
          "name": "",
          "type": "uint256"
        }
      ],
      "name": "rewardRate",
      "outputs": [
        {
          "internalType": "uint256",
          "name": "",
          "type": "uint256"
        }
      ],
      "stateMutability": "view",
      "type": "function"
    },
    {
      "inputs": [
        {
          "internalType": "uint256[]",
          "name": "_tokenIds",
          "type": "uint256[]"
        },
        {
          "internalType": "uint256[]",
          "name": "_raritys",
          "type": "uint256[]"
        }
      ],
      "name": "setRarity",
      "outputs": [],
      "stateMutability": "nonpayable",
      "type": "function"
    },
    {
      "inputs": [],
      "name": "toggleStart",
      "outputs": [],
      "stateMutability": "nonpayable",
      "type": "function"
    },
    {
      "inputs": [
        {
          "internalType": "uint256",
          "name": "",
          "type": "uint256"
        }
      ],
      "name": "tokenRarity",
      "outputs": [
        {
          "internalType": "uint256",
          "name": "",
          "type": "uint256"
        }
      ],
      "stateMutability": "view",
      "type": "function"
    },
    {
      "inputs": [
        {
          "internalType": "address",
          "name": "newOwner",
          "type": "address"
        }
      ],
      "name": "transferOwnership",
      "outputs": [],
      "stateMutability": "nonpayable",
      "type": "function"
    },
    {
      "inputs": [
        {
          "internalType": "uint256[]",
          "name": "tokenIds",
          "type": "uint256[]"
        }
      ],
      "name": "withdraw",
      "outputs": [],
      "stateMutability": "nonpayable",
      "type": "function"
    }
  ],
  "bytecode": "0x608060405262278d00600c5534801561001757600080fd5b5060405161166e38038061166e833981016040819052610036916100be565b61003f3361006e565b600180546001600160a01b0319166001600160a01b0392909216919091179055600d805460ff191690556100ee565b600080546001600160a01b038381166001600160a01b0319831681178455604051919092169283917f8be0079c531659141344cd1fd0a4f28419497f9722a3daafe3b4186f6b6457e09190a35050565b6000602082840312156100d057600080fd5b81516001600160a01b03811681146100e757600080fd5b9392505050565b611571806100fd6000396000f3fe608060405234801561001057600080fd5b50600436106101215760003560e01c8063983d95ce116100ad578063db50db4211610071578063db50db4214610277578063e2642a96146102b3578063e3a9db1a146102c6578063f234a22d146102e6578063f2fde38b1461030657600080fd5b8063983d95ce1461020b578063afb0a3691461021e578063bbe514ff1461023e578063cea0196214610251578063da3f0ad81461026457600080fd5b80631891227e116100f45780631891227e146101ab578063424e87e2146101be578063598b8e71146101df578063715018a6146101f25780638da5cb5b146101fa57600080fd5b806308ef74f21461012657806311cbef3d1461013b578063150b7a021461014357806316c2acb214610180575b600080fd5b610139610134366004611187565b610319565b005b61013961037a565b6101626101513660046111e5565b630a85bd0160e11b95945050505050565b6040516001600160e01b031990911681526020015b60405180910390f35b600154610193906001600160a01b031681565b6040516001600160a01b039091168152602001610177565b6101396101b9366004611280565b610396565b6101d16101cc366004611299565b6103a3565b604051908152602001610177565b6101396101ed366004611187565b610461565b610139610602565b6000546001600160a01b0316610193565b610139610219366004611187565b610616565b6101d161022c366004611280565b60036020526000908152604090205481565b61013961024c3660046112b4565b6107f2565b6101d161025f366004611280565b6108b8565b610139610272366004611299565b6108cf565b61029e610285366004611280565b6004602052600090815260409020805460019091015482565b60408051928352602083019190915201610177565b6101396102c1366004611320565b6109ec565b6102d96102d4366004611299565b610af5565b6040516101779190611373565b6101d16102f4366004611280565b60009081526003602052604090205490565b610139610314366004611299565b610bb1565b8060005b818110156103745760006004600086868581811061033d5761033d6113b7565b9050602002013581526020019081526020016000209050600c544261036291906113e3565b905561036d816113fb565b905061031d565b50505050565b610382610c2a565b600d805460ff19811660ff90911615179055565b61039e610c2a565b600c55565b6000806103af83610af5565b80519091506000805b82821015610458576000600460008685815181106103d8576103d86113b7565b602002602001015181526020019081526020016000206040518060400160405290816000820154815260200160018201548152505090508060000151421015610447576000610437826020015160009081526003602052604090205490565b905061044381846113e3565b9250505b50610451826113fb565b91506103b8565b95945050505050565b600d5460ff166104b85760405162461bcd60e51b815260206004820152601d60248201527f4c6f636b20636f6e7472616374206e6f7420737461727465642079657400000060448201526064015b60405180910390fd5b8060005b81811015610374576000600460008686858181106104dc576104dc6113b7565b602090810292909201358352508101919091526040016000206001549091506001600160a01b03166323b872dd333088888781811061051d5761051d6113b7565b6040516001600160e01b031960e088901b1681526001600160a01b03958616600482015294909316602485015250602090910201356044820152606401600060405180830381600087803b15801561057457600080fd5b505af1158015610588573d6000803e3d6000fd5b505050506105bf8585848181106105a1576105a16113b7565b33600090815260026020908152604090912093910201359050610c84565b50600c546105cd90426113e3565b81558484838181106105e1576105e16113b7565b90506020020135816001018190555050806105fb906113fb565b90506104bc565b61060a610c2a565b6106146000610c99565b565b8060005b818110156103745760006004600086868581811061063a5761063a6113b7565b90506020020135815260200190815260200160002090506000816000015490508042116106a25760405162461bcd60e51b81526020600482015260166024820152751b1bd8dac81d1a5b59481b9bdd08195e18d95959195960521b60448201526064016104af565b6106d58686858181106106b7576106b76113b7565b33600090815260026020908152604090912093910201359050610ce9565b6107175760405162461bcd60e51b8152602060048201526013602482015272151bdad95b881b9bdd0819195c1bdcda5d1959606a1b60448201526064016104af565b61074a86868581811061072c5761072c6113b7565b33600090815260026020908152604090912093910201359050610d01565b506001546001600160a01b03166323b872dd3033898988818110610770576107706113b7565b6040516001600160e01b031960e088901b1681526001600160a01b03958616600482015294909316602485015250602090910201356044820152606401600060405180830381600087803b1580156107c757600080fd5b505af11580156107db573d6000803e3d6000fd5b505050505050806107eb906113fb565b905061061a565b6107fa610c2a565b828180821461084b5760405162461bcd60e51b815260206004820152601960248201527f696e76616c6964206c656e6774682061726775656d656e74730000000000000060448201526064016104af565b60005b828110156108af57848482818110610868576108686113b7565b9050602002013560036000898985818110610885576108856113b7565b90506020020135815260200190815260200160002081905550806108a8906113fb565b905061084e565b50505050505050565b600581600781106108c857600080fd5b0154905081565b6108d7610c2a565b6040516370a0823160e01b81523060048201526000906001600160a01b038316906370a0823190602401602060405180830381865afa15801561091e573d6000803e3d6000fd5b505050506040513d601f19601f820116820180604052508101906109429190611416565b9050806109915760405162461bcd60e51b815260206004820152601f60248201527f4f7065726174696f6e733a204e6f20746f6b656e20746f207265636f7665720060448201526064016104af565b6109a56001600160a01b0383163383610d0d565b816001600160a01b03167f33446578f932f930c093f8ca9b7d449e2af5ac4b70bf78c6927a88da0d338336826040516109e091815260200190565b60405180910390a25050565b6109f4610c2a565b8060005b81811015610aa357846001600160a01b03166342842e0e3033878786818110610a2357610a236113b7565b6040516001600160e01b031960e088901b1681526001600160a01b03958616600482015294909316602485015250602090910201356044820152606401600060405180830381600087803b158015610a7a57600080fd5b505af1158015610a8e573d6000803e3d6000fd5b5050505080610a9c906113fb565b90506109f8565b508282604051610ab492919061142f565b604051908190038120906001600160a01b038616907f3551588aebc798892f9d5f9c8cc83700e1005be61735e02d95764f0f09b089d990600090a350505050565b6001600160a01b0381166000908152600260205260408120606091610b1982610d64565b67ffffffffffffffff811115610b3157610b3161145b565b604051908082528060200260200182016040528015610b5a578160200160208202803683370190505b50905060005b610b6983610d64565b811015610ba957610b7a8382610d6e565b828281518110610b8c57610b8c6113b7565b602090810291909101015280610ba1816113fb565b915050610b60565b509392505050565b610bb9610c2a565b6001600160a01b038116610c1e5760405162461bcd60e51b815260206004820152602660248201527f4f776e61626c653a206e6577206f776e657220697320746865207a65726f206160448201526564647265737360d01b60648201526084016104af565b610c2781610c99565b50565b6000546001600160a01b031633146106145760405162461bcd60e51b815260206004820181905260248201527f4f776e61626c653a2063616c6c6572206973206e6f7420746865206f776e657260448201526064016104af565b6000610c908383610d7a565b90505b92915050565b600080546001600160a01b038381166001600160a01b0319831681178455604051919092169283917f8be0079c531659141344cd1fd0a4f28419497f9722a3daafe3b4186f6b6457e09190a35050565b60008181526001830160205260408120541515610c90565b6000610c908383610dc9565b604080516001600160a01b038416602482015260448082018490528251808303909101815260649091019091526020810180516001600160e01b031663a9059cbb60e01b179052610d5f908490610ebc565b505050565b6000610c93825490565b6000610c908383610f8e565b6000818152600183016020526040812054610dc157508154600181810184556000848152602080822090930184905584548482528286019093526040902091909155610c93565b506000610c93565b60008181526001830160205260408120548015610eb2576000610ded600183611471565b8554909150600090610e0190600190611471565b9050818114610e66576000866000018281548110610e2157610e216113b7565b9060005260206000200154905080876000018481548110610e4457610e446113b7565b6000918252602080832090910192909255918252600188019052604090208390555b8554869080610e7757610e77611488565b600190038181906000526020600020016000905590558560010160008681526020019081526020016000206000905560019350505050610c93565b6000915050610c93565b6000610f11826040518060400160405280602081526020017f5361666545524332303a206c6f772d6c6576656c2063616c6c206661696c6564815250856001600160a01b0316610fb89092919063ffffffff16565b805190915015610d5f5780806020019051810190610f2f919061149e565b610d5f5760405162461bcd60e51b815260206004820152602a60248201527f5361666545524332303a204552433230206f7065726174696f6e20646964206e6044820152691bdd081cdd58d8d9595960b21b60648201526084016104af565b6000826000018281548110610fa557610fa56113b7565b9060005260206000200154905092915050565b6060610fc78484600085610fd1565b90505b9392505050565b6060824710156110325760405162461bcd60e51b815260206004820152602660248201527f416464726573733a20696e73756666696369656e742062616c616e636520666f6044820152651c8818d85b1b60d21b60648201526084016104af565b6001600160a01b0385163b6110895760405162461bcd60e51b815260206004820152601d60248201527f416464726573733a2063616c6c20746f206e6f6e2d636f6e747261637400000060448201526064016104af565b600080866001600160a01b031685876040516110a591906114ec565b60006040518083038185875af1925050503d80600081146110e2576040519150601f19603f3d011682016040523d82523d6000602084013e6110e7565b606091505b50915091506110f7828286611102565b979650505050505050565b60608315611111575081610fca565b8251156111215782518084602001fd5b8160405162461bcd60e51b81526004016104af9190611508565b60008083601f84011261114d57600080fd5b50813567ffffffffffffffff81111561116557600080fd5b6020830191508360208260051b850101111561118057600080fd5b9250929050565b6000806020838503121561119a57600080fd5b823567ffffffffffffffff8111156111b157600080fd5b6111bd8582860161113b565b90969095509350505050565b80356001600160a01b03811681146111e057600080fd5b919050565b6000806000806000608086880312156111fd57600080fd5b611206866111c9565b9450611214602087016111c9565b935060408601359250606086013567ffffffffffffffff8082111561123857600080fd5b818801915088601f83011261124c57600080fd5b81358181111561125b57600080fd5b89602082850101111561126d57600080fd5b9699959850939650602001949392505050565b60006020828403121561129257600080fd5b5035919050565b6000602082840312156112ab57600080fd5b610c90826111c9565b600080600080604085870312156112ca57600080fd5b843567ffffffffffffffff808211156112e257600080fd5b6112ee8883890161113b565b9096509450602087013591508082111561130757600080fd5b506113148782880161113b565b95989497509550505050565b60008060006040848603121561133557600080fd5b61133e846111c9565b9250602084013567ffffffffffffffff81111561135a57600080fd5b6113668682870161113b565b9497909650939450505050565b6020808252825182820181905260009190848201906040850190845b818110156113ab5783518352928401929184019160010161138f565b50909695505050505050565b634e487b7160e01b600052603260045260246000fd5b634e487b7160e01b600052601160045260246000fd5b600082198211156113f6576113f66113cd565b500190565b600060001982141561140f5761140f6113cd565b5060010190565b60006020828403121561142857600080fd5b5051919050565b60006001600160fb1b0383111561144557600080fd5b8260051b80858437600092019182525092915050565b634e487b7160e01b600052604160045260246000fd5b600082821015611483576114836113cd565b500390565b634e487b7160e01b600052603160045260246000fd5b6000602082840312156114b057600080fd5b81518015158114610fca57600080fd5b60005b838110156114db5781810151838201526020016114c3565b838111156103745750506000910152565b600082516114fe8184602087016114c0565b9190910192915050565b60208152600082518060208401526115278160408501602087016114c0565b601f01601f1916919091016040019291505056fea26469706673582212203c4a8d8b3122cb96b8281c17f8540e9ab0806f6a318ca230fd6c25423acbb79764736f6c634300080b0033",
  "linkReferences": {},
  "deployedLinkReferences": {}
}