{
  "_format": "hh-sol-artifact-1",
  "contractName": "PsyBulls",
  "sourceName": "contracts/PsyBulls.sol",
  "abi": [
    {
      "inputs": [
        {
          "internalType": "string",
          "name": "_name",
          "type": "string"
        },
        {
          "internalType": "string",
          "name": "_symbol",
          "type": "string"
        },
        {
          "internalType": "uint256",
          "name": "_maxSupply",
          "type": "uint256"
        },
        {
          "internalType": "string",
          "name": "_baseURI",
          "type": "string"
        },
        {
          "internalType": "address",
          "name": "_team1",
          "type": "address"
        },
        {
          "internalType": "address",
          "name": "_team2",
          "type": "address"
        },
        {
          "internalType": "address",
          "name": "_team3",
          "type": "address"
        },
        {
          "internalType": "address",
          "name": "_team4",
          "type": "address"
        }
      ],
      "stateMutability": "nonpayable",
      "type": "constructor"
    },
    {
      "anonymous": false,
      "inputs": [
        {
          "indexed": true,
          "internalType": "address",
          "name": "owner",
          "type": "address"
        },
        {
          "indexed": true,
          "internalType": "address",
          "name": "approved",
          "type": "address"
        },
        {
          "indexed": true,
          "internalType": "uint256",
          "name": "tokenId",
          "type": "uint256"
        }
      ],
      "name": "Approval",
      "type": "event"
    },
    {
      "anonymous": false,
      "inputs": [
        {
          "indexed": true,
          "internalType": "address",
          "name": "owner",
          "type": "address"
        },
        {
          "indexed": true,
          "internalType": "address",
          "name": "operator",
          "type": "address"
        },
        {
          "indexed": false,
          "internalType": "bool",
          "name": "approved",
          "type": "bool"
        }
      ],
      "name": "ApprovalForAll",
      "type": "event"
    },
    {
      "anonymous": false,
      "inputs": [
        {
          "indexed": true,
          "internalType": "address",
          "name": "previousOwner",
          "type": "address"
        },
        {
          "indexed": true,
          "internalType": "address",
          "name": "newOwner",
          "type": "address"
        }
      ],
      "name": "OwnershipTransferred",
      "type": "event"
    },
    {
      "anonymous": false,
      "inputs": [
        {
          "indexed": true,
          "internalType": "address",
          "name": "from",
          "type": "address"
        },
        {
          "indexed": true,
          "internalType": "address",
          "name": "to",
          "type": "address"
        },
        {
          "indexed": true,
          "internalType": "uint256",
          "name": "tokenId",
          "type": "uint256"
        }
      ],
      "name": "Transfer",
      "type": "event"
    },
    {
      "inputs": [
        {
          "internalType": "address",
          "name": "to",
          "type": "address"
        },
        {
          "internalType": "uint256",
          "name": "tokenId",
          "type": "uint256"
        }
      ],
      "name": "approve",
      "outputs": [],
      "stateMutability": "nonpayable",
      "type": "function"
    },
    {
      "inputs": [
        {
          "internalType": "address",
          "name": "owner",
          "type": "address"
        }
      ],
      "name": "balanceOf",
      "outputs": [
        {
          "internalType": "uint256",
          "name": "",
          "type": "uint256"
        }
      ],
      "stateMutability": "view",
      "type": "function"
    },
    {
      "inputs": [],
      "name": "endPresale",
      "outputs": [],
      "stateMutability": "nonpayable",
      "type": "function"
    },
    {
      "inputs": [
        {
          "internalType": "uint256",
          "name": "tokenId",
          "type": "uint256"
        }
      ],
      "name": "getApproved",
      "outputs": [
        {
          "internalType": "address",
          "name": "",
          "type": "address"
        }
      ],
      "stateMutability": "view",
      "type": "function"
    },
    {
      "inputs": [
        {
          "internalType": "address",
          "name": "owner",
          "type": "address"
        },
        {
          "internalType": "address",
          "name": "operator",
          "type": "address"
        }
      ],
      "name": "isApprovedForAll",
      "outputs": [
        {
          "internalType": "bool",
          "name": "",
          "type": "bool"
        }
      ],
      "stateMutability": "view",
      "type": "function"
    },
    {
      "inputs": [],
      "name": "maxMintPerTx",
      "outputs": [
        {
          "internalType": "uint256",
          "name": "",
          "type": "uint256"
        }
      ],
      "stateMutability": "view",
      "type": "function"
    },
    {
      "inputs": [],
      "name": "maxSupply",
      "outputs": [
        {
          "internalType": "uint256",
          "name": "",
          "type": "uint256"
        }
      ],
      "stateMutability": "view",
      "type": "function"
    },
    {
      "inputs": [
        {
          "internalType": "uint256",
          "name": "_amount",
          "type": "uint256"
        }
      ],
      "name": "mint",
      "outputs": [],
      "stateMutability": "payable",
      "type": "function"
    },
    {
      "inputs": [
        {
          "internalType": "uint256",
          "name": "_amount",
          "type": "uint256"
        }
      ],
      "name": "mintPresale",
      "outputs": [],
      "stateMutability": "payable",
      "type": "function"
    },
    {
      "inputs": [],
      "name": "name",
      "outputs": [
        {
          "internalType": "string",
          "name": "",
          "type": "string"
        }
      ],
      "stateMutability": "view",
      "type": "function"
    },
    {
      "inputs": [],
      "name": "owner",
      "outputs": [
        {
          "internalType": "address",
          "name": "",
          "type": "address"
        }
      ],
      "stateMutability": "view",
      "type": "function"
    },
    {
      "inputs": [
        {
          "internalType": "uint256",
          "name": "tokenId",
          "type": "uint256"
        }
      ],
      "name": "ownerOf",
      "outputs": [
        {
          "internalType": "address",
          "name": "",
          "type": "address"
        }
      ],
      "stateMutability": "view",
      "type": "function"
    },
    {
      "inputs": [],
      "name": "pauseSale",
      "outputs": [],
      "stateMutability": "nonpayable",
      "type": "function"
    },
    {
      "inputs": [],
      "name": "presaleDuration",
      "outputs": [
        {
          "internalType": "uint256",
          "name": "",
          "type": "uint256"
        }
      ],
      "stateMutability": "view",
      "type": "function"
    },
    {
      "inputs": [],
      "name": "presaleEnd",
      "outputs": [
        {
          "internalType": "uint256",
          "name": "",
          "type": "uint256"
        }
      ],
      "stateMutability": "view",
      "type": "function"
    },
    {
      "inputs": [],
      "name": "presaleIsActive",
      "outputs": [
        {
          "internalType": "bool",
          "name": "",
          "type": "bool"
        }
      ],
      "stateMutability": "view",
      "type": "function"
    },
    {
      "inputs": [],
      "name": "presaleMaxSpots",
      "outputs": [
        {
          "internalType": "uint256",
          "name": "",
          "type": "uint256"
        }
      ],
      "stateMutability": "view",
      "type": "function"
    },
    {
      "inputs": [],
      "name": "presaleMaxTokens",
      "outputs": [
        {
          "internalType": "uint256",
          "name": "",
          "type": "uint256"
        }
      ],
      "stateMutability": "view",
      "type": "function"
    },
    {
      "inputs": [],
      "name": "presaleSpotsFilled",
      "outputs": [
        {
          "internalType": "uint256",
          "name": "",
          "type": "uint256"
        }
      ],
      "stateMutability": "view",
      "type": "function"
    },
    {
      "inputs": [],
      "name": "presaleStartedAt",
      "outputs": [
        {
          "internalType": "uint256",
          "name": "",
          "type": "uint256"
        }
      ],
      "stateMutability": "view",
      "type": "function"
    },
    {
      "inputs": [],
      "name": "price",
      "outputs": [
        {
          "internalType": "uint256",
          "name": "",
          "type": "uint256"
        }
      ],
      "stateMutability": "view",
      "type": "function"
    },
    {
      "inputs": [],
      "name": "pricePresale",
      "outputs": [
        {
          "internalType": "uint256",
          "name": "",
          "type": "uint256"
        }
      ],
      "stateMutability": "view",
      "type": "function"
    },
    {
      "inputs": [],
      "name": "provenance",
      "outputs": [
        {
          "internalType": "string",
          "name": "",
          "type": "string"
        }
      ],
      "stateMutability": "view",
      "type": "function"
    },
    {
      "inputs": [
        {
          "internalType": "address",
          "name": "_token",
          "type": "address"
        },
        {
          "internalType": "uint256",
          "name": "_tokenId",
          "type": "uint256"
        }
      ],
      "name": "recoverNonFungibleToken",
      "outputs": [],
      "stateMutability": "nonpayable",
      "type": "function"
    },
    {
      "inputs": [
        {
          "internalType": "address",
          "name": "_token",
          "type": "address"
        }
      ],
      "name": "recoverToken",
      "outputs": [],
      "stateMutability": "nonpayable",
      "type": "function"
    },
    {
      "inputs": [],
      "name": "renounceOwnership",
      "outputs": [],
      "stateMutability": "nonpayable",
      "type": "function"
    },
    {
      "inputs": [
        {
          "internalType": "address",
          "name": "_to",
          "type": "address"
        },
        {
          "internalType": "uint256",
          "name": "_amount",
          "type": "uint256"
        }
      ],
      "name": "reserve",
      "outputs": [],
      "stateMutability": "nonpayable",
      "type": "function"
    },
    {
      "inputs": [
        {
          "internalType": "address",
          "name": "from",
          "type": "address"
        },
        {
          "internalType": "address",
          "name": "to",
          "type": "address"
        },
        {
          "internalType": "uint256",
          "name": "tokenId",
          "type": "uint256"
        }
      ],
      "name": "safeTransferFrom",
      "outputs": [],
      "stateMutability": "nonpayable",
      "type": "function"
    },
    {
      "inputs": [
        {
          "internalType": "address",
          "name": "from",
          "type": "address"
        },
        {
          "internalType": "address",
          "name": "to",
          "type": "address"
        },
        {
          "internalType": "uint256",
          "name": "tokenId",
          "type": "uint256"
        },
        {
          "internalType": "bytes",
          "name": "data",
          "type": "bytes"
        }
      ],
      "name": "safeTransferFrom",
      "outputs": [],
      "stateMutability": "nonpayable",
      "type": "function"
    },
    {
      "inputs": [],
      "name": "saleIsActive",
      "outputs": [
        {
          "internalType": "bool",
          "name": "",
          "type": "bool"
        }
      ],
      "stateMutability": "view",
      "type": "function"
    },
    {
      "inputs": [
        {
          "internalType": "address",
          "name": "operator",
          "type": "address"
        },
        {
          "internalType": "bool",
          "name": "approved",
          "type": "bool"
        }
      ],
      "name": "setApprovalForAll",
      "outputs": [],
      "stateMutability": "nonpayable",
      "type": "function"
    },
    {
      "inputs": [
        {
          "internalType": "string",
          "name": "_uri",
          "type": "string"
        }
      ],
      "name": "setBaseURI",
      "outputs": [],
      "stateMutability": "nonpayable",
      "type": "function"
    },
    {
      "inputs": [
        {
          "internalType": "uint256",
          "name": "_price",
          "type": "uint256"
        }
      ],
      "name": "setPrice",
      "outputs": [],
      "stateMutability": "nonpayable",
      "type": "function"
    },
    {
      "inputs": [
        {
          "internalType": "uint256",
          "name": "_price",
          "type": "uint256"
        }
      ],
      "name": "setPricePresale",
      "outputs": [],
      "stateMutability": "nonpayable",
      "type": "function"
    },
    {
      "inputs": [
        {
          "internalType": "string",
          "name": "provenanceHash",
          "type": "string"
        }
      ],
      "name": "setProvenanceHash",
      "outputs": [],
      "stateMutability": "nonpayable",
      "type": "function"
    },
    {
      "inputs": [],
      "name": "startSale",
      "outputs": [],
      "stateMutability": "nonpayable",
      "type": "function"
    },
    {
      "inputs": [
        {
          "internalType": "bytes4",
          "name": "interfaceId",
          "type": "bytes4"
        }
      ],
      "name": "supportsInterface",
      "outputs": [
        {
          "internalType": "bool",
          "name": "",
          "type": "bool"
        }
      ],
      "stateMutability": "view",
      "type": "function"
    },
    {
      "inputs": [],
      "name": "symbol",
      "outputs": [
        {
          "internalType": "string",
          "name": "",
          "type": "string"
        }
      ],
      "stateMutability": "view",
      "type": "function"
    },
    {
      "inputs": [],
      "name": "team1",
      "outputs": [
        {
          "internalType": "address",
          "name": "",
          "type": "address"
        }
      ],
      "stateMutability": "view",
      "type": "function"
    },
    {
      "inputs": [],
      "name": "team2",
      "outputs": [
        {
          "internalType": "address",
          "name": "",
          "type": "address"
        }
      ],
      "stateMutability": "view",
      "type": "function"
    },
    {
      "inputs": [],
      "name": "team3",
      "outputs": [
        {
          "internalType": "address",
          "name": "",
          "type": "address"
        }
      ],
      "stateMutability": "view",
      "type": "function"
    },
    {
      "inputs": [],
      "name": "team4",
      "outputs": [
        {
          "internalType": "address",
          "name": "",
          "type": "address"
        }
      ],
      "stateMutability": "view",
      "type": "function"
    },
    {
      "inputs": [
        {
          "internalType": "uint256",
          "name": "index",
          "type": "uint256"
        }
      ],
      "name": "tokenByIndex",
      "outputs": [
        {
          "internalType": "uint256",
          "name": "",
          "type": "uint256"
        }
      ],
      "stateMutability": "view",
      "type": "function"
    },
    {
      "inputs": [
        {
          "internalType": "address",
          "name": "owner",
          "type": "address"
        },
        {
          "internalType": "uint256",
          "name": "index",
          "type": "uint256"
        }
      ],
      "name": "tokenOfOwnerByIndex",
      "outputs": [
        {
          "internalType": "uint256",
          "name": "",
          "type": "uint256"
        }
      ],
      "stateMutability": "view",
      "type": "function"
    },
    {
      "inputs": [
        {
          "internalType": "uint256",
          "name": "tokenId",
          "type": "uint256"
        }
      ],
      "name": "tokenURI",
      "outputs": [
        {
          "internalType": "string",
          "name": "",
          "type": "string"
        }
      ],
      "stateMutability": "view",
      "type": "function"
    },
    {
      "inputs": [
        {
          "internalType": "address",
          "name": "_owner",
          "type": "address"
        }
      ],
      "name": "tokensOfOwner",
      "outputs": [
        {
          "internalType": "uint256[]",
          "name": "",
          "type": "uint256[]"
        }
      ],
      "stateMutability": "view",
      "type": "function"
    },
    {
      "inputs": [
        {
          "internalType": "address",
          "name": "user",
          "type": "address"
        },
        {
          "internalType": "uint256",
          "name": "cursor",
          "type": "uint256"
        },
        {
          "internalType": "uint256",
          "name": "size",
          "type": "uint256"
        }
      ],
      "name": "tokensOfOwnerBySize",
      "outputs": [
        {
          "internalType": "uint256[]",
          "name": "",
          "type": "uint256[]"
        },
        {
          "internalType": "uint256",
          "name": "",
          "type": "uint256"
        }
      ],
      "stateMutability": "view",
      "type": "function"
    },
    {
      "inputs": [],
      "name": "totalSupply",
      "outputs": [
        {
          "internalType": "uint256",
          "name": "",
          "type": "uint256"
        }
      ],
      "stateMutability": "view",
      "type": "function"
    },
    {
      "inputs": [
        {
          "internalType": "address",
          "name": "from",
          "type": "address"
        },
        {
          "internalType": "address",
          "name": "to",
          "type": "address"
        },
        {
          "internalType": "uint256",
          "name": "tokenId",
          "type": "uint256"
        }
      ],
      "name": "transferFrom",
      "outputs": [],
      "stateMutability": "nonpayable",
      "type": "function"
    },
    {
      "inputs": [
        {
          "internalType": "address",
          "name": "newOwner",
          "type": "address"
        }
      ],
      "name": "transferOwnership",
      "outputs": [],
      "stateMutability": "nonpayable",
      "type": "function"
    },
    {
      "inputs": [
        {
          "internalType": "address[]",
          "name": "_users",
          "type": "address[]"
        }
      ],
      "name": "whitelistForPresale",
      "outputs": [],
      "stateMutability": "nonpayable",
      "type": "function"
    },
    {
      "inputs": [
        {
          "internalType": "address",
          "name": "",
          "type": "address"
        }
      ],
      "name": "whitelistedForPresale",
      "outputs": [
        {
          "internalType": "bool",
          "name": "",
          "type": "bool"
        }
      ],
      "stateMutability": "view",
      "type": "function"
    },
    {
      "inputs": [],
      "name": "withdraw",
      "outputs": [],
      "stateMutability": "nonpayable",
      "type": "function"
    },
    {
      "stateMutability": "payable",
      "type": "receive"
    }
  ],
  "bytecode": "0x610140604081905260006101208190526200001d91600d91620001a5565b50603260805261151860c0526103e860e0526102586101005267027f7d0bdb920000600e55670214e8348c4f0000600f556010805460ff191690553480156200006557600080fd5b50604051620037d2380380620037d2833981016040819052620000889162000335565b87878682828160009080519060200190620000a5929190620001a5565b508051620000bb906001906020840190620001a5565b505050620000d8620000d26200014f60201b60201c565b62000153565b8051620000ed90600b906020840190620001a5565b50505060a096909652601580546001600160a01b039586166001600160a01b0319918216179091556016805494861694821694909417909355601780549285169284169290921790915560188054919093169116179055506200045892505050565b3390565b600a80546001600160a01b038381166001600160a01b0319831681179093556040519116919082907f8be0079c531659141344cd1fd0a4f28419497f9722a3daafe3b4186f6b6457e090600090a35050565b828054620001b3906200041b565b90600052602060002090601f016020900481019282620001d7576000855562000222565b82601f10620001f257805160ff191683800117855562000222565b8280016001018555821562000222579182015b828111156200022257825182559160200191906001019062000205565b506200023092915062000234565b5090565b5b8082111562000230576000815560010162000235565b634e487b7160e01b600052604160045260246000fd5b600082601f8301126200027357600080fd5b81516001600160401b03808211156200029057620002906200024b565b604051601f8301601f19908116603f01168101908282118183101715620002bb57620002bb6200024b565b81604052838152602092508683858801011115620002d857600080fd5b600091505b83821015620002fc5785820183015181830184015290820190620002dd565b838211156200030e5760008385830101525b9695505050505050565b80516001600160a01b03811681146200033057600080fd5b919050565b600080600080600080600080610100898b0312156200035357600080fd5b88516001600160401b03808211156200036b57600080fd5b620003798c838d0162000261565b995060208b01519150808211156200039057600080fd5b6200039e8c838d0162000261565b985060408b0151975060608b0151915080821115620003bc57600080fd5b50620003cb8b828c0162000261565b955050620003dc60808a0162000318565b9350620003ec60a08a0162000318565b9250620003fc60c08a0162000318565b91506200040c60e08a0162000318565b90509295985092959890939650565b600181811c908216806200043057607f821691505b602082108114156200045257634e487b7160e01b600052602260045260246000fd5b50919050565b60805160a05160c05160e051610100516132ef620004e360003960008181610693015261190b01526000818161058101528181610d8d015281816113eb01528181611b450152611baf0152600081816105ea015261166c0152600081816108de015281816114640152611865015260008181610932015281816114e70152611c3601526132ef6000f3fe60806040526004361061031e5760003560e01c80637e5c49dc116101ab578063b66a0e5d116100f7578063dc5cd7ae11610095578063e985e9c51161006f578063e985e9c514610974578063eb8d2444146109bd578063f2fde38b146109d7578063f759867a146109f757600080fd5b8063dc5cd7ae14610900578063de7fcb1d14610920578063e612c0ad1461095457600080fd5b8063c87b56dd116100d1578063c87b56dd1461086c578063cc47a40b1461088c578063d53f6977146108ac578063d5abeb01146108cc57600080fd5b8063b66a0e5d14610817578063b88d4fde1461082c578063bb0fd1471461084c57600080fd5b806391b7f5ed11610164578063a035b1fe1161013e578063a035b1fe146107b9578063a0712d68146107cf578063a22cb465146107e2578063a43be57b1461080257600080fd5b806391b7f5ed1461076457806395d89b41146107845780639be65a601461079957600080fd5b80637e5c49dc146106815780638462151c146106b5578063854ec1af146106e25780638c8d2ede146107105780638da5cb5b146107305780639147dd1b1461074e57600080fd5b806338b105681161026a57806355367ba9116102235780635a94133c116101fd5780635a94133c1461060c5780636352211e1461062c57806370a082311461064c578063715018a61461066c57600080fd5b806355367ba9146105a357806355f804b3146105b85780635868c32a146105d857600080fd5b806338b10568146104ca5780633ca54fd3146104ea5780633ccfd60b1461051a57806342842e0e1461052f5780634f6ccce71461054f57806351d670a31461056f57600080fd5b80630f7309e8116102d7578063229f3e29116102b1578063229f3e291461045f57806323b872dd146104755780632f745c591461049557806330f72cd4146104b557600080fd5b80630f7309e814610415578063109695231461042a57806318160ddd1461044a57600080fd5b806301ffc9a71461032a57806306fdde031461035f57806307fee2a614610381578063081812fc146103a5578063095ea7b3146103dd5780630ef94a50146103ff57600080fd5b3661032557005b600080fd5b34801561033657600080fd5b5061034a610345366004612b53565b610a0a565b60405190151581526020015b60405180910390f35b34801561036b57600080fd5b50610374610a35565b6040516103569190612bc8565b34801561038d57600080fd5b5061039760125481565b604051908152602001610356565b3480156103b157600080fd5b506103c56103c0366004612bdb565b610ac7565b6040516001600160a01b039091168152602001610356565b3480156103e957600080fd5b506103fd6103f8366004612c10565b610aee565b005b34801561040b57600080fd5b5061039760115481565b34801561042157600080fd5b50610374610c09565b34801561043657600080fd5b506103fd610445366004612cc6565b610c97565b34801561045657600080fd5b50600854610397565b34801561046b57600080fd5b5061039760135481565b34801561048157600080fd5b506103fd610490366004612d0f565b610cb6565b3480156104a157600080fd5b506103976104b0366004612c10565b610ce7565b3480156104c157600080fd5b5061034a610d7d565b3480156104d657600080fd5b506017546103c5906001600160a01b031681565b3480156104f657600080fd5b5061034a610505366004612d4b565b60146020526000908152604090205460ff1681565b34801561052657600080fd5b506103fd610dbc565b34801561053b57600080fd5b506103fd61054a366004612d0f565b610ebc565b34801561055b57600080fd5b5061039761056a366004612bdb565b610ed7565b34801561057b57600080fd5b506103977f000000000000000000000000000000000000000000000000000000000000000081565b3480156105af57600080fd5b506103fd610f6a565b3480156105c457600080fd5b506103fd6105d3366004612cc6565b610f7e565b3480156105e457600080fd5b506103977f000000000000000000000000000000000000000000000000000000000000000081565b34801561061857600080fd5b506103fd610627366004612bdb565b610f99565b34801561063857600080fd5b506103c5610647366004612bdb565b610fe6565b34801561065857600080fd5b50610397610667366004612d4b565b611046565b34801561067857600080fd5b506103fd6110cc565b34801561068d57600080fd5b506103977f000000000000000000000000000000000000000000000000000000000000000081565b3480156106c157600080fd5b506106d56106d0366004612d4b565b6110e0565b6040516103569190612da1565b3480156106ee57600080fd5b506107026106fd366004612db4565b611182565b604051610356929190612de7565b34801561071c57600080fd5b506015546103c5906001600160a01b031681565b34801561073c57600080fd5b50600a546001600160a01b03166103c5565b34801561075a57600080fd5b50610397600f5481565b34801561077057600080fd5b506103fd61077f366004612bdb565b611262565b34801561079057600080fd5b506103746112af565b3480156107a557600080fd5b506103fd6107b4366004612d4b565b6112be565b3480156107c557600080fd5b50610397600e5481565b6103fd6107dd366004612bdb565b611394565b3480156107ee57600080fd5b506103fd6107fd366004612e17565b6115a6565b34801561080e57600080fd5b506103fd6115b1565b34801561082357600080fd5b506103fd611651565b34801561083857600080fd5b506103fd610847366004612e4e565b6116a4565b34801561085857600080fd5b506103fd610867366004612c10565b6116dc565b34801561087857600080fd5b50610374610887366004612bdb565b61174e565b34801561089857600080fd5b506103fd6108a7366004612c10565b611811565b3480156108b857600080fd5b506018546103c5906001600160a01b031681565b3480156108d857600080fd5b506103977f000000000000000000000000000000000000000000000000000000000000000081565b34801561090c57600080fd5b506103fd61091b366004612eca565b6118e4565b34801561092c57600080fd5b506103977f000000000000000000000000000000000000000000000000000000000000000081565b34801561096057600080fd5b506016546103c5906001600160a01b031681565b34801561098057600080fd5b5061034a61098f366004612f3f565b6001600160a01b03918216600090815260056020908152604080832093909416825291909152205460ff1690565b3480156109c957600080fd5b5060105461034a9060ff1681565b3480156109e357600080fd5b506103fd6109f2366004612d4b565b6119e8565b6103fd610a05366004612bdb565b611a5e565b60006001600160e01b0319821663780e9d6360e01b1480610a2f5750610a2f82611cf2565b92915050565b606060008054610a4490612f72565b80601f0160208091040260200160405190810160405280929190818152602001828054610a7090612f72565b8015610abd5780601f10610a9257610100808354040283529160200191610abd565b820191906000526020600020905b815481529060010190602001808311610aa057829003601f168201915b5050505050905090565b6000610ad282611d42565b506000908152600460205260409020546001600160a01b031690565b6000610af982610fe6565b9050806001600160a01b0316836001600160a01b03161415610b6c5760405162461bcd60e51b815260206004820152602160248201527f4552433732313a20617070726f76616c20746f2063757272656e74206f776e656044820152603960f91b60648201526084015b60405180910390fd5b336001600160a01b0382161480610b885750610b88813361098f565b610bfa5760405162461bcd60e51b815260206004820152603e60248201527f4552433732313a20617070726f76652063616c6c6572206973206e6f7420746f60448201527f6b656e206f776e6572206e6f7220617070726f76656420666f7220616c6c00006064820152608401610b63565b610c048383611da1565b505050565b600d8054610c1690612f72565b80601f0160208091040260200160405190810160405280929190818152602001828054610c4290612f72565b8015610c8f5780601f10610c6457610100808354040283529160200191610c8f565b820191906000526020600020905b815481529060010190602001808311610c7257829003601f168201915b505050505081565b610c9f611e0f565b8051610cb290600d906020840190612aa4565b5050565b610cc03382611e69565b610cdc5760405162461bcd60e51b8152600401610b6390612fad565b610c04838383611ee8565b6000610cf283611046565b8210610d545760405162461bcd60e51b815260206004820152602b60248201527f455243373231456e756d657261626c653a206f776e657220696e646578206f7560448201526a74206f6620626f756e647360a81b6064820152608401610b63565b506001600160a01b03919091166000908152600660209081526040808320938352929052205490565b600060135442108015610db757507f0000000000000000000000000000000000000000000000000000000000000000610db560085490565b105b905090565b610dc4611e0f565b6000610dd1600447613027565b6015546040519192506001600160a01b03169082156108fc029083906000818181858888f19350505050158015610e0c573d6000803e3d6000fd5b506016546040516001600160a01b039091169082156108fc029083906000818181858888f19350505050158015610e47573d6000803e3d6000fd5b506017546040516001600160a01b039091169082156108fc029083906000818181858888f19350505050158015610e82573d6000803e3d6000fd5b506018546040516001600160a01b03909116904780156108fc02916000818181858888f19350505050158015610cb2573d6000803e3d6000fd5b610c04838383604051806020016040528060008152506116a4565b6000610ee260085490565b8210610f455760405162461bcd60e51b815260206004820152602c60248201527f455243373231456e756d657261626c653a20676c6f62616c20696e646578206f60448201526b7574206f6620626f756e647360a01b6064820152608401610b63565b60088281548110610f5857610f5861303b565b90600052602060002001549050919050565b610f72611e0f565b6010805460ff19169055565b610f86611e0f565b8051610cb290600b906020840190612aa4565b610fa1611e0f565b60008111610fe15760405162461bcd60e51b815260206004820152600d60248201526c496e76616c696420707269636560981b6044820152606401610b63565b600f55565b6000818152600260205260408120546001600160a01b031680610a2f5760405162461bcd60e51b8152602060048201526018602482015277115490cdcc8c4e881a5b9d985b1a59081d1bdad95b88125160421b6044820152606401610b63565b60006001600160a01b0382166110b05760405162461bcd60e51b815260206004820152602960248201527f4552433732313a2061646472657373207a65726f206973206e6f7420612076616044820152683634b21037bbb732b960b91b6064820152608401610b63565b506001600160a01b031660009081526003602052604090205490565b6110d4611e0f565b6110de600061208f565b565b606060006110ed83611046565b905060008167ffffffffffffffff81111561110a5761110a612c3a565b604051908082528060200260200182016040528015611133578160200160208202803683370190505b50905060005b8281101561117a5761114b8582610ce7565b82828151811061115d5761115d61303b565b60209081029190910101528061117281613051565b915050611139565b509392505050565b60606000828461119187611046565b61119b919061306c565b8111156111b957846111ac87611046565b6111b6919061306c565b90505b60008167ffffffffffffffff8111156111d4576111d4612c3a565b6040519080825280602002602001820160405280156111fd578160200160208202803683370190505b50905060005b8281101561124857611219886104b0838a613083565b82828151811061122b5761122b61303b565b60209081029190910101528061124081613051565b915050611203565b50806112548388613083565b935093505050935093915050565b61126a611e0f565b600081116112aa5760405162461bcd60e51b815260206004820152600d60248201526c496e76616c696420707269636560981b6044820152606401610b63565b600e55565b606060018054610a4490612f72565b6112c6611e0f565b6040516370a0823160e01b81523060048201526000906001600160a01b038316906370a0823190602401602060405180830381865afa15801561130d573d6000803e3d6000fd5b505050506040513d601f19601f82011682018060405250810190611331919061309b565b9050806113805760405162461bcd60e51b815260206004820152601b60248201527f43616e6e6f74207265636f766572207a65726f2062616c616e636500000000006044820152606401610b63565b610cb26001600160a01b03831633836120e1565b60105460ff166113dd5760405162461bcd60e51b815260206004820152601460248201527314d85b19481b9bdd081cdd185c9d1959081e595d60621b6044820152606401610b63565b6013544210158061141657507f000000000000000000000000000000000000000000000000000000000000000061141360085490565b10155b6114625760405162461bcd60e51b815260206004820152601760248201527f5761697420666f722070726573616c6520746f20656e640000000000000000006044820152606401610b63565b7f00000000000000000000000000000000000000000000000000000000000000008161148d60085490565b6114979190613083565b11156114da5760405162461bcd60e51b815260206004820152601260248201527145786365656473206d617820737570706c7960701b6044820152606401610b63565b60008111801561150a57507f00000000000000000000000000000000000000000000000000000000000000008111155b6115475760405162461bcd60e51b815260206004820152600e60248201526d125b9d985b1a5908185b5bdd5b9d60921b6044820152606401610b63565b80600e5461155591906130b4565b34146115995760405162461bcd60e51b815260206004820152601360248201527256616c75652073656e7420213d20707269636560681b6044820152606401610b63565b6115a33382612133565b50565b610cb233838361216e565b6115b9611e0f565b6000601254116116025760405162461bcd60e51b815260206004820152601460248201527314d85b19481b9bdd081cdd185c9d1959081e595d60621b6044820152606401610b63565b601354421061164b5760405162461bcd60e51b8152602060048201526015602482015274141c995cd85b1948185b1c9958591e48195b991959605a1b6044820152606401610b63565b42601355565b611659611e0f565b60125461169557426012819055611691907f000000000000000000000000000000000000000000000000000000000000000090613083565b6013555b6010805460ff19166001179055565b6116ae3383611e69565b6116ca5760405162461bcd60e51b8152600401610b6390612fad565b6116d68484848461223d565b50505050565b6116e4611e0f565b6040516323b872dd60e01b8152306004820152336024820152604481018290526001600160a01b038316906323b872dd90606401600060405180830381600087803b15801561173257600080fd5b505af1158015611746573d6000803e3d6000fd5b505050505050565b6000818152600260205260409020546060906001600160a01b03166117b55760405162461bcd60e51b815260206004820152601f60248201527f55524920717565727920666f72206e6f6e6578697374656e7420746f6b656e006044820152606401610b63565b6000600b80546117c490612f72565b9050116117e05760405180602001604052806000815250610a2f565b600b6117eb83612270565b6040516020016117fc9291906130ef565b60405160208183030381529060405292915050565b611819611e0f565b60105460ff16156118635760405162461bcd60e51b8152602060048201526014602482015273135a5b9d08185b1c9958591e481cdd185c9d195960621b6044820152606401610b63565b7f00000000000000000000000000000000000000000000000000000000000000008161188e60085490565b6118989190613083565b11156118da5760405162461bcd60e51b815260206004820152601160248201527045786365656473206d6178537570706c7960781b6044820152606401610b63565b610cb28282612133565b6118ec611e0f565b81819050601160008282546119019190613083565b90915550506011547f000000000000000000000000000000000000000000000000000000000000000010156119785760405162461bcd60e51b815260206004820152601960248201527f45786365656473206d61782070726573616c652073706f7473000000000000006044820152606401610b63565b60005b81811015610c045760016014600085858581811061199b5761199b61303b565b90506020020160208101906119b09190612d4b565b6001600160a01b031681526020810191909152604001600020805460ff19169115159190911790556119e181613051565b905061197b565b6119f0611e0f565b6001600160a01b038116611a555760405162461bcd60e51b815260206004820152602660248201527f4f776e61626c653a206e6577206f776e657220697320746865207a65726f206160448201526564647265737360d01b6064820152608401610b63565b6115a38161208f565b3360009081526014602052604090205460ff16611ab05760405162461bcd60e51b815260206004820152601060248201526f13db9b1e481dda1a5d195b1a5cdd195960821b6044820152606401610b63565b60105460ff16611b025760405162461bcd60e51b815260206004820152601760248201527f50726573616c65206e6f742073746172746564207965740000000000000000006044820152606401610b63565b6013544210611b435760405162461bcd60e51b815260206004820152600d60248201526c141c995cd85b1948195b991959609a1b6044820152606401610b63565b7f0000000000000000000000000000000000000000000000000000000000000000611b6d60085490565b10611bad5760405162461bcd60e51b815260206004820152601060248201526f141c995cd85b19481cdbdb19081bdd5d60821b6044820152606401610b63565b7f000000000000000000000000000000000000000000000000000000000000000081611bd860085490565b611be29190613083565b1115611c295760405162461bcd60e51b8152602060048201526016602482015275457863656564732070726573616c6520737570706c7960501b6044820152606401610b63565b600081118015611c5957507f00000000000000000000000000000000000000000000000000000000000000008111155b611c965760405162461bcd60e51b815260206004820152600e60248201526d125b9d985b1a5908185b5bdd5b9d60921b6044820152606401610b63565b80600f54611ca491906130b4565b34146115995760405162461bcd60e51b815260206004820152601b60248201527f56616c75652073656e7420213d2070726573616c6520707269636500000000006044820152606401610b63565b60006001600160e01b031982166380ac58cd60e01b1480611d2357506001600160e01b03198216635b5e139f60e01b145b80610a2f57506301ffc9a760e01b6001600160e01b0319831614610a2f565b6000818152600260205260409020546001600160a01b03166115a35760405162461bcd60e51b8152602060048201526018602482015277115490cdcc8c4e881a5b9d985b1a59081d1bdad95b88125160421b6044820152606401610b63565b600081815260046020526040902080546001600160a01b0319166001600160a01b0384169081179091558190611dd682610fe6565b6001600160a01b03167f8c5be1e5ebec7d5bd14f71427d1e84f3dd0314c0f7b2291e5b200ac8c7c3b92560405160405180910390a45050565b600a546001600160a01b031633146110de5760405162461bcd60e51b815260206004820181905260248201527f4f776e61626c653a2063616c6c6572206973206e6f7420746865206f776e65726044820152606401610b63565b600080611e7583610fe6565b9050806001600160a01b0316846001600160a01b03161480611ebc57506001600160a01b0380821660009081526005602090815260408083209388168352929052205460ff165b80611ee05750836001600160a01b0316611ed584610ac7565b6001600160a01b0316145b949350505050565b826001600160a01b0316611efb82610fe6565b6001600160a01b031614611f5f5760405162461bcd60e51b815260206004820152602560248201527f4552433732313a207472616e736665722066726f6d20696e636f72726563742060448201526437bbb732b960d91b6064820152608401610b63565b6001600160a01b038216611fc15760405162461bcd60e51b8152602060048201526024808201527f4552433732313a207472616e7366657220746f20746865207a65726f206164646044820152637265737360e01b6064820152608401610b63565b611fcc83838361236e565b611fd7600082611da1565b6001600160a01b038316600090815260036020526040812080546001929061200090849061306c565b90915550506001600160a01b038216600090815260036020526040812080546001929061202e908490613083565b909155505060008181526002602052604080822080546001600160a01b0319166001600160a01b0386811691821790925591518493918716917fddf252ad1be2c89b69c2b068fc378daa952ba7f163c4a11628f55a4df523b3ef91a4505050565b600a80546001600160a01b038381166001600160a01b0319831681179093556040519116919082907f8be0079c531659141344cd1fd0a4f28419497f9722a3daafe3b4186f6b6457e090600090a35050565b604080516001600160a01b038416602482015260448082018490528251808303909101815260649091019091526020810180516001600160e01b031663a9059cbb60e01b179052610c04908490612426565b60005b81811015610c045761214c600c80546001019055565b61215e83612159600c5490565b6124f8565b61216781613051565b9050612136565b816001600160a01b0316836001600160a01b031614156121d05760405162461bcd60e51b815260206004820152601960248201527f4552433732313a20617070726f766520746f2063616c6c6572000000000000006044820152606401610b63565b6001600160a01b03838116600081815260056020908152604080832094871680845294825291829020805460ff191686151590811790915591519182527f17307eab39ab6107e8899845ad3d59bd9653f200f220920489ca2b5937696c31910160405180910390a3505050565b612248848484611ee8565b61225484848484612512565b6116d65760405162461bcd60e51b8152600401610b63906131aa565b6060816122945750506040805180820190915260018152600360fc1b602082015290565b8160005b81156122be57806122a881613051565b91506122b79050600a83613027565b9150612298565b60008167ffffffffffffffff8111156122d9576122d9612c3a565b6040519080825280601f01601f191660200182016040528015612303576020820181803683370190505b5090505b8415611ee05761231860018361306c565b9150612325600a866131fc565b612330906030613083565b60f81b8183815181106123455761234561303b565b60200101906001600160f81b031916908160001a905350612367600a86613027565b9450612307565b6001600160a01b0383166123c9576123c481600880546000838152600960205260408120829055600182018355919091527ff3f7a9fe364faab93b216da50a3214154f22a0a2b415b23a84c8169e8b636ee30155565b6123ec565b816001600160a01b0316836001600160a01b0316146123ec576123ec8382612610565b6001600160a01b03821661240357610c04816126ad565b826001600160a01b0316826001600160a01b031614610c0457610c04828261275c565b600061247b826040518060400160405280602081526020017f5361666545524332303a206c6f772d6c6576656c2063616c6c206661696c6564815250856001600160a01b03166127a09092919063ffffffff16565b805190915015610c0457808060200190518101906124999190613210565b610c045760405162461bcd60e51b815260206004820152602a60248201527f5361666545524332303a204552433230206f7065726174696f6e20646964206e6044820152691bdd081cdd58d8d9595960b21b6064820152608401610b63565b610cb28282604051806020016040528060008152506127b9565b60006001600160a01b0384163b1561260557604051630a85bd0160e11b81526001600160a01b0385169063150b7a029061255690339089908890889060040161322d565b6020604051808303816000875af1925050508015612591575060408051601f3d908101601f1916820190925261258e9181019061326a565b60015b6125eb573d8080156125bf576040519150601f19603f3d011682016040523d82523d6000602084013e6125c4565b606091505b5080516125e35760405162461bcd60e51b8152600401610b63906131aa565b805181602001fd5b6001600160e01b031916630a85bd0160e11b149050611ee0565b506001949350505050565b6000600161261d84611046565b612627919061306c565b60008381526007602052604090205490915080821461267a576001600160a01b03841660009081526006602090815260408083208584528252808320548484528184208190558352600790915290208190555b5060009182526007602090815260408084208490556001600160a01b039094168352600681528383209183525290812055565b6008546000906126bf9060019061306c565b600083815260096020526040812054600880549394509092849081106126e7576126e761303b565b9060005260206000200154905080600883815481106127085761270861303b565b600091825260208083209091019290925582815260099091526040808220849055858252812055600880548061274057612740613287565b6001900381819060005260206000200160009055905550505050565b600061276783611046565b6001600160a01b039093166000908152600660209081526040808320868452825280832085905593825260079052919091209190915550565b60606127af84846000856127ec565b90505b9392505050565b6127c3838361291d565b6127d06000848484612512565b610c045760405162461bcd60e51b8152600401610b63906131aa565b60608247101561284d5760405162461bcd60e51b815260206004820152602660248201527f416464726573733a20696e73756666696369656e742062616c616e636520666f6044820152651c8818d85b1b60d21b6064820152608401610b63565b6001600160a01b0385163b6128a45760405162461bcd60e51b815260206004820152601d60248201527f416464726573733a2063616c6c20746f206e6f6e2d636f6e74726163740000006044820152606401610b63565b600080866001600160a01b031685876040516128c0919061329d565b60006040518083038185875af1925050503d80600081146128fd576040519150601f19603f3d011682016040523d82523d6000602084013e612902565b606091505b5091509150612912828286612a6b565b979650505050505050565b6001600160a01b0382166129735760405162461bcd60e51b815260206004820181905260248201527f4552433732313a206d696e7420746f20746865207a65726f20616464726573736044820152606401610b63565b6000818152600260205260409020546001600160a01b0316156129d85760405162461bcd60e51b815260206004820152601c60248201527f4552433732313a20746f6b656e20616c7265616479206d696e746564000000006044820152606401610b63565b6129e46000838361236e565b6001600160a01b0382166000908152600360205260408120805460019290612a0d908490613083565b909155505060008181526002602052604080822080546001600160a01b0319166001600160a01b03861690811790915590518392907fddf252ad1be2c89b69c2b068fc378daa952ba7f163c4a11628f55a4df523b3ef908290a45050565b60608315612a7a5750816127b2565b825115612a8a5782518084602001fd5b8160405162461bcd60e51b8152600401610b639190612bc8565b828054612ab090612f72565b90600052602060002090601f016020900481019282612ad25760008555612b18565b82601f10612aeb57805160ff1916838001178555612b18565b82800160010185558215612b18579182015b82811115612b18578251825591602001919060010190612afd565b50612b24929150612b28565b5090565b5b80821115612b245760008155600101612b29565b6001600160e01b0319811681146115a357600080fd5b600060208284031215612b6557600080fd5b81356127b281612b3d565b60005b83811015612b8b578181015183820152602001612b73565b838111156116d65750506000910152565b60008151808452612bb4816020860160208601612b70565b601f01601f19169290920160200192915050565b6020815260006127b26020830184612b9c565b600060208284031215612bed57600080fd5b5035919050565b80356001600160a01b0381168114612c0b57600080fd5b919050565b60008060408385031215612c2357600080fd5b612c2c83612bf4565b946020939093013593505050565b634e487b7160e01b600052604160045260246000fd5b600067ffffffffffffffff80841115612c6b57612c6b612c3a565b604051601f8501601f19908116603f01168101908282118183101715612c9357612c93612c3a565b81604052809350858152868686011115612cac57600080fd5b858560208301376000602087830101525050509392505050565b600060208284031215612cd857600080fd5b813567ffffffffffffffff811115612cef57600080fd5b8201601f81018413612d0057600080fd5b611ee084823560208401612c50565b600080600060608486031215612d2457600080fd5b612d2d84612bf4565b9250612d3b60208501612bf4565b9150604084013590509250925092565b600060208284031215612d5d57600080fd5b6127b282612bf4565b600081518084526020808501945080840160005b83811015612d9657815187529582019590820190600101612d7a565b509495945050505050565b6020815260006127b26020830184612d66565b600080600060608486031215612dc957600080fd5b612dd284612bf4565b95602085013595506040909401359392505050565b604081526000612dfa6040830185612d66565b90508260208301529392505050565b80151581146115a357600080fd5b60008060408385031215612e2a57600080fd5b612e3383612bf4565b91506020830135612e4381612e09565b809150509250929050565b60008060008060808587031215612e6457600080fd5b612e6d85612bf4565b9350612e7b60208601612bf4565b925060408501359150606085013567ffffffffffffffff811115612e9e57600080fd5b8501601f81018713612eaf57600080fd5b612ebe87823560208401612c50565b91505092959194509250565b60008060208385031215612edd57600080fd5b823567ffffffffffffffff80821115612ef557600080fd5b818501915085601f830112612f0957600080fd5b813581811115612f1857600080fd5b8660208260051b8501011115612f2d57600080fd5b60209290920196919550909350505050565b60008060408385031215612f5257600080fd5b612f5b83612bf4565b9150612f6960208401612bf4565b90509250929050565b600181811c90821680612f8657607f821691505b60208210811415612fa757634e487b7160e01b600052602260045260246000fd5b50919050565b6020808252602e908201527f4552433732313a2063616c6c6572206973206e6f7420746f6b656e206f776e6560408201526d1c881b9bdc88185c1c1c9bdd995960921b606082015260800190565b634e487b7160e01b600052601260045260246000fd5b634e487b7160e01b600052601160045260246000fd5b60008261303657613036612ffb565b500490565b634e487b7160e01b600052603260045260246000fd5b600060001982141561306557613065613011565b5060010190565b60008282101561307e5761307e613011565b500390565b6000821982111561309657613096613011565b500190565b6000602082840312156130ad57600080fd5b5051919050565b60008160001904831182151516156130ce576130ce613011565b500290565b600081516130e5818560208601612b70565b9290920192915050565b600080845481600182811c91508083168061310b57607f831692505b602080841082141561312b57634e487b7160e01b86526022600452602486fd5b81801561313f57600181146131505761317d565b60ff1986168952848901965061317d565b60008b81526020902060005b868110156131755781548b82015290850190830161315c565b505084890196505b5050505050506131a161319082866130d3565b64173539b7b760d91b815260050190565b95945050505050565b60208082526032908201527f4552433732313a207472616e7366657220746f206e6f6e20455243373231526560408201527131b2b4bb32b91034b6b83632b6b2b73a32b960711b606082015260800190565b60008261320b5761320b612ffb565b500690565b60006020828403121561322257600080fd5b81516127b281612e09565b6001600160a01b038581168252841660208201526040810183905260806060820181905260009061326090830184612b9c565b9695505050505050565b60006020828403121561327c57600080fd5b81516127b281612b3d565b634e487b7160e01b600052603160045260246000fd5b600082516132af818460208701612b70565b919091019291505056fea2646970667358221220978dfefa025862c9e3a324a0a5c5bb119aa59b0b327611c2ca2024658b8e694f64736f6c634300080b0033",
  "linkReferences": {},
  "deployedLinkReferences": {}
}