{
  "_format": "hh-sol-artifact-1",
  "contractName": "RecoverTokens",
  "sourceName": "contracts/utils/RecoverTokens.sol",
  "abi": [
    {
      "anonymous": false,
      "inputs": [
        {
          "indexed": true,
          "internalType": "address",
          "name": "token",
          "type": "address"
        },
        {
          "indexed": true,
          "internalType": "uint256[]",
          "name": "tokenId",
          "type": "uint256[]"
        }
      ],
      "name": "NFTRecovered",
      "type": "event"
    },
    {
      "anonymous": false,
      "inputs": [
        {
          "indexed": true,
          "internalType": "address",
          "name": "previousOwner",
          "type": "address"
        },
        {
          "indexed": true,
          "internalType": "address",
          "name": "newOwner",
          "type": "address"
        }
      ],
      "name": "OwnershipTransferred",
      "type": "event"
    },
    {
      "anonymous": false,
      "inputs": [
        {
          "indexed": true,
          "internalType": "address",
          "name": "token",
          "type": "address"
        },
        {
          "indexed": false,
          "internalType": "uint256",
          "name": "amount",
          "type": "uint256"
        }
      ],
      "name": "TokenRecoverd",
      "type": "event"
    },
    {
      "inputs": [],
      "name": "owner",
      "outputs": [
        {
          "internalType": "address",
          "name": "",
          "type": "address"
        }
      ],
      "stateMutability": "view",
      "type": "function"
    },
    {
      "inputs": [
        {
          "internalType": "address",
          "name": "_token",
          "type": "address"
        },
        {
          "internalType": "uint256[]",
          "name": "_tokenId",
          "type": "uint256[]"
        }
      ],
      "name": "ownerRecoverNFT",
      "outputs": [],
      "stateMutability": "nonpayable",
      "type": "function"
    },
    {
      "inputs": [
        {
          "internalType": "address",
          "name": "_token",
          "type": "address"
        }
      ],
      "name": "ownerRecoverToken",
      "outputs": [],
      "stateMutability": "nonpayable",
      "type": "function"
    },
    {
      "inputs": [],
      "name": "renounceOwnership",
      "outputs": [],
      "stateMutability": "nonpayable",
      "type": "function"
    },
    {
      "inputs": [
        {
          "internalType": "address",
          "name": "newOwner",
          "type": "address"
        }
      ],
      "name": "transferOwnership",
      "outputs": [],
      "stateMutability": "nonpayable",
      "type": "function"
    }
  ],
  "bytecode": "0x608060405234801561001057600080fd5b5061001a3361001f565b61006f565b600080546001600160a01b038381166001600160a01b0319831681178455604051919092169283917f8be0079c531659141344cd1fd0a4f28419497f9722a3daafe3b4186f6b6457e09190a35050565b6108e48061007e6000396000f3fe608060405234801561001057600080fd5b50600436106100575760003560e01c8063715018a61461005c5780638da5cb5b14610066578063da3f0ad814610085578063e2642a9614610098578063f2fde38b146100ab575b600080fd5b6100646100be565b005b600054604080516001600160a01b039092168252519081900360200190f35b6100646100933660046106e8565b6100d2565b6100646100a6366004610703565b6101f4565b6100646100b93660046106e8565b6102fd565b6100c6610376565b6100d060006103d0565b565b6100da610376565b6040516370a0823160e01b81523060048201526000906001600160a01b038316906370a0823190602401602060405180830381865afa158015610121573d6000803e3d6000fd5b505050506040513d601f19601f820116820180604052508101906101459190610789565b9050806101995760405162461bcd60e51b815260206004820152601f60248201527f4f7065726174696f6e733a204e6f20746f6b656e20746f207265636f7665720060448201526064015b60405180910390fd5b6101ad6001600160a01b0383163383610420565b816001600160a01b03167f33446578f932f930c093f8ca9b7d449e2af5ac4b70bf78c6927a88da0d338336826040516101e891815260200190565b60405180910390a25050565b6101fc610376565b8060005b818110156102ab57846001600160a01b03166342842e0e303387878681811061022b5761022b6107a2565b6040516001600160e01b031960e088901b1681526001600160a01b03958616600482015294909316602485015250602090910201356044820152606401600060405180830381600087803b15801561028257600080fd5b505af1158015610296573d6000803e3d6000fd5b50505050806102a4906107b8565b9050610200565b5082826040516102bc9291906107e1565b604051908190038120906001600160a01b038616907f3551588aebc798892f9d5f9c8cc83700e1005be61735e02d95764f0f09b089d990600090a350505050565b610305610376565b6001600160a01b03811661036a5760405162461bcd60e51b815260206004820152602660248201527f4f776e61626c653a206e6577206f776e657220697320746865207a65726f206160448201526564647265737360d01b6064820152608401610190565b610373816103d0565b50565b6000546001600160a01b031633146100d05760405162461bcd60e51b815260206004820181905260248201527f4f776e61626c653a2063616c6c6572206973206e6f7420746865206f776e65726044820152606401610190565b600080546001600160a01b038381166001600160a01b0319831681178455604051919092169283917f8be0079c531659141344cd1fd0a4f28419497f9722a3daafe3b4186f6b6457e09190a35050565b604080516001600160a01b038416602482015260448082018490528251808303909101815260649091019091526020810180516001600160e01b031663a9059cbb60e01b179052610472908490610477565b505050565b60006104cc826040518060400160405280602081526020017f5361666545524332303a206c6f772d6c6576656c2063616c6c206661696c6564815250856001600160a01b03166105499092919063ffffffff16565b80519091501561047257808060200190518101906104ea919061080d565b6104725760405162461bcd60e51b815260206004820152602a60248201527f5361666545524332303a204552433230206f7065726174696f6e20646964206e6044820152691bdd081cdd58d8d9595960b21b6064820152608401610190565b60606105588484600085610562565b90505b9392505050565b6060824710156105c35760405162461bcd60e51b815260206004820152602660248201527f416464726573733a20696e73756666696369656e742062616c616e636520666f6044820152651c8818d85b1b60d21b6064820152608401610190565b6001600160a01b0385163b61061a5760405162461bcd60e51b815260206004820152601d60248201527f416464726573733a2063616c6c20746f206e6f6e2d636f6e74726163740000006044820152606401610190565b600080866001600160a01b03168587604051610636919061085f565b60006040518083038185875af1925050503d8060008114610673576040519150601f19603f3d011682016040523d82523d6000602084013e610678565b606091505b5091509150610688828286610693565b979650505050505050565b606083156106a257508161055b565b8251156106b25782518084602001fd5b8160405162461bcd60e51b8152600401610190919061087b565b80356001600160a01b03811681146106e357600080fd5b919050565b6000602082840312156106fa57600080fd5b61055b826106cc565b60008060006040848603121561071857600080fd5b610721846106cc565b9250602084013567ffffffffffffffff8082111561073e57600080fd5b818601915086601f83011261075257600080fd5b81358181111561076157600080fd5b8760208260051b850101111561077657600080fd5b6020830194508093505050509250925092565b60006020828403121561079b57600080fd5b5051919050565b634e487b7160e01b600052603260045260246000fd5b60006000198214156107da57634e487b7160e01b600052601160045260246000fd5b5060010190565b60006001600160fb1b038311156107f757600080fd5b8260051b80858437600092019182525092915050565b60006020828403121561081f57600080fd5b8151801515811461055b57600080fd5b60005b8381101561084a578181015183820152602001610832565b83811115610859576000848401525b50505050565b6000825161087181846020870161082f565b9190910192915050565b602081526000825180602084015261089a81604085016020870161082f565b601f01601f1916919091016040019291505056fea26469706673582212204093f47036b153dd708a8b3ccaa7db4e6e9e01cc81c26941c3250a14733c4f2d64736f6c634300080b0033",
  "linkReferences": {},
  "deployedLinkReferences": {}
}