{"contracts/PsyMiner.sol":{"PsyMiner":{"abi":[{"inputs":[{"internalType":"contract PsyLockSystem","name":"_lockContract","type":"address"}],"stateMutability":"nonpayable","type":"constructor"},{"anonymous":false,"inputs":[{"indexed":true,"internalType":"address","name":"token","type":"address"},{"indexed":true,"internalType":"uint256[]","name":"tokenId","type":"uint256[]"}],"name":"NFTRecovered","type":"event"},{"anonymous":false,"inputs":[{"indexed":true,"internalType":"address","name":"previousOwner","type":"address"},{"indexed":true,"internalType":"address","name":"newOwner","type":"address"}],"name":"OwnershipTransferred","type":"event"},{"anonymous":false,"inputs":[{"indexed":false,"internalType":"address","name":"_old","type":"address"},{"indexed":false,"internalType":"address","name":"_new","type":"address"}],"name":"RecAddressUpdated","type":"event"},{"anonymous":false,"inputs":[{"indexed":true,"internalType":"address","name":"token","type":"address"},{"indexed":false,"internalType":"uint256","name":"amount","type":"uint256"}],"name":"TokenRecoverd","type":"event"},{"inputs":[{"internalType":"uint256","name":"","type":"uint256"}],"name":"MARKET_SEED","outputs":[{"internalType":"uint256","name":"","type":"uint256"}],"stateMutability":"view","type":"function"},{"inputs":[],"name":"PsyLockContract","outputs":[{"internalType":"contract PsyLockSystem","name":"","type":"address"}],"stateMutability":"view","type":"function"},{"inputs":[{"internalType":"uint256","name":"","type":"uint256"}],"name":"RATE_LIMITER","outputs":[{"internalType":"uint256","name":"","type":"uint256"}],"stateMutability":"view","type":"function"},{"inputs":[{"internalType":"address","name":"ref","type":"address"}],"name":"buyCows","outputs":[],"stateMutability":"payable","type":"function"},{"inputs":[{"internalType":"uint256","name":"eth","type":"uint256"},{"internalType":"uint256","name":"contractBalance","type":"uint256"},{"internalType":"uint256","name":"i","type":"uint256"}],"name":"calculateCowBuy","outputs":[{"internalType":"uint256","name":"","type":"uint256"}],"stateMutability":"view","type":"function"},{"inputs":[{"internalType":"uint256","name":"eth","type":"uint256"},{"internalType":"uint256","name":"i","type":"uint256"}],"name":"calculateCowBuySimple","outputs":[{"internalType":"uint256","name":"","type":"uint256"}],"stateMutability":"view","type":"function"},{"inputs":[{"internalType":"uint256","name":"clams","type":"uint256"},{"internalType":"uint256","name":"i","type":"uint256"}],"name":"calculateCowSell","outputs":[{"internalType":"uint256","name":"","type":"uint256"}],"stateMutability":"view","type":"function"},{"inputs":[{"internalType":"address","name":"_addr","type":"address"}],"name":"calculateRate","outputs":[{"internalType":"uint256","name":"marketEggs","type":"uint256"},{"internalType":"uint256","name":"marketSeed","type":"uint256"}],"stateMutability":"view","type":"function"},{"inputs":[{"internalType":"address","name":"_addr","type":"address"}],"name":"calculateRateIndex","outputs":[{"internalType":"uint256","name":"marketEggs","type":"uint256"},{"internalType":"uint256","name":"marketSeed","type":"uint256"}],"stateMutability":"view","type":"function"},{"inputs":[{"internalType":"address","name":"ref","type":"address"}],"name":"compoundCows","outputs":[],"stateMutability":"nonpayable","type":"function"},{"inputs":[{"internalType":"address","name":"_adr","type":"address"}],"name":"cowsRewards","outputs":[{"internalType":"uint256","name":"","type":"uint256"}],"stateMutability":"view","type":"function"},{"inputs":[],"name":"getBalance","outputs":[{"internalType":"uint256","name":"","type":"uint256"}],"stateMutability":"view","type":"function"},{"inputs":[{"internalType":"address","name":"adr","type":"address"}],"name":"getCowsSinceLastCompound","outputs":[{"internalType":"uint256","name":"","type":"uint256"}],"stateMutability":"view","type":"function"},{"inputs":[{"internalType":"address","name":"adr","type":"address"}],"name":"getMyCows","outputs":[{"internalType":"uint256","name":"","type":"uint256"}],"stateMutability":"view","type":"function"},{"inputs":[{"internalType":"address","name":"adr","type":"address"}],"name":"getMyMiners","outputs":[{"internalType":"uint256","name":"","type":"uint256"}],"stateMutability":"view","type":"function"},{"inputs":[],"name":"owner","outputs":[{"internalType":"address","name":"","type":"address"}],"stateMutability":"view","type":"function"},{"inputs":[{"internalType":"address","name":"_token","type":"address"},{"internalType":"uint256[]","name":"_tokenId","type":"uint256[]"}],"name":"ownerRecoverNFT","outputs":[],"stateMutability":"nonpayable","type":"function"},{"inputs":[{"internalType":"address","name":"_token","type":"address"}],"name":"ownerRecoverToken","outputs":[],"stateMutability":"nonpayable","type":"function"},{"inputs":[],"name":"renounceOwnership","outputs":[],"stateMutability":"nonpayable","type":"function"},{"inputs":[],"name":"seedMarket","outputs":[],"stateMutability":"payable","type":"function"},{"inputs":[],"name":"sellCows","outputs":[],"stateMutability":"nonpayable","type":"function"},{"inputs":[{"internalType":"address","name":"newOwner","type":"address"}],"name":"transferOwnership","outputs":[],"stateMutability":"nonpayable","type":"function"},{"inputs":[{"internalType":"address","name":"newAddress","type":"address"}],"name":"updateRecAddress","outputs":[],"stateMutability":"nonpayable","type":"function"},{"inputs":[],"name":"users","outputs":[{"internalType":"uint256","name":"","type":"uint256"}],"stateMutability":"view","type":"function"}],"evm":{"bytecode":{"linkReferences":{},"object":"6101406040526241eb006080908152622bf20060a0526215f90060c05262107ac060e052620d2f0061010052620bfe506101205262000043906002906006620001d8565b506127106008556113886009556040805160c08101825264649534e000815264430e234000602082015264218711a000918101919091526419254d3800606082015264141dd76000608082015264124cecd20060a0820152620000ab90600a90600662000222565b506040805160a0810182526113888152617530602082015261ea6091810191909152620124f8606082015262015f906080820152620000ef9060109060056200025c565b5060056015556016805460ff191690553480156200010c57600080fd5b50604051620019db380380620019db8339810160408190526200012f91620002aa565b6200013a3362000188565b60168054610100600160a81b03191674b5afa0238113a3c67787ac184bf4865a80e11c0300179055600180546001600160a01b0319166001600160a01b0392909216919091179055620002dc565b600080546001600160a01b038381166001600160a01b0319831681178455604051919092169283917f8be0079c531659141344cd1fd0a4f28419497f9722a3daafe3b4186f6b6457e09190a35050565b826006810192821562000210579160200282015b8281111562000210578251829062ffffff16905591602001919060010190620001ec565b506200021e92915062000293565b5090565b826006810192821562000210579160200282015b8281111562000210578251829064ffffffffff1690559160200191906001019062000236565b826005810192821562000210579160200282018281111562000210578251829062ffffff16905591602001919060010190620001ec565b5b808211156200021e576000815560010162000294565b600060208284031215620002bd57600080fd5b81516001600160a01b0381168114620002d557600080fd5b9392505050565b6116ef80620002ec6000396000f3fe60806040526004361061014b5760003560e01c8063b2bc496e116100b6578063e7b9f6761161006f578063e7b9f676146103b2578063eddbc690146103d2578063f2020275146103f2578063f2fde38b14610408578063f509ceb514610428578063f82af0291461043b57600080fd5b8063b2bc496e146102f2578063cf93302b14610312578063da3f0ad814610332578063de7a203114610352578063e2642a9614610372578063e3846ac01461039257600080fd5b8063526fe5f211610108578063526fe5f21461022b578063715018a61461024b578063869a630614610260578063894c2cca146102805780638da5cb5b146102a057806395e2363b146102d257600080fd5b80630839efb91461015057806312065fe0146101835780631a196a78146101965780631b51847c146101b65780633c5f07cb146101eb5780634b634b06146101f5575b600080fd5b34801561015c57600080fd5b5061017061016b366004611324565b610450565b6040519081526020015b60405180910390f35b34801561018f57600080fd5b5047610170565b3480156101a257600080fd5b506101706101b1366004611359565b610467565b3480156101c257600080fd5b506101d66101d1366004611359565b6104df565b6040805192835260208301919091520161017a565b6101f36105ef565b005b34801561020157600080fd5b50610170610210366004611359565b6001600160a01b031660009081526017602052604090205490565b34801561023757600080fd5b50610170610246366004611359565b610606565b34801561025757600080fd5b506101f3610637565b34801561026c57600080fd5b5061017061027b366004611374565b61064b565b34801561028c57600080fd5b5061017061029b366004611324565b61065f565b3480156102ac57600080fd5b506000546001600160a01b03165b6040516001600160a01b03909116815260200161017a565b3480156102de57600080fd5b506101d66102ed366004611359565b61066f565b3480156102fe57600080fd5b506101f361030d366004611359565b61076f565b34801561031e57600080fd5b5061017061032d366004611374565b61090c565b34801561033e57600080fd5b506101f361034d366004611359565b610919565b34801561035e57600080fd5b5061017061036d366004611396565b610a3b565b34801561037e57600080fd5b506101f361038d3660046113c2565b610a48565b34801561039e57600080fd5b506001546102ba906001600160a01b031681565b3480156103be57600080fd5b506101706103cd366004611359565b610b51565b3480156103de57600080fd5b506101f36103ed366004611359565b610b7d565b3480156103fe57600080fd5b50610170601c5481565b34801561041457600080fd5b506101f3610423366004611359565b610c41565b6101f3610436366004611359565b610cba565b34801561044757600080fd5b506101f3610e85565b6010816005811061046057600080fd5b0154905081565b600080610473336104df565b50905060006104b0826104ab4260196000896001600160a01b03166001600160a01b0316815260200190815260200160002054610f9f565b610fab565b6001600160a01b0385166000908152601760205260409020549091506104d7908290610fc1565b949350505050565b60015460405163212743f160e11b81526001600160a01b038381166004830152600092839283929091169063424e87e290602401602060405180830381865afa158015610530573d6000803e3d6000fd5b505050506040513d601f19601f820116820180604052508101906105549190611448565b601054909150811015610574576002549250600a60005b015491506105e9565b60035481101561058c576003549250600a600161056b565b6012548110156105a4576004549250600a600261056b565b6013548110156105bc576005549250600a600361056b565b6014548110156105d4576006549250600a600461056b565b60145481106105e957600754600f5490935091505b50915091565b6105f7610fcd565b6016805460ff19166001179055565b600080610612336104df565b915050600061062084610b51565b9050600061062e828461090c565b95945050505050565b61063f610fcd565b6106496000611027565b565b6000610658834784610a3b565b9392505050565b600a816006811061046057600080fd5b60015460405163212743f160e11b81526001600160a01b038381166004830152600092839283929091169063424e87e290602401602060405180830381865afa1580156106c0573d6000803e3d6000fd5b505050506040513d601f19601f820116820180604052508101906106e49190611448565b6010549091508110156106fe5760009250600091506105e9565b6003548110156107155760019250600191506105e9565b60125481101561072c5760029250600291506105e9565b6013548110156107435760039250600391506105e9565b60145481101561075a5760049250600491506105e9565b60145481106105e95750600593849350915050565b60165460ff1661077e57600080fd5b6000610789336104df565b50905060006107973361066f565b5090506001600160a01b0383163314156107b057600092505b336000908152601a60205260409020546001600160a01b03161580156107ed5750336000818152601a60205260409020546001600160a01b031614155b1561081b57336000908152601a6020526040902080546001600160a01b0319166001600160a01b0385161790555b600061082633610b51565b905060006108348285611077565b336000908152601760205260409020549091506108519082611083565b33600090815260176020908152604080832093909355601880825283832083905560198252838320429055601a8252838320546001600160a01b03168352905220546108a7906108a2846008611077565b611083565b336000908152601a60209081526040808320546001600160a01b0316835260189091529020556108f0600a84600681106108e3576108e3611461565b01546108a2846005611077565b600a846006811061090357610903611461565b01555050505050565b600061065883834761108f565b610921610fcd565b6040516370a0823160e01b81523060048201526000906001600160a01b038316906370a0823190602401602060405180830381865afa158015610968573d6000803e3d6000fd5b505050506040513d601f19601f8201168201806040525081019061098c9190611448565b9050806109e05760405162461bcd60e51b815260206004820152601f60248201527f4f7065726174696f6e733a204e6f20746f6b656e20746f207265636f7665720060448201526064015b60405180910390fd5b6109f46001600160a01b03831633836110cf565b816001600160a01b03167f33446578f932f930c093f8ca9b7d449e2af5ac4b70bf78c6927a88da0d33833682604051610a2f91815260200190565b60405180910390a25050565b60006104d784848461108f565b610a50610fcd565b8060005b81811015610aff57846001600160a01b03166342842e0e3033878786818110610a7f57610a7f611461565b6040516001600160e01b031960e088901b1681526001600160a01b03958616600482015294909316602485015250602090910201356044820152606401600060405180830381600087803b158015610ad657600080fd5b505af1158015610aea573d6000803e3d6000fd5b5050505080610af89061148d565b9050610a54565b508282604051610b109291906114a8565b604051908190038120906001600160a01b038616907f3551588aebc798892f9d5f9c8cc83700e1005be61735e02d95764f0f09b089d990600090a350505050565b6001600160a01b038116600090815260186020526040812054610b77906108a284610467565b92915050565b610b85610fcd565b6001600160a01b038116610bcd5760405162461bcd60e51b815260206004820152600f60248201526e43616e206e6f74206265207a65726f60881b60448201526064016109d7565b601654604080516001600160a01b036101009093048316815291831660208301527f1b199f677b3b3147a12cf531865528339dc544b720485dbad1d8805b3f37a49c910160405180910390a1601680546001600160a01b0390921661010002610100600160a81b0319909216919091179055565b610c49610fcd565b6001600160a01b038116610cae5760405162461bcd60e51b815260206004820152602660248201527f4f776e61626c653a206e6577206f776e657220697320746865207a65726f206160448201526564647265737360d01b60648201526084016109d7565b610cb781611027565b50565b6001546040516371d4ed8d60e11b81523360048201526000916001600160a01b03169063e3a9db1a90602401600060405180830381865afa158015610d03573d6000803e3d6000fd5b505050506040513d6000823e601f3d908101601f19168201604052610d2b91908101906114ea565b90506000815111610d6f5760405162461bcd60e51b815260206004820152600e60248201526d139bc81391951cc814dd185ad95960921b60448201526064016109d7565b60165460ff16610d7e57600080fd5b6000610d89336104df565b9150506000610d984734610f9f565b90506000610da7348385610a3b565b9050610dbb81610db683611126565b610f9f565b90506000610dc834611126565b60165460405191925061010090046001600160a01b0316906108fc8315029083906000818181858888f19350505050158015610e08573d6000803e3d6000fd5b5033600090815260186020526040902054610e239083611083565b33600090815260186020908152604080832093909355601b9052205460ff16610e7457336000908152601b60205260408120805460ff19166001179055601c805491610e6e8361148d565b91905055505b610e7d8661076f565b505050505050565b60165460ff16610e9457600080fd5b6000610e9f336104df565b9150506000610ead3361066f565b5090506000610ebb33610b51565b90506000610ec9828561090c565b90506000610ed682611126565b336000908152601860209081526040808320839055601990915290204290559050610f15600a8560068110610f0d57610f0d611461565b015484611083565b600a8560068110610f2857610f28611461565b01556016546040516101009091046001600160a01b0316906108fc8315029083906000818181858888f19350505050158015610f68573d6000803e3d6000fd5b50336108fc610f778484610f9f565b6040518115909202916000818181858888f19350505050158015610e7d573d6000803e3d6000fd5b600061065882846115a8565b6000818310610fba5781610658565b5090919050565b600061065882846115bf565b6000546001600160a01b031633146106495760405162461bcd60e51b815260206004820181905260248201527f4f776e61626c653a2063616c6c6572206973206e6f7420746865206f776e657260448201526064016109d7565b600080546001600160a01b038381166001600160a01b0319831681178455604051919092169283917f8be0079c531659141344cd1fd0a4f28419497f9722a3daafe3b4186f6b6457e09190a35050565b600061065882846115de565b60006106588284611600565b60006104d76110a060085484610fc1565b6110ca6009546108a26110c46110b86008548a610fc1565b6108a26009548c610fc1565b89611077565b611077565b604080516001600160a01b038416602482015260448082018490528251808303909101815260649091019091526020810180516001600160e01b031663a9059cbb60e01b17905261112190849061113e565b505050565b6000610b7761113783601554610fc1565b6064611077565b6000611193826040518060400160405280602081526020017f5361666545524332303a206c6f772d6c6576656c2063616c6c206661696c6564815250856001600160a01b03166112109092919063ffffffff16565b80519091501561112157808060200190518101906111b19190611618565b6111215760405162461bcd60e51b815260206004820152602a60248201527f5361666545524332303a204552433230206f7065726174696f6e20646964206e6044820152691bdd081cdd58d8d9595960b21b60648201526084016109d7565b60606104d78484600085856001600160a01b0385163b6112725760405162461bcd60e51b815260206004820152601d60248201527f416464726573733a2063616c6c20746f206e6f6e2d636f6e747261637400000060448201526064016109d7565b600080866001600160a01b0316858760405161128e919061166a565b60006040518083038185875af1925050503d80600081146112cb576040519150601f19603f3d011682016040523d82523d6000602084013e6112d0565b606091505b50915091506112e08282866112eb565b979650505050505050565b606083156112fa575081610658565b82511561130a5782518084602001fd5b8160405162461bcd60e51b81526004016109d79190611686565b60006020828403121561133657600080fd5b5035919050565b80356001600160a01b038116811461135457600080fd5b919050565b60006020828403121561136b57600080fd5b6106588261133d565b6000806040838503121561138757600080fd5b50508035926020909101359150565b6000806000606084860312156113ab57600080fd5b505081359360208301359350604090920135919050565b6000806000604084860312156113d757600080fd5b6113e08461133d565b9250602084013567ffffffffffffffff808211156113fd57600080fd5b818601915086601f83011261141157600080fd5b81358181111561142057600080fd5b8760208260051b850101111561143557600080fd5b6020830194508093505050509250925092565b60006020828403121561145a57600080fd5b5051919050565b634e487b7160e01b600052603260045260246000fd5b634e487b7160e01b600052601160045260246000fd5b60006000198214156114a1576114a1611477565b5060010190565b60006001600160fb1b038311156114be57600080fd5b8260051b80858437600092019182525092915050565b634e487b7160e01b600052604160045260246000fd5b600060208083850312156114fd57600080fd5b825167ffffffffffffffff8082111561151557600080fd5b818501915085601f83011261152957600080fd5b81518181111561153b5761153b6114d4565b8060051b604051601f19603f83011681018181108582111715611560576115606114d4565b60405291825284820192508381018501918883111561157e57600080fd5b938501935b8285101561159c57845184529385019392850192611583565b98975050505050505050565b6000828210156115ba576115ba611477565b500390565b60008160001904831182151516156115d9576115d9611477565b500290565b6000826115fb57634e487b7160e01b600052601260045260246000fd5b500490565b6000821982111561161357611613611477565b500190565b60006020828403121561162a57600080fd5b8151801515811461065857600080fd5b60005b8381101561165557818101518382015260200161163d565b83811115611664576000848401525b50505050565b6000825161167c81846020870161163a565b9190910192915050565b60208152600082518060208401526116a581604085016020870161163a565b601f01601f1916919091016040019291505056fea2646970667358221220285211642adce1a38f45536cf47d7a6bcc5b42255d1ced5d44ee94583fd4a0c064736f6c634300080b0033","opcodes":"PUSH2 0x140 PUSH1 0x40 MSTORE PUSH3 0x41EB00 PUSH1 0x80 SWAP1 DUP2 MSTORE PUSH3 0x2BF200 PUSH1 0xA0 MSTORE PUSH3 0x15F900 PUSH1 0xC0 MSTORE PUSH3 0x107AC0 PUSH1 0xE0 MSTORE PUSH3 0xD2F00 PUSH2 0x100 MSTORE PUSH3 0xBFE50 PUSH2 0x120 MSTORE PUSH3 0x43 SWAP1 PUSH1 0x2 SWAP1 PUSH1 0x6 PUSH3 0x1D8 JUMP JUMPDEST POP PUSH2 0x2710 PUSH1 0x8 SSTORE PUSH2 0x1388 PUSH1 0x9 SSTORE PUSH1 0x40 DUP1 MLOAD PUSH1 0xC0 DUP2 ADD DUP3 MSTORE PUSH5 0x649534E000 DUP2 MSTORE PUSH5 0x430E234000 PUSH1 0x20 DUP3 ADD MSTORE PUSH5 0x218711A000 SWAP2 DUP2 ADD SWAP2 SWAP1 SWAP2 MSTORE PUSH5 0x19254D3800 PUSH1 0x60 DUP3 ADD MSTORE PUSH5 0x141DD76000 PUSH1 0x80 DUP3 ADD MSTORE PUSH5 0x124CECD200 PUSH1 0xA0 DUP3 ADD MSTORE PUSH3 0xAB SWAP1 PUSH1 0xA SWAP1 PUSH1 0x6 PUSH3 0x222 JUMP JUMPDEST POP PUSH1 0x40 DUP1 MLOAD PUSH1 0xA0 DUP2 ADD DUP3 MSTORE PUSH2 0x1388 DUP2 MSTORE PUSH2 0x7530 PUSH1 0x20 DUP3 ADD MSTORE PUSH2 0xEA60 SWAP2 DUP2 ADD SWAP2 SWAP1 SWAP2 MSTORE PUSH3 0x124F8 PUSH1 0x60 DUP3 ADD MSTORE PUSH3 0x15F90 PUSH1 0x80 DUP3 ADD MSTORE PUSH3 0xEF SWAP1 PUSH1 0x10 SWAP1 PUSH1 0x5 PUSH3 0x25C JUMP JUMPDEST POP PUSH1 0x5 PUSH1 0x15 SSTORE PUSH1 0x16 DUP1 SLOAD PUSH1 0xFF NOT AND SWAP1 SSTORE CALLVALUE DUP1 ISZERO PUSH3 0x10C JUMPI PUSH1 0x0 DUP1 REVERT JUMPDEST POP PUSH1 0x40 MLOAD PUSH3 0x19DB CODESIZE SUB DUP1 PUSH3 0x19DB DUP4 CODECOPY DUP2 ADD PUSH1 0x40 DUP2 SWAP1 MSTORE PUSH3 0x12F SWAP2 PUSH3 0x2AA JUMP JUMPDEST PUSH3 0x13A CALLER PUSH3 0x188 JUMP JUMPDEST PUSH1 0x16 DUP1 SLOAD PUSH2 0x100 PUSH1 0x1 PUSH1 0xA8 SHL SUB NOT AND PUSH21 0xB5AFA0238113A3C67787AC184BF4865A80E11C0300 OR SWAP1 SSTORE PUSH1 0x1 DUP1 SLOAD PUSH1 0x1 PUSH1 0x1 PUSH1 0xA0 SHL SUB NOT AND PUSH1 0x1 PUSH1 0x1 PUSH1 0xA0 SHL SUB SWAP3 SWAP1 SWAP3 AND SWAP2 SWAP1 SWAP2 OR SWAP1 SSTORE PUSH3 0x2DC JUMP JUMPDEST PUSH1 0x0 DUP1 SLOAD PUSH1 0x1 PUSH1 0x1 PUSH1 0xA0 SHL SUB DUP4 DUP2 AND PUSH1 0x1 PUSH1 0x1 PUSH1 0xA0 SHL SUB NOT DUP4 AND DUP2 OR DUP5 SSTORE PUSH1 0x40 MLOAD SWAP2 SWAP1 SWAP3 AND SWAP3 DUP4 SWAP2 PUSH32 0x8BE0079C531659141344CD1FD0A4F28419497F9722A3DAAFE3B4186F6B6457E0 SWAP2 SWAP1 LOG3 POP POP JUMP JUMPDEST DUP3 PUSH1 0x6 DUP2 ADD SWAP3 DUP3 ISZERO PUSH3 0x210 JUMPI SWAP2 PUSH1 0x20 MUL DUP3 ADD JUMPDEST DUP3 DUP2 GT ISZERO PUSH3 0x210 JUMPI DUP3 MLOAD DUP3 SWAP1 PUSH3 0xFFFFFF AND SWAP1 SSTORE SWAP2 PUSH1 0x20 ADD SWAP2 SWAP1 PUSH1 0x1 ADD SWAP1 PUSH3 0x1EC JUMP JUMPDEST POP PUSH3 0x21E SWAP3 SWAP2 POP PUSH3 0x293 JUMP JUMPDEST POP SWAP1 JUMP JUMPDEST DUP3 PUSH1 0x6 DUP2 ADD SWAP3 DUP3 ISZERO PUSH3 0x210 JUMPI SWAP2 PUSH1 0x20 MUL DUP3 ADD JUMPDEST DUP3 DUP2 GT ISZERO PUSH3 0x210 JUMPI DUP3 MLOAD DUP3 SWAP1 PUSH5 0xFFFFFFFFFF AND SWAP1 SSTORE SWAP2 PUSH1 0x20 ADD SWAP2 SWAP1 PUSH1 0x1 ADD SWAP1 PUSH3 0x236 JUMP JUMPDEST DUP3 PUSH1 0x5 DUP2 ADD SWAP3 DUP3 ISZERO PUSH3 0x210 JUMPI SWAP2 PUSH1 0x20 MUL DUP3 ADD DUP3 DUP2 GT ISZERO PUSH3 0x210 JUMPI DUP3 MLOAD DUP3 SWAP1 PUSH3 0xFFFFFF AND SWAP1 SSTORE SWAP2 PUSH1 0x20 ADD SWAP2 SWAP1 PUSH1 0x1 ADD SWAP1 PUSH3 0x1EC JUMP JUMPDEST JUMPDEST DUP1 DUP3 GT ISZERO PUSH3 0x21E JUMPI PUSH1 0x0 DUP2 SSTORE PUSH1 0x1 ADD PUSH3 0x294 JUMP JUMPDEST PUSH1 0x0 PUSH1 0x20 DUP3 DUP5 SUB SLT ISZERO PUSH3 0x2BD JUMPI PUSH1 0x0 DUP1 REVERT JUMPDEST DUP2 MLOAD PUSH1 0x1 PUSH1 0x1 PUSH1 0xA0 SHL SUB DUP2 AND DUP2 EQ PUSH3 0x2D5 JUMPI PUSH1 0x0 DUP1 REVERT JUMPDEST SWAP4 SWAP3 POP POP POP JUMP JUMPDEST PUSH2 0x16EF DUP1 PUSH3 0x2EC PUSH1 0x0 CODECOPY PUSH1 0x0 RETURN INVALID PUSH1 0x80 PUSH1 0x40 MSTORE PUSH1 0x4 CALLDATASIZE LT PUSH2 0x14B JUMPI PUSH1 0x0 CALLDATALOAD PUSH1 0xE0 SHR DUP1 PUSH4 0xB2BC496E GT PUSH2 0xB6 JUMPI DUP1 PUSH4 0xE7B9F676 GT PUSH2 0x6F JUMPI DUP1 PUSH4 0xE7B9F676 EQ PUSH2 0x3B2 JUMPI DUP1 PUSH4 0xEDDBC690 EQ PUSH2 0x3D2 JUMPI DUP1 PUSH4 0xF2020275 EQ PUSH2 0x3F2 JUMPI DUP1 PUSH4 0xF2FDE38B EQ PUSH2 0x408 JUMPI DUP1 PUSH4 0xF509CEB5 EQ PUSH2 0x428 JUMPI DUP1 PUSH4 0xF82AF029 EQ PUSH2 0x43B JUMPI PUSH1 0x0 DUP1 REVERT JUMPDEST DUP1 PUSH4 0xB2BC496E EQ PUSH2 0x2F2 JUMPI DUP1 PUSH4 0xCF93302B EQ PUSH2 0x312 JUMPI DUP1 PUSH4 0xDA3F0AD8 EQ PUSH2 0x332 JUMPI DUP1 PUSH4 0xDE7A2031 EQ PUSH2 0x352 JUMPI DUP1 PUSH4 0xE2642A96 EQ PUSH2 0x372 JUMPI DUP1 PUSH4 0xE3846AC0 EQ PUSH2 0x392 JUMPI PUSH1 0x0 DUP1 REVERT JUMPDEST DUP1 PUSH4 0x526FE5F2 GT PUSH2 0x108 JUMPI DUP1 PUSH4 0x526FE5F2 EQ PUSH2 0x22B JUMPI DUP1 PUSH4 0x715018A6 EQ PUSH2 0x24B JUMPI DUP1 PUSH4 0x869A6306 EQ PUSH2 0x260 JUMPI DUP1 PUSH4 0x894C2CCA EQ PUSH2 0x280 JUMPI DUP1 PUSH4 0x8DA5CB5B EQ PUSH2 0x2A0 JUMPI DUP1 PUSH4 0x95E2363B EQ PUSH2 0x2D2 JUMPI PUSH1 0x0 DUP1 REVERT JUMPDEST DUP1 PUSH4 0x839EFB9 EQ PUSH2 0x150 JUMPI DUP1 PUSH4 0x12065FE0 EQ PUSH2 0x183 JUMPI DUP1 PUSH4 0x1A196A78 EQ PUSH2 0x196 JUMPI DUP1 PUSH4 0x1B51847C EQ PUSH2 0x1B6 JUMPI DUP1 PUSH4 0x3C5F07CB EQ PUSH2 0x1EB JUMPI DUP1 PUSH4 0x4B634B06 EQ PUSH2 0x1F5 JUMPI JUMPDEST PUSH1 0x0 DUP1 REVERT JUMPDEST CALLVALUE DUP1 ISZERO PUSH2 0x15C JUMPI PUSH1 0x0 DUP1 REVERT JUMPDEST POP PUSH2 0x170 PUSH2 0x16B CALLDATASIZE PUSH1 0x4 PUSH2 0x1324 JUMP JUMPDEST PUSH2 0x450 JUMP JUMPDEST PUSH1 0x40 MLOAD SWAP1 DUP2 MSTORE PUSH1 0x20 ADD JUMPDEST PUSH1 0x40 MLOAD DUP1 SWAP2 SUB SWAP1 RETURN JUMPDEST CALLVALUE DUP1 ISZERO PUSH2 0x18F JUMPI PUSH1 0x0 DUP1 REVERT JUMPDEST POP SELFBALANCE PUSH2 0x170 JUMP JUMPDEST CALLVALUE DUP1 ISZERO PUSH2 0x1A2 JUMPI PUSH1 0x0 DUP1 REVERT JUMPDEST POP PUSH2 0x170 PUSH2 0x1B1 CALLDATASIZE PUSH1 0x4 PUSH2 0x1359 JUMP JUMPDEST PUSH2 0x467 JUMP JUMPDEST CALLVALUE DUP1 ISZERO PUSH2 0x1C2 JUMPI PUSH1 0x0 DUP1 REVERT JUMPDEST POP PUSH2 0x1D6 PUSH2 0x1D1 CALLDATASIZE PUSH1 0x4 PUSH2 0x1359 JUMP JUMPDEST PUSH2 0x4DF JUMP JUMPDEST PUSH1 0x40 DUP1 MLOAD SWAP3 DUP4 MSTORE PUSH1 0x20 DUP4 ADD SWAP2 SWAP1 SWAP2 MSTORE ADD PUSH2 0x17A JUMP JUMPDEST PUSH2 0x1F3 PUSH2 0x5EF JUMP JUMPDEST STOP JUMPDEST CALLVALUE DUP1 ISZERO PUSH2 0x201 JUMPI PUSH1 0x0 DUP1 REVERT JUMPDEST POP PUSH2 0x170 PUSH2 0x210 CALLDATASIZE PUSH1 0x4 PUSH2 0x1359 JUMP JUMPDEST PUSH1 0x1 PUSH1 0x1 PUSH1 0xA0 SHL SUB AND PUSH1 0x0 SWAP1 DUP2 MSTORE PUSH1 0x17 PUSH1 0x20 MSTORE PUSH1 0x40 SWAP1 KECCAK256 SLOAD SWAP1 JUMP JUMPDEST CALLVALUE DUP1 ISZERO PUSH2 0x237 JUMPI PUSH1 0x0 DUP1 REVERT JUMPDEST POP PUSH2 0x170 PUSH2 0x246 CALLDATASIZE PUSH1 0x4 PUSH2 0x1359 JUMP JUMPDEST PUSH2 0x606 JUMP JUMPDEST CALLVALUE DUP1 ISZERO PUSH2 0x257 JUMPI PUSH1 0x0 DUP1 REVERT JUMPDEST POP PUSH2 0x1F3 PUSH2 0x637 JUMP JUMPDEST CALLVALUE DUP1 ISZERO PUSH2 0x26C JUMPI PUSH1 0x0 DUP1 REVERT JUMPDEST POP PUSH2 0x170 PUSH2 0x27B CALLDATASIZE PUSH1 0x4 PUSH2 0x1374 JUMP JUMPDEST PUSH2 0x64B JUMP JUMPDEST CALLVALUE DUP1 ISZERO PUSH2 0x28C JUMPI PUSH1 0x0 DUP1 REVERT JUMPDEST POP PUSH2 0x170 PUSH2 0x29B CALLDATASIZE PUSH1 0x4 PUSH2 0x1324 JUMP JUMPDEST PUSH2 0x65F JUMP JUMPDEST CALLVALUE DUP1 ISZERO PUSH2 0x2AC JUMPI PUSH1 0x0 DUP1 REVERT JUMPDEST POP PUSH1 0x0 SLOAD PUSH1 0x1 PUSH1 0x1 PUSH1 0xA0 SHL SUB AND JUMPDEST PUSH1 0x40 MLOAD PUSH1 0x1 PUSH1 0x1 PUSH1 0xA0 SHL SUB SWAP1 SWAP2 AND DUP2 MSTORE PUSH1 0x20 ADD PUSH2 0x17A JUMP JUMPDEST CALLVALUE DUP1 ISZERO PUSH2 0x2DE JUMPI PUSH1 0x0 DUP1 REVERT JUMPDEST POP PUSH2 0x1D6 PUSH2 0x2ED CALLDATASIZE PUSH1 0x4 PUSH2 0x1359 JUMP JUMPDEST PUSH2 0x66F JUMP JUMPDEST CALLVALUE DUP1 ISZERO PUSH2 0x2FE JUMPI PUSH1 0x0 DUP1 REVERT JUMPDEST POP PUSH2 0x1F3 PUSH2 0x30D CALLDATASIZE PUSH1 0x4 PUSH2 0x1359 JUMP JUMPDEST PUSH2 0x76F JUMP JUMPDEST CALLVALUE DUP1 ISZERO PUSH2 0x31E JUMPI PUSH1 0x0 DUP1 REVERT JUMPDEST POP PUSH2 0x170 PUSH2 0x32D CALLDATASIZE PUSH1 0x4 PUSH2 0x1374 JUMP JUMPDEST PUSH2 0x90C JUMP JUMPDEST CALLVALUE DUP1 ISZERO PUSH2 0x33E JUMPI PUSH1 0x0 DUP1 REVERT JUMPDEST POP PUSH2 0x1F3 PUSH2 0x34D CALLDATASIZE PUSH1 0x4 PUSH2 0x1359 JUMP JUMPDEST PUSH2 0x919 JUMP JUMPDEST CALLVALUE DUP1 ISZERO PUSH2 0x35E JUMPI PUSH1 0x0 DUP1 REVERT JUMPDEST POP PUSH2 0x170 PUSH2 0x36D CALLDATASIZE PUSH1 0x4 PUSH2 0x1396 JUMP JUMPDEST PUSH2 0xA3B JUMP JUMPDEST CALLVALUE DUP1 ISZERO PUSH2 0x37E JUMPI PUSH1 0x0 DUP1 REVERT JUMPDEST POP PUSH2 0x1F3 PUSH2 0x38D CALLDATASIZE PUSH1 0x4 PUSH2 0x13C2 JUMP JUMPDEST PUSH2 0xA48 JUMP JUMPDEST CALLVALUE DUP1 ISZERO PUSH2 0x39E JUMPI PUSH1 0x0 DUP1 REVERT JUMPDEST POP PUSH1 0x1 SLOAD PUSH2 0x2BA SWAP1 PUSH1 0x1 PUSH1 0x1 PUSH1 0xA0 SHL SUB AND DUP2 JUMP JUMPDEST CALLVALUE DUP1 ISZERO PUSH2 0x3BE JUMPI PUSH1 0x0 DUP1 REVERT JUMPDEST POP PUSH2 0x170 PUSH2 0x3CD CALLDATASIZE PUSH1 0x4 PUSH2 0x1359 JUMP JUMPDEST PUSH2 0xB51 JUMP JUMPDEST CALLVALUE DUP1 ISZERO PUSH2 0x3DE JUMPI PUSH1 0x0 DUP1 REVERT JUMPDEST POP PUSH2 0x1F3 PUSH2 0x3ED CALLDATASIZE PUSH1 0x4 PUSH2 0x1359 JUMP JUMPDEST PUSH2 0xB7D JUMP JUMPDEST CALLVALUE DUP1 ISZERO PUSH2 0x3FE JUMPI PUSH1 0x0 DUP1 REVERT JUMPDEST POP PUSH2 0x170 PUSH1 0x1C SLOAD DUP2 JUMP JUMPDEST CALLVALUE DUP1 ISZERO PUSH2 0x414 JUMPI PUSH1 0x0 DUP1 REVERT JUMPDEST POP PUSH2 0x1F3 PUSH2 0x423 CALLDATASIZE PUSH1 0x4 PUSH2 0x1359 JUMP JUMPDEST PUSH2 0xC41 JUMP JUMPDEST PUSH2 0x1F3 PUSH2 0x436 CALLDATASIZE PUSH1 0x4 PUSH2 0x1359 JUMP JUMPDEST PUSH2 0xCBA JUMP JUMPDEST CALLVALUE DUP1 ISZERO PUSH2 0x447 JUMPI PUSH1 0x0 DUP1 REVERT JUMPDEST POP PUSH2 0x1F3 PUSH2 0xE85 JUMP JUMPDEST PUSH1 0x10 DUP2 PUSH1 0x5 DUP2 LT PUSH2 0x460 JUMPI PUSH1 0x0 DUP1 REVERT JUMPDEST ADD SLOAD SWAP1 POP DUP2 JUMP JUMPDEST PUSH1 0x0 DUP1 PUSH2 0x473 CALLER PUSH2 0x4DF JUMP JUMPDEST POP SWAP1 POP PUSH1 0x0 PUSH2 0x4B0 DUP3 PUSH2 0x4AB TIMESTAMP PUSH1 0x19 PUSH1 0x0 DUP10 PUSH1 0x1 PUSH1 0x1 PUSH1 0xA0 SHL SUB AND PUSH1 0x1 PUSH1 0x1 PUSH1 0xA0 SHL SUB AND DUP2 MSTORE PUSH1 0x20 ADD SWAP1 DUP2 MSTORE PUSH1 0x20 ADD PUSH1 0x0 KECCAK256 SLOAD PUSH2 0xF9F JUMP JUMPDEST PUSH2 0xFAB JUMP JUMPDEST PUSH1 0x1 PUSH1 0x1 PUSH1 0xA0 SHL SUB DUP6 AND PUSH1 0x0 SWAP1 DUP2 MSTORE PUSH1 0x17 PUSH1 0x20 MSTORE PUSH1 0x40 SWAP1 KECCAK256 SLOAD SWAP1 SWAP2 POP PUSH2 0x4D7 SWAP1 DUP3 SWAP1 PUSH2 0xFC1 JUMP JUMPDEST SWAP5 SWAP4 POP POP POP POP JUMP JUMPDEST PUSH1 0x1 SLOAD PUSH1 0x40 MLOAD PUSH4 0x212743F1 PUSH1 0xE1 SHL DUP2 MSTORE PUSH1 0x1 PUSH1 0x1 PUSH1 0xA0 SHL SUB DUP4 DUP2 AND PUSH1 0x4 DUP4 ADD MSTORE PUSH1 0x0 SWAP3 DUP4 SWAP3 DUP4 SWAP3 SWAP1 SWAP2 AND SWAP1 PUSH4 0x424E87E2 SWAP1 PUSH1 0x24 ADD PUSH1 0x20 PUSH1 0x40 MLOAD DUP1 DUP4 SUB DUP2 DUP7 GAS STATICCALL ISZERO DUP1 ISZERO PUSH2 0x530 JUMPI RETURNDATASIZE PUSH1 0x0 DUP1 RETURNDATACOPY RETURNDATASIZE PUSH1 0x0 REVERT JUMPDEST POP POP POP POP PUSH1 0x40 MLOAD RETURNDATASIZE PUSH1 0x1F NOT PUSH1 0x1F DUP3 ADD AND DUP3 ADD DUP1 PUSH1 0x40 MSTORE POP DUP2 ADD SWAP1 PUSH2 0x554 SWAP2 SWAP1 PUSH2 0x1448 JUMP JUMPDEST PUSH1 0x10 SLOAD SWAP1 SWAP2 POP DUP2 LT ISZERO PUSH2 0x574 JUMPI PUSH1 0x2 SLOAD SWAP3 POP PUSH1 0xA PUSH1 0x0 JUMPDEST ADD SLOAD SWAP2 POP PUSH2 0x5E9 JUMP JUMPDEST PUSH1 0x3 SLOAD DUP2 LT ISZERO PUSH2 0x58C JUMPI PUSH1 0x3 SLOAD SWAP3 POP PUSH1 0xA PUSH1 0x1 PUSH2 0x56B JUMP JUMPDEST PUSH1 0x12 SLOAD DUP2 LT ISZERO PUSH2 0x5A4 JUMPI PUSH1 0x4 SLOAD SWAP3 POP PUSH1 0xA PUSH1 0x2 PUSH2 0x56B JUMP JUMPDEST PUSH1 0x13 SLOAD DUP2 LT ISZERO PUSH2 0x5BC JUMPI PUSH1 0x5 SLOAD SWAP3 POP PUSH1 0xA PUSH1 0x3 PUSH2 0x56B JUMP JUMPDEST PUSH1 0x14 SLOAD DUP2 LT ISZERO PUSH2 0x5D4 JUMPI PUSH1 0x6 SLOAD SWAP3 POP PUSH1 0xA PUSH1 0x4 PUSH2 0x56B JUMP JUMPDEST PUSH1 0x14 SLOAD DUP2 LT PUSH2 0x5E9 JUMPI PUSH1 0x7 SLOAD PUSH1 0xF SLOAD SWAP1 SWAP4 POP SWAP2 POP JUMPDEST POP SWAP2 POP SWAP2 JUMP JUMPDEST PUSH2 0x5F7 PUSH2 0xFCD JUMP JUMPDEST PUSH1 0x16 DUP1 SLOAD PUSH1 0xFF NOT AND PUSH1 0x1 OR SWAP1 SSTORE JUMP JUMPDEST PUSH1 0x0 DUP1 PUSH2 0x612 CALLER PUSH2 0x4DF JUMP JUMPDEST SWAP2 POP POP PUSH1 0x0 PUSH2 0x620 DUP5 PUSH2 0xB51 JUMP JUMPDEST SWAP1 POP PUSH1 0x0 PUSH2 0x62E DUP3 DUP5 PUSH2 0x90C JUMP JUMPDEST SWAP6 SWAP5 POP POP POP POP POP JUMP JUMPDEST PUSH2 0x63F PUSH2 0xFCD JUMP JUMPDEST PUSH2 0x649 PUSH1 0x0 PUSH2 0x1027 JUMP JUMPDEST JUMP JUMPDEST PUSH1 0x0 PUSH2 0x658 DUP4 SELFBALANCE DUP5 PUSH2 0xA3B JUMP JUMPDEST SWAP4 SWAP3 POP POP POP JUMP JUMPDEST PUSH1 0xA DUP2 PUSH1 0x6 DUP2 LT PUSH2 0x460 JUMPI PUSH1 0x0 DUP1 REVERT JUMPDEST PUSH1 0x1 SLOAD PUSH1 0x40 MLOAD PUSH4 0x212743F1 PUSH1 0xE1 SHL DUP2 MSTORE PUSH1 0x1 PUSH1 0x1 PUSH1 0xA0 SHL SUB DUP4 DUP2 AND PUSH1 0x4 DUP4 ADD MSTORE PUSH1 0x0 SWAP3 DUP4 SWAP3 DUP4 SWAP3 SWAP1 SWAP2 AND SWAP1 PUSH4 0x424E87E2 SWAP1 PUSH1 0x24 ADD PUSH1 0x20 PUSH1 0x40 MLOAD DUP1 DUP4 SUB DUP2 DUP7 GAS STATICCALL ISZERO DUP1 ISZERO PUSH2 0x6C0 JUMPI RETURNDATASIZE PUSH1 0x0 DUP1 RETURNDATACOPY RETURNDATASIZE PUSH1 0x0 REVERT JUMPDEST POP POP POP POP PUSH1 0x40 MLOAD RETURNDATASIZE PUSH1 0x1F NOT PUSH1 0x1F DUP3 ADD AND DUP3 ADD DUP1 PUSH1 0x40 MSTORE POP DUP2 ADD SWAP1 PUSH2 0x6E4 SWAP2 SWAP1 PUSH2 0x1448 JUMP JUMPDEST PUSH1 0x10 SLOAD SWAP1 SWAP2 POP DUP2 LT ISZERO PUSH2 0x6FE JUMPI PUSH1 0x0 SWAP3 POP PUSH1 0x0 SWAP2 POP PUSH2 0x5E9 JUMP JUMPDEST PUSH1 0x3 SLOAD DUP2 LT ISZERO PUSH2 0x715 JUMPI PUSH1 0x1 SWAP3 POP PUSH1 0x1 SWAP2 POP PUSH2 0x5E9 JUMP JUMPDEST PUSH1 0x12 SLOAD DUP2 LT ISZERO PUSH2 0x72C JUMPI PUSH1 0x2 SWAP3 POP PUSH1 0x2 SWAP2 POP PUSH2 0x5E9 JUMP JUMPDEST PUSH1 0x13 SLOAD DUP2 LT ISZERO PUSH2 0x743 JUMPI PUSH1 0x3 SWAP3 POP PUSH1 0x3 SWAP2 POP PUSH2 0x5E9 JUMP JUMPDEST PUSH1 0x14 SLOAD DUP2 LT ISZERO PUSH2 0x75A JUMPI PUSH1 0x4 SWAP3 POP PUSH1 0x4 SWAP2 POP PUSH2 0x5E9 JUMP JUMPDEST PUSH1 0x14 SLOAD DUP2 LT PUSH2 0x5E9 JUMPI POP PUSH1 0x5 SWAP4 DUP5 SWAP4 POP SWAP2 POP POP JUMP JUMPDEST PUSH1 0x16 SLOAD PUSH1 0xFF AND PUSH2 0x77E JUMPI PUSH1 0x0 DUP1 REVERT JUMPDEST PUSH1 0x0 PUSH2 0x789 CALLER PUSH2 0x4DF JUMP JUMPDEST POP SWAP1 POP PUSH1 0x0 PUSH2 0x797 CALLER PUSH2 0x66F JUMP JUMPDEST POP SWAP1 POP PUSH1 0x1 PUSH1 0x1 PUSH1 0xA0 SHL SUB DUP4 AND CALLER EQ ISZERO PUSH2 0x7B0 JUMPI PUSH1 0x0 SWAP3 POP JUMPDEST CALLER PUSH1 0x0 SWAP1 DUP2 MSTORE PUSH1 0x1A PUSH1 0x20 MSTORE PUSH1 0x40 SWAP1 KECCAK256 SLOAD PUSH1 0x1 PUSH1 0x1 PUSH1 0xA0 SHL SUB AND ISZERO DUP1 ISZERO PUSH2 0x7ED JUMPI POP CALLER PUSH1 0x0 DUP2 DUP2 MSTORE PUSH1 0x1A PUSH1 0x20 MSTORE PUSH1 0x40 SWAP1 KECCAK256 SLOAD PUSH1 0x1 PUSH1 0x1 PUSH1 0xA0 SHL SUB AND EQ ISZERO JUMPDEST ISZERO PUSH2 0x81B JUMPI CALLER PUSH1 0x0 SWAP1 DUP2 MSTORE PUSH1 0x1A PUSH1 0x20 MSTORE PUSH1 0x40 SWAP1 KECCAK256 DUP1 SLOAD PUSH1 0x1 PUSH1 0x1 PUSH1 0xA0 SHL SUB NOT AND PUSH1 0x1 PUSH1 0x1 PUSH1 0xA0 SHL SUB DUP6 AND OR SWAP1 SSTORE JUMPDEST PUSH1 0x0 PUSH2 0x826 CALLER PUSH2 0xB51 JUMP JUMPDEST SWAP1 POP PUSH1 0x0 PUSH2 0x834 DUP3 DUP6 PUSH2 0x1077 JUMP JUMPDEST CALLER PUSH1 0x0 SWAP1 DUP2 MSTORE PUSH1 0x17 PUSH1 0x20 MSTORE PUSH1 0x40 SWAP1 KECCAK256 SLOAD SWAP1 SWAP2 POP PUSH2 0x851 SWAP1 DUP3 PUSH2 0x1083 JUMP JUMPDEST CALLER PUSH1 0x0 SWAP1 DUP2 MSTORE PUSH1 0x17 PUSH1 0x20 SWAP1 DUP2 MSTORE PUSH1 0x40 DUP1 DUP4 KECCAK256 SWAP4 SWAP1 SWAP4 SSTORE PUSH1 0x18 DUP1 DUP3 MSTORE DUP4 DUP4 KECCAK256 DUP4 SWAP1 SSTORE PUSH1 0x19 DUP3 MSTORE DUP4 DUP4 KECCAK256 TIMESTAMP SWAP1 SSTORE PUSH1 0x1A DUP3 MSTORE DUP4 DUP4 KECCAK256 SLOAD PUSH1 0x1 PUSH1 0x1 PUSH1 0xA0 SHL SUB AND DUP4 MSTORE SWAP1 MSTORE KECCAK256 SLOAD PUSH2 0x8A7 SWAP1 PUSH2 0x8A2 DUP5 PUSH1 0x8 PUSH2 0x1077 JUMP JUMPDEST PUSH2 0x1083 JUMP JUMPDEST CALLER PUSH1 0x0 SWAP1 DUP2 MSTORE PUSH1 0x1A PUSH1 0x20 SWAP1 DUP2 MSTORE PUSH1 0x40 DUP1 DUP4 KECCAK256 SLOAD PUSH1 0x1 PUSH1 0x1 PUSH1 0xA0 SHL SUB AND DUP4 MSTORE PUSH1 0x18 SWAP1 SWAP2 MSTORE SWAP1 KECCAK256 SSTORE PUSH2 0x8F0 PUSH1 0xA DUP5 PUSH1 0x6 DUP2 LT PUSH2 0x8E3 JUMPI PUSH2 0x8E3 PUSH2 0x1461 JUMP JUMPDEST ADD SLOAD PUSH2 0x8A2 DUP5 PUSH1 0x5 PUSH2 0x1077 JUMP JUMPDEST PUSH1 0xA DUP5 PUSH1 0x6 DUP2 LT PUSH2 0x903 JUMPI PUSH2 0x903 PUSH2 0x1461 JUMP JUMPDEST ADD SSTORE POP POP POP POP POP JUMP JUMPDEST PUSH1 0x0 PUSH2 0x658 DUP4 DUP4 SELFBALANCE PUSH2 0x108F JUMP JUMPDEST PUSH2 0x921 PUSH2 0xFCD JUMP JUMPDEST PUSH1 0x40 MLOAD PUSH4 0x70A08231 PUSH1 0xE0 SHL DUP2 MSTORE ADDRESS PUSH1 0x4 DUP3 ADD MSTORE PUSH1 0x0 SWAP1 PUSH1 0x1 PUSH1 0x1 PUSH1 0xA0 SHL SUB DUP4 AND SWAP1 PUSH4 0x70A08231 SWAP1 PUSH1 0x24 ADD PUSH1 0x20 PUSH1 0x40 MLOAD DUP1 DUP4 SUB DUP2 DUP7 GAS STATICCALL ISZERO DUP1 ISZERO PUSH2 0x968 JUMPI RETURNDATASIZE PUSH1 0x0 DUP1 RETURNDATACOPY RETURNDATASIZE PUSH1 0x0 REVERT JUMPDEST POP POP POP POP PUSH1 0x40 MLOAD RETURNDATASIZE PUSH1 0x1F NOT PUSH1 0x1F DUP3 ADD AND DUP3 ADD DUP1 PUSH1 0x40 MSTORE POP DUP2 ADD SWAP1 PUSH2 0x98C SWAP2 SWAP1 PUSH2 0x1448 JUMP JUMPDEST SWAP1 POP DUP1 PUSH2 0x9E0 JUMPI PUSH1 0x40 MLOAD PUSH3 0x461BCD PUSH1 0xE5 SHL DUP2 MSTORE PUSH1 0x20 PUSH1 0x4 DUP3 ADD MSTORE PUSH1 0x1F PUSH1 0x24 DUP3 ADD MSTORE PUSH32 0x4F7065726174696F6E733A204E6F20746F6B656E20746F207265636F76657200 PUSH1 0x44 DUP3 ADD MSTORE PUSH1 0x64 ADD JUMPDEST PUSH1 0x40 MLOAD DUP1 SWAP2 SUB SWAP1 REVERT JUMPDEST PUSH2 0x9F4 PUSH1 0x1 PUSH1 0x1 PUSH1 0xA0 SHL SUB DUP4 AND CALLER DUP4 PUSH2 0x10CF JUMP JUMPDEST DUP2 PUSH1 0x1 PUSH1 0x1 PUSH1 0xA0 SHL SUB AND PUSH32 0x33446578F932F930C093F8CA9B7D449E2AF5AC4B70BF78C6927A88DA0D338336 DUP3 PUSH1 0x40 MLOAD PUSH2 0xA2F SWAP2 DUP2 MSTORE PUSH1 0x20 ADD SWAP1 JUMP JUMPDEST PUSH1 0x40 MLOAD DUP1 SWAP2 SUB SWAP1 LOG2 POP POP JUMP JUMPDEST PUSH1 0x0 PUSH2 0x4D7 DUP5 DUP5 DUP5 PUSH2 0x108F JUMP JUMPDEST PUSH2 0xA50 PUSH2 0xFCD JUMP JUMPDEST DUP1 PUSH1 0x0 JUMPDEST DUP2 DUP2 LT ISZERO PUSH2 0xAFF JUMPI DUP5 PUSH1 0x1 PUSH1 0x1 PUSH1 0xA0 SHL SUB AND PUSH4 0x42842E0E ADDRESS CALLER DUP8 DUP8 DUP7 DUP2 DUP2 LT PUSH2 0xA7F JUMPI PUSH2 0xA7F PUSH2 0x1461 JUMP JUMPDEST PUSH1 0x40 MLOAD PUSH1 0x1 PUSH1 0x1 PUSH1 0xE0 SHL SUB NOT PUSH1 0xE0 DUP9 SWAP1 SHL AND DUP2 MSTORE PUSH1 0x1 PUSH1 0x1 PUSH1 0xA0 SHL SUB SWAP6 DUP7 AND PUSH1 0x4 DUP3 ADD MSTORE SWAP5 SWAP1 SWAP4 AND PUSH1 0x24 DUP6 ADD MSTORE POP PUSH1 0x20 SWAP1 SWAP2 MUL ADD CALLDATALOAD PUSH1 0x44 DUP3 ADD MSTORE PUSH1 0x64 ADD PUSH1 0x0 PUSH1 0x40 MLOAD DUP1 DUP4 SUB DUP2 PUSH1 0x0 DUP8 DUP1 EXTCODESIZE ISZERO DUP1 ISZERO PUSH2 0xAD6 JUMPI PUSH1 0x0 DUP1 REVERT JUMPDEST POP GAS CALL ISZERO DUP1 ISZERO PUSH2 0xAEA JUMPI RETURNDATASIZE PUSH1 0x0 DUP1 RETURNDATACOPY RETURNDATASIZE PUSH1 0x0 REVERT JUMPDEST POP POP POP POP DUP1 PUSH2 0xAF8 SWAP1 PUSH2 0x148D JUMP JUMPDEST SWAP1 POP PUSH2 0xA54 JUMP JUMPDEST POP DUP3 DUP3 PUSH1 0x40 MLOAD PUSH2 0xB10 SWAP3 SWAP2 SWAP1 PUSH2 0x14A8 JUMP JUMPDEST PUSH1 0x40 MLOAD SWAP1 DUP2 SWAP1 SUB DUP2 KECCAK256 SWAP1 PUSH1 0x1 PUSH1 0x1 PUSH1 0xA0 SHL SUB DUP7 AND SWAP1 PUSH32 0x3551588AEBC798892F9D5F9C8CC83700E1005BE61735E02D95764F0F09B089D9 SWAP1 PUSH1 0x0 SWAP1 LOG3 POP POP POP POP JUMP JUMPDEST PUSH1 0x1 PUSH1 0x1 PUSH1 0xA0 SHL SUB DUP2 AND PUSH1 0x0 SWAP1 DUP2 MSTORE PUSH1 0x18 PUSH1 0x20 MSTORE PUSH1 0x40 DUP2 KECCAK256 SLOAD PUSH2 0xB77 SWAP1 PUSH2 0x8A2 DUP5 PUSH2 0x467 JUMP JUMPDEST SWAP3 SWAP2 POP POP JUMP JUMPDEST PUSH2 0xB85 PUSH2 0xFCD JUMP JUMPDEST PUSH1 0x1 PUSH1 0x1 PUSH1 0xA0 SHL SUB DUP2 AND PUSH2 0xBCD JUMPI PUSH1 0x40 MLOAD PUSH3 0x461BCD PUSH1 0xE5 SHL DUP2 MSTORE PUSH1 0x20 PUSH1 0x4 DUP3 ADD MSTORE PUSH1 0xF PUSH1 0x24 DUP3 ADD MSTORE PUSH15 0x43616E206E6F74206265207A65726F PUSH1 0x88 SHL PUSH1 0x44 DUP3 ADD MSTORE PUSH1 0x64 ADD PUSH2 0x9D7 JUMP JUMPDEST PUSH1 0x16 SLOAD PUSH1 0x40 DUP1 MLOAD PUSH1 0x1 PUSH1 0x1 PUSH1 0xA0 SHL SUB PUSH2 0x100 SWAP1 SWAP4 DIV DUP4 AND DUP2 MSTORE SWAP2 DUP4 AND PUSH1 0x20 DUP4 ADD MSTORE PUSH32 0x1B199F677B3B3147A12CF531865528339DC544B720485DBAD1D8805B3F37A49C SWAP2 ADD PUSH1 0x40 MLOAD DUP1 SWAP2 SUB SWAP1 LOG1 PUSH1 0x16 DUP1 SLOAD PUSH1 0x1 PUSH1 0x1 PUSH1 0xA0 SHL SUB SWAP1 SWAP3 AND PUSH2 0x100 MUL PUSH2 0x100 PUSH1 0x1 PUSH1 0xA8 SHL SUB NOT SWAP1 SWAP3 AND SWAP2 SWAP1 SWAP2 OR SWAP1 SSTORE JUMP JUMPDEST PUSH2 0xC49 PUSH2 0xFCD JUMP JUMPDEST PUSH1 0x1 PUSH1 0x1 PUSH1 0xA0 SHL SUB DUP2 AND PUSH2 0xCAE JUMPI PUSH1 0x40 MLOAD PUSH3 0x461BCD PUSH1 0xE5 SHL DUP2 MSTORE PUSH1 0x20 PUSH1 0x4 DUP3 ADD MSTORE PUSH1 0x26 PUSH1 0x24 DUP3 ADD MSTORE PUSH32 0x4F776E61626C653A206E6577206F776E657220697320746865207A65726F2061 PUSH1 0x44 DUP3 ADD MSTORE PUSH6 0x646472657373 PUSH1 0xD0 SHL PUSH1 0x64 DUP3 ADD MSTORE PUSH1 0x84 ADD PUSH2 0x9D7 JUMP JUMPDEST PUSH2 0xCB7 DUP2 PUSH2 0x1027 JUMP JUMPDEST POP JUMP JUMPDEST PUSH1 0x1 SLOAD PUSH1 0x40 MLOAD PUSH4 0x71D4ED8D PUSH1 0xE1 SHL DUP2 MSTORE CALLER PUSH1 0x4 DUP3 ADD MSTORE PUSH1 0x0 SWAP2 PUSH1 0x1 PUSH1 0x1 PUSH1 0xA0 SHL SUB AND SWAP1 PUSH4 0xE3A9DB1A SWAP1 PUSH1 0x24 ADD PUSH1 0x0 PUSH1 0x40 MLOAD DUP1 DUP4 SUB DUP2 DUP7 GAS STATICCALL ISZERO DUP1 ISZERO PUSH2 0xD03 JUMPI RETURNDATASIZE PUSH1 0x0 DUP1 RETURNDATACOPY RETURNDATASIZE PUSH1 0x0 REVERT JUMPDEST POP POP POP POP PUSH1 0x40 MLOAD RETURNDATASIZE PUSH1 0x0 DUP3 RETURNDATACOPY PUSH1 0x1F RETURNDATASIZE SWAP1 DUP2 ADD PUSH1 0x1F NOT AND DUP3 ADD PUSH1 0x40 MSTORE PUSH2 0xD2B SWAP2 SWAP1 DUP2 ADD SWAP1 PUSH2 0x14EA JUMP JUMPDEST SWAP1 POP PUSH1 0x0 DUP2 MLOAD GT PUSH2 0xD6F JUMPI PUSH1 0x40 MLOAD PUSH3 0x461BCD PUSH1 0xE5 SHL DUP2 MSTORE PUSH1 0x20 PUSH1 0x4 DUP3 ADD MSTORE PUSH1 0xE PUSH1 0x24 DUP3 ADD MSTORE PUSH14 0x139BC81391951CC814DD185AD959 PUSH1 0x92 SHL PUSH1 0x44 DUP3 ADD MSTORE PUSH1 0x64 ADD PUSH2 0x9D7 JUMP JUMPDEST PUSH1 0x16 SLOAD PUSH1 0xFF AND PUSH2 0xD7E JUMPI PUSH1 0x0 DUP1 REVERT JUMPDEST PUSH1 0x0 PUSH2 0xD89 CALLER PUSH2 0x4DF JUMP JUMPDEST SWAP2 POP POP PUSH1 0x0 PUSH2 0xD98 SELFBALANCE CALLVALUE PUSH2 0xF9F JUMP JUMPDEST SWAP1 POP PUSH1 0x0 PUSH2 0xDA7 CALLVALUE DUP4 DUP6 PUSH2 0xA3B JUMP JUMPDEST SWAP1 POP PUSH2 0xDBB DUP2 PUSH2 0xDB6 DUP4 PUSH2 0x1126 JUMP JUMPDEST PUSH2 0xF9F JUMP JUMPDEST SWAP1 POP PUSH1 0x0 PUSH2 0xDC8 CALLVALUE PUSH2 0x1126 JUMP JUMPDEST PUSH1 0x16 SLOAD PUSH1 0x40 MLOAD SWAP2 SWAP3 POP PUSH2 0x100 SWAP1 DIV PUSH1 0x1 PUSH1 0x1 PUSH1 0xA0 SHL SUB AND SWAP1 PUSH2 0x8FC DUP4 ISZERO MUL SWAP1 DUP4 SWAP1 PUSH1 0x0 DUP2 DUP2 DUP2 DUP6 DUP9 DUP9 CALL SWAP4 POP POP POP POP ISZERO DUP1 ISZERO PUSH2 0xE08 JUMPI RETURNDATASIZE PUSH1 0x0 DUP1 RETURNDATACOPY RETURNDATASIZE PUSH1 0x0 REVERT JUMPDEST POP CALLER PUSH1 0x0 SWAP1 DUP2 MSTORE PUSH1 0x18 PUSH1 0x20 MSTORE PUSH1 0x40 SWAP1 KECCAK256 SLOAD PUSH2 0xE23 SWAP1 DUP4 PUSH2 0x1083 JUMP JUMPDEST CALLER PUSH1 0x0 SWAP1 DUP2 MSTORE PUSH1 0x18 PUSH1 0x20 SWAP1 DUP2 MSTORE PUSH1 0x40 DUP1 DUP4 KECCAK256 SWAP4 SWAP1 SWAP4 SSTORE PUSH1 0x1B SWAP1 MSTORE KECCAK256 SLOAD PUSH1 0xFF AND PUSH2 0xE74 JUMPI CALLER PUSH1 0x0 SWAP1 DUP2 MSTORE PUSH1 0x1B PUSH1 0x20 MSTORE PUSH1 0x40 DUP2 KECCAK256 DUP1 SLOAD PUSH1 0xFF NOT AND PUSH1 0x1 OR SWAP1 SSTORE PUSH1 0x1C DUP1 SLOAD SWAP2 PUSH2 0xE6E DUP4 PUSH2 0x148D JUMP JUMPDEST SWAP2 SWAP1 POP SSTORE POP JUMPDEST PUSH2 0xE7D DUP7 PUSH2 0x76F JUMP JUMPDEST POP POP POP POP POP POP JUMP JUMPDEST PUSH1 0x16 SLOAD PUSH1 0xFF AND PUSH2 0xE94 JUMPI PUSH1 0x0 DUP1 REVERT JUMPDEST PUSH1 0x0 PUSH2 0xE9F CALLER PUSH2 0x4DF JUMP JUMPDEST SWAP2 POP POP PUSH1 0x0 PUSH2 0xEAD CALLER PUSH2 0x66F JUMP JUMPDEST POP SWAP1 POP PUSH1 0x0 PUSH2 0xEBB CALLER PUSH2 0xB51 JUMP JUMPDEST SWAP1 POP PUSH1 0x0 PUSH2 0xEC9 DUP3 DUP6 PUSH2 0x90C JUMP JUMPDEST SWAP1 POP PUSH1 0x0 PUSH2 0xED6 DUP3 PUSH2 0x1126 JUMP JUMPDEST CALLER PUSH1 0x0 SWAP1 DUP2 MSTORE PUSH1 0x18 PUSH1 0x20 SWAP1 DUP2 MSTORE PUSH1 0x40 DUP1 DUP4 KECCAK256 DUP4 SWAP1 SSTORE PUSH1 0x19 SWAP1 SWAP2 MSTORE SWAP1 KECCAK256 TIMESTAMP SWAP1 SSTORE SWAP1 POP PUSH2 0xF15 PUSH1 0xA DUP6 PUSH1 0x6 DUP2 LT PUSH2 0xF0D JUMPI PUSH2 0xF0D PUSH2 0x1461 JUMP JUMPDEST ADD SLOAD DUP5 PUSH2 0x1083 JUMP JUMPDEST PUSH1 0xA DUP6 PUSH1 0x6 DUP2 LT PUSH2 0xF28 JUMPI PUSH2 0xF28 PUSH2 0x1461 JUMP JUMPDEST ADD SSTORE PUSH1 0x16 SLOAD PUSH1 0x40 MLOAD PUSH2 0x100 SWAP1 SWAP2 DIV PUSH1 0x1 PUSH1 0x1 PUSH1 0xA0 SHL SUB AND SWAP1 PUSH2 0x8FC DUP4 ISZERO MUL SWAP1 DUP4 SWAP1 PUSH1 0x0 DUP2 DUP2 DUP2 DUP6 DUP9 DUP9 CALL SWAP4 POP POP POP POP ISZERO DUP1 ISZERO PUSH2 0xF68 JUMPI RETURNDATASIZE PUSH1 0x0 DUP1 RETURNDATACOPY RETURNDATASIZE PUSH1 0x0 REVERT JUMPDEST POP CALLER PUSH2 0x8FC PUSH2 0xF77 DUP5 DUP5 PUSH2 0xF9F JUMP JUMPDEST PUSH1 0x40 MLOAD DUP2 ISZERO SWAP1 SWAP3 MUL SWAP2 PUSH1 0x0 DUP2 DUP2 DUP2 DUP6 DUP9 DUP9 CALL SWAP4 POP POP POP POP ISZERO DUP1 ISZERO PUSH2 0xE7D JUMPI RETURNDATASIZE PUSH1 0x0 DUP1 RETURNDATACOPY RETURNDATASIZE PUSH1 0x0 REVERT JUMPDEST PUSH1 0x0 PUSH2 0x658 DUP3 DUP5 PUSH2 0x15A8 JUMP JUMPDEST PUSH1 0x0 DUP2 DUP4 LT PUSH2 0xFBA JUMPI DUP2 PUSH2 0x658 JUMP JUMPDEST POP SWAP1 SWAP2 SWAP1 POP JUMP JUMPDEST PUSH1 0x0 PUSH2 0x658 DUP3 DUP5 PUSH2 0x15BF JUMP JUMPDEST PUSH1 0x0 SLOAD PUSH1 0x1 PUSH1 0x1 PUSH1 0xA0 SHL SUB AND CALLER EQ PUSH2 0x649 JUMPI PUSH1 0x40 MLOAD PUSH3 0x461BCD PUSH1 0xE5 SHL DUP2 MSTORE PUSH1 0x20 PUSH1 0x4 DUP3 ADD DUP2 SWAP1 MSTORE PUSH1 0x24 DUP3 ADD MSTORE PUSH32 0x4F776E61626C653A2063616C6C6572206973206E6F7420746865206F776E6572 PUSH1 0x44 DUP3 ADD MSTORE PUSH1 0x64 ADD PUSH2 0x9D7 JUMP JUMPDEST PUSH1 0x0 DUP1 SLOAD PUSH1 0x1 PUSH1 0x1 PUSH1 0xA0 SHL SUB DUP4 DUP2 AND PUSH1 0x1 PUSH1 0x1 PUSH1 0xA0 SHL SUB NOT DUP4 AND DUP2 OR DUP5 SSTORE PUSH1 0x40 MLOAD SWAP2 SWAP1 SWAP3 AND SWAP3 DUP4 SWAP2 PUSH32 0x8BE0079C531659141344CD1FD0A4F28419497F9722A3DAAFE3B4186F6B6457E0 SWAP2 SWAP1 LOG3 POP POP JUMP JUMPDEST PUSH1 0x0 PUSH2 0x658 DUP3 DUP5 PUSH2 0x15DE JUMP JUMPDEST PUSH1 0x0 PUSH2 0x658 DUP3 DUP5 PUSH2 0x1600 JUMP JUMPDEST PUSH1 0x0 PUSH2 0x4D7 PUSH2 0x10A0 PUSH1 0x8 SLOAD DUP5 PUSH2 0xFC1 JUMP JUMPDEST PUSH2 0x10CA PUSH1 0x9 SLOAD PUSH2 0x8A2 PUSH2 0x10C4 PUSH2 0x10B8 PUSH1 0x8 SLOAD DUP11 PUSH2 0xFC1 JUMP JUMPDEST PUSH2 0x8A2 PUSH1 0x9 SLOAD DUP13 PUSH2 0xFC1 JUMP JUMPDEST DUP10 PUSH2 0x1077 JUMP JUMPDEST PUSH2 0x1077 JUMP JUMPDEST PUSH1 0x40 DUP1 MLOAD PUSH1 0x1 PUSH1 0x1 PUSH1 0xA0 SHL SUB DUP5 AND PUSH1 0x24 DUP3 ADD MSTORE PUSH1 0x44 DUP1 DUP3 ADD DUP5 SWAP1 MSTORE DUP3 MLOAD DUP1 DUP4 SUB SWAP1 SWAP2 ADD DUP2 MSTORE PUSH1 0x64 SWAP1 SWAP2 ADD SWAP1 SWAP2 MSTORE PUSH1 0x20 DUP2 ADD DUP1 MLOAD PUSH1 0x1 PUSH1 0x1 PUSH1 0xE0 SHL SUB AND PUSH4 0xA9059CBB PUSH1 0xE0 SHL OR SWAP1 MSTORE PUSH2 0x1121 SWAP1 DUP5 SWAP1 PUSH2 0x113E JUMP JUMPDEST POP POP POP JUMP JUMPDEST PUSH1 0x0 PUSH2 0xB77 PUSH2 0x1137 DUP4 PUSH1 0x15 SLOAD PUSH2 0xFC1 JUMP JUMPDEST PUSH1 0x64 PUSH2 0x1077 JUMP JUMPDEST PUSH1 0x0 PUSH2 0x1193 DUP3 PUSH1 0x40 MLOAD DUP1 PUSH1 0x40 ADD PUSH1 0x40 MSTORE DUP1 PUSH1 0x20 DUP2 MSTORE PUSH1 0x20 ADD PUSH32 0x5361666545524332303A206C6F772D6C6576656C2063616C6C206661696C6564 DUP2 MSTORE POP DUP6 PUSH1 0x1 PUSH1 0x1 PUSH1 0xA0 SHL SUB AND PUSH2 0x1210 SWAP1 SWAP3 SWAP2 SWAP1 PUSH4 0xFFFFFFFF AND JUMP JUMPDEST DUP1 MLOAD SWAP1 SWAP2 POP ISZERO PUSH2 0x1121 JUMPI DUP1 DUP1 PUSH1 0x20 ADD SWAP1 MLOAD DUP2 ADD SWAP1 PUSH2 0x11B1 SWAP2 SWAP1 PUSH2 0x1618 JUMP JUMPDEST PUSH2 0x1121 JUMPI PUSH1 0x40 MLOAD PUSH3 0x461BCD PUSH1 0xE5 SHL DUP2 MSTORE PUSH1 0x20 PUSH1 0x4 DUP3 ADD MSTORE PUSH1 0x2A PUSH1 0x24 DUP3 ADD MSTORE PUSH32 0x5361666545524332303A204552433230206F7065726174696F6E20646964206E PUSH1 0x44 DUP3 ADD MSTORE PUSH10 0x1BDD081CDD58D8D95959 PUSH1 0xB2 SHL PUSH1 0x64 DUP3 ADD MSTORE PUSH1 0x84 ADD PUSH2 0x9D7 JUMP JUMPDEST PUSH1 0x60 PUSH2 0x4D7 DUP5 DUP5 PUSH1 0x0 DUP6 DUP6 PUSH1 0x1 PUSH1 0x1 PUSH1 0xA0 SHL SUB DUP6 AND EXTCODESIZE PUSH2 0x1272 JUMPI PUSH1 0x40 MLOAD PUSH3 0x461BCD PUSH1 0xE5 SHL DUP2 MSTORE PUSH1 0x20 PUSH1 0x4 DUP3 ADD MSTORE PUSH1 0x1D PUSH1 0x24 DUP3 ADD MSTORE PUSH32 0x416464726573733A2063616C6C20746F206E6F6E2D636F6E7472616374000000 PUSH1 0x44 DUP3 ADD MSTORE PUSH1 0x64 ADD PUSH2 0x9D7 JUMP JUMPDEST PUSH1 0x0 DUP1 DUP7 PUSH1 0x1 PUSH1 0x1 PUSH1 0xA0 SHL SUB AND DUP6 DUP8 PUSH1 0x40 MLOAD PUSH2 0x128E SWAP2 SWAP1 PUSH2 0x166A JUMP JUMPDEST PUSH1 0x0 PUSH1 0x40 MLOAD DUP1 DUP4 SUB DUP2 DUP6 DUP8 GAS CALL SWAP3 POP POP POP RETURNDATASIZE DUP1 PUSH1 0x0 DUP2 EQ PUSH2 0x12CB JUMPI PUSH1 0x40 MLOAD SWAP2 POP PUSH1 0x1F NOT PUSH1 0x3F RETURNDATASIZE ADD AND DUP3 ADD PUSH1 0x40 MSTORE RETURNDATASIZE DUP3 MSTORE RETURNDATASIZE PUSH1 0x0 PUSH1 0x20 DUP5 ADD RETURNDATACOPY PUSH2 0x12D0 JUMP JUMPDEST PUSH1 0x60 SWAP2 POP JUMPDEST POP SWAP2 POP SWAP2 POP PUSH2 0x12E0 DUP3 DUP3 DUP7 PUSH2 0x12EB JUMP JUMPDEST SWAP8 SWAP7 POP POP POP POP POP POP POP JUMP JUMPDEST PUSH1 0x60 DUP4 ISZERO PUSH2 0x12FA JUMPI POP DUP2 PUSH2 0x658 JUMP JUMPDEST DUP3 MLOAD ISZERO PUSH2 0x130A JUMPI DUP3 MLOAD DUP1 DUP5 PUSH1 0x20 ADD REVERT JUMPDEST DUP2 PUSH1 0x40 MLOAD PUSH3 0x461BCD PUSH1 0xE5 SHL DUP2 MSTORE PUSH1 0x4 ADD PUSH2 0x9D7 SWAP2 SWAP1 PUSH2 0x1686 JUMP JUMPDEST PUSH1 0x0 PUSH1 0x20 DUP3 DUP5 SUB SLT ISZERO PUSH2 0x1336 JUMPI PUSH1 0x0 DUP1 REVERT JUMPDEST POP CALLDATALOAD SWAP2 SWAP1 POP JUMP JUMPDEST DUP1 CALLDATALOAD PUSH1 0x1 PUSH1 0x1 PUSH1 0xA0 SHL SUB DUP2 AND DUP2 EQ PUSH2 0x1354 JUMPI PUSH1 0x0 DUP1 REVERT JUMPDEST SWAP2 SWAP1 POP JUMP JUMPDEST PUSH1 0x0 PUSH1 0x20 DUP3 DUP5 SUB SLT ISZERO PUSH2 0x136B JUMPI PUSH1 0x0 DUP1 REVERT JUMPDEST PUSH2 0x658 DUP3 PUSH2 0x133D JUMP JUMPDEST PUSH1 0x0 DUP1 PUSH1 0x40 DUP4 DUP6 SUB SLT ISZERO PUSH2 0x1387 JUMPI PUSH1 0x0 DUP1 REVERT JUMPDEST POP POP DUP1 CALLDATALOAD SWAP3 PUSH1 0x20 SWAP1 SWAP2 ADD CALLDATALOAD SWAP2 POP JUMP JUMPDEST PUSH1 0x0 DUP1 PUSH1 0x0 PUSH1 0x60 DUP5 DUP7 SUB SLT ISZERO PUSH2 0x13AB JUMPI PUSH1 0x0 DUP1 REVERT JUMPDEST POP POP DUP2 CALLDATALOAD SWAP4 PUSH1 0x20 DUP4 ADD CALLDATALOAD SWAP4 POP PUSH1 0x40 SWAP1 SWAP3 ADD CALLDATALOAD SWAP2 SWAP1 POP JUMP JUMPDEST PUSH1 0x0 DUP1 PUSH1 0x0 PUSH1 0x40 DUP5 DUP7 SUB SLT ISZERO PUSH2 0x13D7 JUMPI PUSH1 0x0 DUP1 REVERT JUMPDEST PUSH2 0x13E0 DUP5 PUSH2 0x133D JUMP JUMPDEST SWAP3 POP PUSH1 0x20 DUP5 ADD CALLDATALOAD PUSH8 0xFFFFFFFFFFFFFFFF DUP1 DUP3 GT ISZERO PUSH2 0x13FD JUMPI PUSH1 0x0 DUP1 REVERT JUMPDEST DUP2 DUP7 ADD SWAP2 POP DUP7 PUSH1 0x1F DUP4 ADD SLT PUSH2 0x1411 JUMPI PUSH1 0x0 DUP1 REVERT JUMPDEST DUP2 CALLDATALOAD DUP2 DUP2 GT ISZERO PUSH2 0x1420 JUMPI PUSH1 0x0 DUP1 REVERT JUMPDEST DUP8 PUSH1 0x20 DUP3 PUSH1 0x5 SHL DUP6 ADD ADD GT ISZERO PUSH2 0x1435 JUMPI PUSH1 0x0 DUP1 REVERT JUMPDEST PUSH1 0x20 DUP4 ADD SWAP5 POP DUP1 SWAP4 POP POP POP POP SWAP3 POP SWAP3 POP SWAP3 JUMP JUMPDEST PUSH1 0x0 PUSH1 0x20 DUP3 DUP5 SUB SLT ISZERO PUSH2 0x145A JUMPI PUSH1 0x0 DUP1 REVERT JUMPDEST POP MLOAD SWAP2 SWAP1 POP JUMP JUMPDEST PUSH4 0x4E487B71 PUSH1 0xE0 SHL PUSH1 0x0 MSTORE PUSH1 0x32 PUSH1 0x4 MSTORE PUSH1 0x24 PUSH1 0x0 REVERT JUMPDEST PUSH4 0x4E487B71 PUSH1 0xE0 SHL PUSH1 0x0 MSTORE PUSH1 0x11 PUSH1 0x4 MSTORE PUSH1 0x24 PUSH1 0x0 REVERT JUMPDEST PUSH1 0x0 PUSH1 0x0 NOT DUP3 EQ ISZERO PUSH2 0x14A1 JUMPI PUSH2 0x14A1 PUSH2 0x1477 JUMP JUMPDEST POP PUSH1 0x1 ADD SWAP1 JUMP JUMPDEST PUSH1 0x0 PUSH1 0x1 PUSH1 0x1 PUSH1 0xFB SHL SUB DUP4 GT ISZERO PUSH2 0x14BE JUMPI PUSH1 0x0 DUP1 REVERT JUMPDEST DUP3 PUSH1 0x5 SHL DUP1 DUP6 DUP5 CALLDATACOPY PUSH1 0x0 SWAP3 ADD SWAP2 DUP3 MSTORE POP SWAP3 SWAP2 POP POP JUMP JUMPDEST PUSH4 0x4E487B71 PUSH1 0xE0 SHL PUSH1 0x0 MSTORE PUSH1 0x41 PUSH1 0x4 MSTORE PUSH1 0x24 PUSH1 0x0 REVERT JUMPDEST PUSH1 0x0 PUSH1 0x20 DUP1 DUP4 DUP6 SUB SLT ISZERO PUSH2 0x14FD JUMPI PUSH1 0x0 DUP1 REVERT JUMPDEST DUP3 MLOAD PUSH8 0xFFFFFFFFFFFFFFFF DUP1 DUP3 GT ISZERO PUSH2 0x1515 JUMPI PUSH1 0x0 DUP1 REVERT JUMPDEST DUP2 DUP6 ADD SWAP2 POP DUP6 PUSH1 0x1F DUP4 ADD SLT PUSH2 0x1529 JUMPI PUSH1 0x0 DUP1 REVERT JUMPDEST DUP2 MLOAD DUP2 DUP2 GT ISZERO PUSH2 0x153B JUMPI PUSH2 0x153B PUSH2 0x14D4 JUMP JUMPDEST DUP1 PUSH1 0x5 SHL PUSH1 0x40 MLOAD PUSH1 0x1F NOT PUSH1 0x3F DUP4 ADD AND DUP2 ADD DUP2 DUP2 LT DUP6 DUP3 GT OR ISZERO PUSH2 0x1560 JUMPI PUSH2 0x1560 PUSH2 0x14D4 JUMP JUMPDEST PUSH1 0x40 MSTORE SWAP2 DUP3 MSTORE DUP5 DUP3 ADD SWAP3 POP DUP4 DUP2 ADD DUP6 ADD SWAP2 DUP9 DUP4 GT ISZERO PUSH2 0x157E JUMPI PUSH1 0x0 DUP1 REVERT JUMPDEST SWAP4 DUP6 ADD SWAP4 JUMPDEST DUP3 DUP6 LT ISZERO PUSH2 0x159C JUMPI DUP5 MLOAD DUP5 MSTORE SWAP4 DUP6 ADD SWAP4 SWAP3 DUP6 ADD SWAP3 PUSH2 0x1583 JUMP JUMPDEST SWAP9 SWAP8 POP POP POP POP POP POP POP POP JUMP JUMPDEST PUSH1 0x0 DUP3 DUP3 LT ISZERO PUSH2 0x15BA JUMPI PUSH2 0x15BA PUSH2 0x1477 JUMP JUMPDEST POP SUB SWAP1 JUMP JUMPDEST PUSH1 0x0 DUP2 PUSH1 0x0 NOT DIV DUP4 GT DUP3 ISZERO ISZERO AND ISZERO PUSH2 0x15D9 JUMPI PUSH2 0x15D9 PUSH2 0x1477 JUMP JUMPDEST POP MUL SWAP1 JUMP JUMPDEST PUSH1 0x0 DUP3 PUSH2 0x15FB JUMPI PUSH4 0x4E487B71 PUSH1 0xE0 SHL PUSH1 0x0 MSTORE PUSH1 0x12 PUSH1 0x4 MSTORE PUSH1 0x24 PUSH1 0x0 REVERT JUMPDEST POP DIV SWAP1 JUMP JUMPDEST PUSH1 0x0 DUP3 NOT DUP3 GT ISZERO PUSH2 0x1613 JUMPI PUSH2 0x1613 PUSH2 0x1477 JUMP JUMPDEST POP ADD SWAP1 JUMP JUMPDEST PUSH1 0x0 PUSH1 0x20 DUP3 DUP5 SUB SLT ISZERO PUSH2 0x162A JUMPI PUSH1 0x0 DUP1 REVERT JUMPDEST DUP2 MLOAD DUP1 ISZERO ISZERO DUP2 EQ PUSH2 0x658 JUMPI PUSH1 0x0 DUP1 REVERT JUMPDEST PUSH1 0x0 JUMPDEST DUP4 DUP2 LT ISZERO PUSH2 0x1655 JUMPI DUP2 DUP2 ADD MLOAD DUP4 DUP3 ADD MSTORE PUSH1 0x20 ADD PUSH2 0x163D JUMP JUMPDEST DUP4 DUP2 GT ISZERO PUSH2 0x1664 JUMPI PUSH1 0x0 DUP5 DUP5 ADD MSTORE JUMPDEST POP POP POP POP JUMP JUMPDEST PUSH1 0x0 DUP3 MLOAD PUSH2 0x167C DUP2 DUP5 PUSH1 0x20 DUP8 ADD PUSH2 0x163A JUMP JUMPDEST SWAP2 SWAP1 SWAP2 ADD SWAP3 SWAP2 POP POP JUMP JUMPDEST PUSH1 0x20 DUP2 MSTORE PUSH1 0x0 DUP3 MLOAD DUP1 PUSH1 0x20 DUP5 ADD MSTORE PUSH2 0x16A5 DUP2 PUSH1 0x40 DUP6 ADD PUSH1 0x20 DUP8 ADD PUSH2 0x163A JUMP JUMPDEST PUSH1 0x1F ADD PUSH1 0x1F NOT AND SWAP2 SWAP1 SWAP2 ADD PUSH1 0x40 ADD SWAP3 SWAP2 POP POP JUMP INVALID LOG2 PUSH5 0x6970667358 0x22 SLT KECCAK256 0x28 MSTORE GT PUSH5 0x2ADCE1A38F GASLIMIT MSTORE8 PUSH13 0xF47D7A6BCC5B42255D1CED5D44 0xEE SWAP5 PC EXTCODEHASH 0xD4 LOG0 0xC0 PUSH5 0x736F6C6343 STOP ADDMOD SIGNEXTEND STOP CALLER "},"methodIdentifiers":{"MARKET_SEED(uint256)":"894c2cca","PsyLockContract()":"e3846ac0","RATE_LIMITER(uint256)":"0839efb9","buyCows(address)":"f509ceb5","calculateCowBuy(uint256,uint256,uint256)":"de7a2031","calculateCowBuySimple(uint256,uint256)":"869a6306","calculateCowSell(uint256,uint256)":"cf93302b","calculateRate(address)":"1b51847c","calculateRateIndex(address)":"95e2363b","compoundCows(address)":"b2bc496e","cowsRewards(address)":"526fe5f2","getBalance()":"12065fe0","getCowsSinceLastCompound(address)":"1a196a78","getMyCows(address)":"e7b9f676","getMyMiners(address)":"4b634b06","owner()":"8da5cb5b","ownerRecoverNFT(address,uint256[])":"e2642a96","ownerRecoverToken(address)":"da3f0ad8","renounceOwnership()":"715018a6","seedMarket()":"3c5f07cb","sellCows()":"f82af029","transferOwnership(address)":"f2fde38b","updateRecAddress(address)":"eddbc690","users()":"f2020275"}}}}}