{"contracts/PsyBulls.sol":{"PsyBulls":{"abi":[{"inputs":[{"internalType":"string","name":"_name","type":"string"},{"internalType":"string","name":"_symbol","type":"string"},{"internalType":"uint256","name":"_maxSupply","type":"uint256"},{"internalType":"string","name":"_baseURI","type":"string"},{"internalType":"address","name":"_team1","type":"address"},{"internalType":"address","name":"_team2","type":"address"},{"internalType":"address","name":"_team3","type":"address"},{"internalType":"address","name":"_team4","type":"address"}],"stateMutability":"nonpayable","type":"constructor"},{"anonymous":false,"inputs":[{"indexed":true,"internalType":"address","name":"owner","type":"address"},{"indexed":true,"internalType":"address","name":"approved","type":"address"},{"indexed":true,"internalType":"uint256","name":"tokenId","type":"uint256"}],"name":"Approval","type":"event"},{"anonymous":false,"inputs":[{"indexed":true,"internalType":"address","name":"owner","type":"address"},{"indexed":true,"internalType":"address","name":"operator","type":"address"},{"indexed":false,"internalType":"bool","name":"approved","type":"bool"}],"name":"ApprovalForAll","type":"event"},{"anonymous":false,"inputs":[{"indexed":true,"internalType":"address","name":"previousOwner","type":"address"},{"indexed":true,"internalType":"address","name":"newOwner","type":"address"}],"name":"OwnershipTransferred","type":"event"},{"anonymous":false,"inputs":[{"indexed":true,"internalType":"address","name":"from","type":"address"},{"indexed":true,"internalType":"address","name":"to","type":"address"},{"indexed":true,"internalType":"uint256","name":"tokenId","type":"uint256"}],"name":"Transfer","type":"event"},{"inputs":[{"internalType":"address","name":"to","type":"address"},{"internalType":"uint256","name":"tokenId","type":"uint256"}],"name":"approve","outputs":[],"stateMutability":"nonpayable","type":"function"},{"inputs":[{"internalType":"address","name":"owner","type":"address"}],"name":"balanceOf","outputs":[{"internalType":"uint256","name":"","type":"uint256"}],"stateMutability":"view","type":"function"},{"inputs":[],"name":"endPresale","outputs":[],"stateMutability":"nonpayable","type":"function"},{"inputs":[{"internalType":"uint256","name":"tokenId","type":"uint256"}],"name":"getApproved","outputs":[{"internalType":"address","name":"","type":"address"}],"stateMutability":"view","type":"function"},{"inputs":[{"internalType":"address","name":"owner","type":"address"},{"internalType":"address","name":"operator","type":"address"}],"name":"isApprovedForAll","outputs":[{"internalType":"bool","name":"","type":"bool"}],"stateMutability":"view","type":"function"},{"inputs":[],"name":"maxMintPerTx","outputs":[{"internalType":"uint256","name":"","type":"uint256"}],"stateMutability":"view","type":"function"},{"inputs":[],"name":"maxSupply","outputs":[{"internalType":"uint256","name":"","type":"uint256"}],"stateMutability":"view","type":"function"},{"inputs":[{"internalType":"uint256","name":"_amount","type":"uint256"}],"name":"mint","outputs":[],"stateMutability":"payable","type":"function"},{"inputs":[{"internalType":"uint256","name":"_amount","type":"uint256"}],"name":"mintPresale","outputs":[],"stateMutability":"payable","type":"function"},{"inputs":[],"name":"name","outputs":[{"internalType":"string","name":"","type":"string"}],"stateMutability":"view","type":"function"},{"inputs":[],"name":"owner","outputs":[{"internalType":"address","name":"","type":"address"}],"stateMutability":"view","type":"function"},{"inputs":[{"internalType":"uint256","name":"tokenId","type":"uint256"}],"name":"ownerOf","outputs":[{"internalType":"address","name":"","type":"address"}],"stateMutability":"view","type":"function"},{"inputs":[],"name":"pauseSale","outputs":[],"stateMutability":"nonpayable","type":"function"},{"inputs":[],"name":"presaleDuration","outputs":[{"internalType":"uint256","name":"","type":"uint256"}],"stateMutability":"view","type":"function"},{"inputs":[],"name":"presaleEnd","outputs":[{"internalType":"uint256","name":"","type":"uint256"}],"stateMutability":"view","type":"function"},{"inputs":[],"name":"presaleIsActive","outputs":[{"internalType":"bool","name":"","type":"bool"}],"stateMutability":"view","type":"function"},{"inputs":[],"name":"presaleMaxSpots","outputs":[{"internalType":"uint256","name":"","type":"uint256"}],"stateMutability":"view","type":"function"},{"inputs":[],"name":"presaleMaxTokens","outputs":[{"internalType":"uint256","name":"","type":"uint256"}],"stateMutability":"view","type":"function"},{"inputs":[],"name":"presaleSpotsFilled","outputs":[{"internalType":"uint256","name":"","type":"uint256"}],"stateMutability":"view","type":"function"},{"inputs":[],"name":"presaleStartedAt","outputs":[{"internalType":"uint256","name":"","type":"uint256"}],"stateMutability":"view","type":"function"},{"inputs":[],"name":"price","outputs":[{"internalType":"uint256","name":"","type":"uint256"}],"stateMutability":"view","type":"function"},{"inputs":[],"name":"pricePresale","outputs":[{"internalType":"uint256","name":"","type":"uint256"}],"stateMutability":"view","type":"function"},{"inputs":[],"name":"provenance","outputs":[{"internalType":"string","name":"","type":"string"}],"stateMutability":"view","type":"function"},{"inputs":[{"internalType":"address","name":"_token","type":"address"},{"internalType":"uint256","name":"_tokenId","type":"uint256"}],"name":"recoverNonFungibleToken","outputs":[],"stateMutability":"nonpayable","type":"function"},{"inputs":[{"internalType":"address","name":"_token","type":"address"}],"name":"recoverToken","outputs":[],"stateMutability":"nonpayable","type":"function"},{"inputs":[],"name":"renounceOwnership","outputs":[],"stateMutability":"nonpayable","type":"function"},{"inputs":[{"internalType":"address","name":"_to","type":"address"},{"internalType":"uint256","name":"_amount","type":"uint256"}],"name":"reserve","outputs":[],"stateMutability":"nonpayable","type":"function"},{"inputs":[{"internalType":"address","name":"from","type":"address"},{"internalType":"address","name":"to","type":"address"},{"internalType":"uint256","name":"tokenId","type":"uint256"}],"name":"safeTransferFrom","outputs":[],"stateMutability":"nonpayable","type":"function"},{"inputs":[{"internalType":"address","name":"from","type":"address"},{"internalType":"address","name":"to","type":"address"},{"internalType":"uint256","name":"tokenId","type":"uint256"},{"internalType":"bytes","name":"data","type":"bytes"}],"name":"safeTransferFrom","outputs":[],"stateMutability":"nonpayable","type":"function"},{"inputs":[],"name":"saleIsActive","outputs":[{"internalType":"bool","name":"","type":"bool"}],"stateMutability":"view","type":"function"},{"inputs":[{"internalType":"address","name":"operator","type":"address"},{"internalType":"bool","name":"approved","type":"bool"}],"name":"setApprovalForAll","outputs":[],"stateMutability":"nonpayable","type":"function"},{"inputs":[{"internalType":"string","name":"_uri","type":"string"}],"name":"setBaseURI","outputs":[],"stateMutability":"nonpayable","type":"function"},{"inputs":[{"internalType":"uint256","name":"_price","type":"uint256"}],"name":"setPrice","outputs":[],"stateMutability":"nonpayable","type":"function"},{"inputs":[{"internalType":"uint256","name":"_price","type":"uint256"}],"name":"setPricePresale","outputs":[],"stateMutability":"nonpayable","type":"function"},{"inputs":[{"internalType":"string","name":"provenanceHash","type":"string"}],"name":"setProvenanceHash","outputs":[],"stateMutability":"nonpayable","type":"function"},{"inputs":[],"name":"startSale","outputs":[],"stateMutability":"nonpayable","type":"function"},{"inputs":[{"internalType":"bytes4","name":"interfaceId","type":"bytes4"}],"name":"supportsInterface","outputs":[{"internalType":"bool","name":"","type":"bool"}],"stateMutability":"view","type":"function"},{"inputs":[],"name":"symbol","outputs":[{"internalType":"string","name":"","type":"string"}],"stateMutability":"view","type":"function"},{"inputs":[],"name":"team1","outputs":[{"internalType":"address","name":"","type":"address"}],"stateMutability":"view","type":"function"},{"inputs":[],"name":"team2","outputs":[{"internalType":"address","name":"","type":"address"}],"stateMutability":"view","type":"function"},{"inputs":[],"name":"team3","outputs":[{"internalType":"address","name":"","type":"address"}],"stateMutability":"view","type":"function"},{"inputs":[],"name":"team4","outputs":[{"internalType":"address","name":"","type":"address"}],"stateMutability":"view","type":"function"},{"inputs":[{"internalType":"uint256","name":"index","type":"uint256"}],"name":"tokenByIndex","outputs":[{"internalType":"uint256","name":"","type":"uint256"}],"stateMutability":"view","type":"function"},{"inputs":[{"internalType":"address","name":"owner","type":"address"},{"internalType":"uint256","name":"index","type":"uint256"}],"name":"tokenOfOwnerByIndex","outputs":[{"internalType":"uint256","name":"","type":"uint256"}],"stateMutability":"view","type":"function"},{"inputs":[{"internalType":"uint256","name":"tokenId","type":"uint256"}],"name":"tokenURI","outputs":[{"internalType":"string","name":"","type":"string"}],"stateMutability":"view","type":"function"},{"inputs":[{"internalType":"address","name":"_owner","type":"address"}],"name":"tokensOfOwner","outputs":[{"internalType":"uint256[]","name":"","type":"uint256[]"}],"stateMutability":"view","type":"function"},{"inputs":[{"internalType":"address","name":"user","type":"address"},{"internalType":"uint256","name":"cursor","type":"uint256"},{"internalType":"uint256","name":"size","type":"uint256"}],"name":"tokensOfOwnerBySize","outputs":[{"internalType":"uint256[]","name":"","type":"uint256[]"},{"internalType":"uint256","name":"","type":"uint256"}],"stateMutability":"view","type":"function"},{"inputs":[],"name":"totalSupply","outputs":[{"internalType":"uint256","name":"","type":"uint256"}],"stateMutability":"view","type":"function"},{"inputs":[{"internalType":"address","name":"from","type":"address"},{"internalType":"address","name":"to","type":"address"},{"internalType":"uint256","name":"tokenId","type":"uint256"}],"name":"transferFrom","outputs":[],"stateMutability":"nonpayable","type":"function"},{"inputs":[{"internalType":"address","name":"newOwner","type":"address"}],"name":"transferOwnership","outputs":[],"stateMutability":"nonpayable","type":"function"},{"inputs":[{"internalType":"address[]","name":"_users","type":"address[]"}],"name":"whitelistForPresale","outputs":[],"stateMutability":"nonpayable","type":"function"},{"inputs":[{"internalType":"address","name":"","type":"address"}],"name":"whitelistedForPresale","outputs":[{"internalType":"bool","name":"","type":"bool"}],"stateMutability":"view","type":"function"},{"inputs":[],"name":"withdraw","outputs":[],"stateMutability":"nonpayable","type":"function"},{"stateMutability":"payable","type":"receive"}],"evm":{"bytecode":{"linkReferences":{},"object":"610140604081905260006101208190526200001d91600d91620001a5565b50603260805261151860c0526103e860e0526102586101005267027f7d0bdb920000600e55670214e8348c4f0000600f556010805460ff191690553480156200006557600080fd5b50604051620037d2380380620037d2833981016040819052620000889162000335565b87878682828160009080519060200190620000a5929190620001a5565b508051620000bb906001906020840190620001a5565b505050620000d8620000d26200014f60201b60201c565b62000153565b8051620000ed90600b906020840190620001a5565b50505060a096909652601580546001600160a01b039586166001600160a01b0319918216179091556016805494861694821694909417909355601780549285169284169290921790915560188054919093169116179055506200045892505050565b3390565b600a80546001600160a01b038381166001600160a01b0319831681179093556040519116919082907f8be0079c531659141344cd1fd0a4f28419497f9722a3daafe3b4186f6b6457e090600090a35050565b828054620001b3906200041b565b90600052602060002090601f016020900481019282620001d7576000855562000222565b82601f10620001f257805160ff191683800117855562000222565b8280016001018555821562000222579182015b828111156200022257825182559160200191906001019062000205565b506200023092915062000234565b5090565b5b8082111562000230576000815560010162000235565b634e487b7160e01b600052604160045260246000fd5b600082601f8301126200027357600080fd5b81516001600160401b03808211156200029057620002906200024b565b604051601f8301601f19908116603f01168101908282118183101715620002bb57620002bb6200024b565b81604052838152602092508683858801011115620002d857600080fd5b600091505b83821015620002fc5785820183015181830184015290820190620002dd565b838211156200030e5760008385830101525b9695505050505050565b80516001600160a01b03811681146200033057600080fd5b919050565b600080600080600080600080610100898b0312156200035357600080fd5b88516001600160401b03808211156200036b57600080fd5b620003798c838d0162000261565b995060208b01519150808211156200039057600080fd5b6200039e8c838d0162000261565b985060408b0151975060608b0151915080821115620003bc57600080fd5b50620003cb8b828c0162000261565b955050620003dc60808a0162000318565b9350620003ec60a08a0162000318565b9250620003fc60c08a0162000318565b91506200040c60e08a0162000318565b90509295985092959890939650565b600181811c908216806200043057607f821691505b602082108114156200045257634e487b7160e01b600052602260045260246000fd5b50919050565b60805160a05160c05160e051610100516132ef620004e360003960008181610693015261190b01526000818161058101528181610d8d015281816113eb01528181611b450152611baf0152600081816105ea015261166c0152600081816108de015281816114640152611865015260008181610932015281816114e70152611c3601526132ef6000f3fe60806040526004361061031e5760003560e01c80637e5c49dc116101ab578063b66a0e5d116100f7578063dc5cd7ae11610095578063e985e9c51161006f578063e985e9c514610974578063eb8d2444146109bd578063f2fde38b146109d7578063f759867a146109f757600080fd5b8063dc5cd7ae14610900578063de7fcb1d14610920578063e612c0ad1461095457600080fd5b8063c87b56dd116100d1578063c87b56dd1461086c578063cc47a40b1461088c578063d53f6977146108ac578063d5abeb01146108cc57600080fd5b8063b66a0e5d14610817578063b88d4fde1461082c578063bb0fd1471461084c57600080fd5b806391b7f5ed11610164578063a035b1fe1161013e578063a035b1fe146107b9578063a0712d68146107cf578063a22cb465146107e2578063a43be57b1461080257600080fd5b806391b7f5ed1461076457806395d89b41146107845780639be65a601461079957600080fd5b80637e5c49dc146106815780638462151c146106b5578063854ec1af146106e25780638c8d2ede146107105780638da5cb5b146107305780639147dd1b1461074e57600080fd5b806338b105681161026a57806355367ba9116102235780635a94133c116101fd5780635a94133c1461060c5780636352211e1461062c57806370a082311461064c578063715018a61461066c57600080fd5b806355367ba9146105a357806355f804b3146105b85780635868c32a146105d857600080fd5b806338b10568146104ca5780633ca54fd3146104ea5780633ccfd60b1461051a57806342842e0e1461052f5780634f6ccce71461054f57806351d670a31461056f57600080fd5b80630f7309e8116102d7578063229f3e29116102b1578063229f3e291461045f57806323b872dd146104755780632f745c591461049557806330f72cd4146104b557600080fd5b80630f7309e814610415578063109695231461042a57806318160ddd1461044a57600080fd5b806301ffc9a71461032a57806306fdde031461035f57806307fee2a614610381578063081812fc146103a5578063095ea7b3146103dd5780630ef94a50146103ff57600080fd5b3661032557005b600080fd5b34801561033657600080fd5b5061034a610345366004612b53565b610a0a565b60405190151581526020015b60405180910390f35b34801561036b57600080fd5b50610374610a35565b6040516103569190612bc8565b34801561038d57600080fd5b5061039760125481565b604051908152602001610356565b3480156103b157600080fd5b506103c56103c0366004612bdb565b610ac7565b6040516001600160a01b039091168152602001610356565b3480156103e957600080fd5b506103fd6103f8366004612c10565b610aee565b005b34801561040b57600080fd5b5061039760115481565b34801561042157600080fd5b50610374610c09565b34801561043657600080fd5b506103fd610445366004612cc6565b610c97565b34801561045657600080fd5b50600854610397565b34801561046b57600080fd5b5061039760135481565b34801561048157600080fd5b506103fd610490366004612d0f565b610cb6565b3480156104a157600080fd5b506103976104b0366004612c10565b610ce7565b3480156104c157600080fd5b5061034a610d7d565b3480156104d657600080fd5b506017546103c5906001600160a01b031681565b3480156104f657600080fd5b5061034a610505366004612d4b565b60146020526000908152604090205460ff1681565b34801561052657600080fd5b506103fd610dbc565b34801561053b57600080fd5b506103fd61054a366004612d0f565b610ebc565b34801561055b57600080fd5b5061039761056a366004612bdb565b610ed7565b34801561057b57600080fd5b506103977f000000000000000000000000000000000000000000000000000000000000000081565b3480156105af57600080fd5b506103fd610f6a565b3480156105c457600080fd5b506103fd6105d3366004612cc6565b610f7e565b3480156105e457600080fd5b506103977f000000000000000000000000000000000000000000000000000000000000000081565b34801561061857600080fd5b506103fd610627366004612bdb565b610f99565b34801561063857600080fd5b506103c5610647366004612bdb565b610fe6565b34801561065857600080fd5b50610397610667366004612d4b565b611046565b34801561067857600080fd5b506103fd6110cc565b34801561068d57600080fd5b506103977f000000000000000000000000000000000000000000000000000000000000000081565b3480156106c157600080fd5b506106d56106d0366004612d4b565b6110e0565b6040516103569190612da1565b3480156106ee57600080fd5b506107026106fd366004612db4565b611182565b604051610356929190612de7565b34801561071c57600080fd5b506015546103c5906001600160a01b031681565b34801561073c57600080fd5b50600a546001600160a01b03166103c5565b34801561075a57600080fd5b50610397600f5481565b34801561077057600080fd5b506103fd61077f366004612bdb565b611262565b34801561079057600080fd5b506103746112af565b3480156107a557600080fd5b506103fd6107b4366004612d4b565b6112be565b3480156107c557600080fd5b50610397600e5481565b6103fd6107dd366004612bdb565b611394565b3480156107ee57600080fd5b506103fd6107fd366004612e17565b6115a6565b34801561080e57600080fd5b506103fd6115b1565b34801561082357600080fd5b506103fd611651565b34801561083857600080fd5b506103fd610847366004612e4e565b6116a4565b34801561085857600080fd5b506103fd610867366004612c10565b6116dc565b34801561087857600080fd5b50610374610887366004612bdb565b61174e565b34801561089857600080fd5b506103fd6108a7366004612c10565b611811565b3480156108b857600080fd5b506018546103c5906001600160a01b031681565b3480156108d857600080fd5b506103977f000000000000000000000000000000000000000000000000000000000000000081565b34801561090c57600080fd5b506103fd61091b366004612eca565b6118e4565b34801561092c57600080fd5b506103977f000000000000000000000000000000000000000000000000000000000000000081565b34801561096057600080fd5b506016546103c5906001600160a01b031681565b34801561098057600080fd5b5061034a61098f366004612f3f565b6001600160a01b03918216600090815260056020908152604080832093909416825291909152205460ff1690565b3480156109c957600080fd5b5060105461034a9060ff1681565b3480156109e357600080fd5b506103fd6109f2366004612d4b565b6119e8565b6103fd610a05366004612bdb565b611a5e565b60006001600160e01b0319821663780e9d6360e01b1480610a2f5750610a2f82611cf2565b92915050565b606060008054610a4490612f72565b80601f0160208091040260200160405190810160405280929190818152602001828054610a7090612f72565b8015610abd5780601f10610a9257610100808354040283529160200191610abd565b820191906000526020600020905b815481529060010190602001808311610aa057829003601f168201915b5050505050905090565b6000610ad282611d42565b506000908152600460205260409020546001600160a01b031690565b6000610af982610fe6565b9050806001600160a01b0316836001600160a01b03161415610b6c5760405162461bcd60e51b815260206004820152602160248201527f4552433732313a20617070726f76616c20746f2063757272656e74206f776e656044820152603960f91b60648201526084015b60405180910390fd5b336001600160a01b0382161480610b885750610b88813361098f565b610bfa5760405162461bcd60e51b815260206004820152603e60248201527f4552433732313a20617070726f76652063616c6c6572206973206e6f7420746f60448201527f6b656e206f776e6572206e6f7220617070726f76656420666f7220616c6c00006064820152608401610b63565b610c048383611da1565b505050565b600d8054610c1690612f72565b80601f0160208091040260200160405190810160405280929190818152602001828054610c4290612f72565b8015610c8f5780601f10610c6457610100808354040283529160200191610c8f565b820191906000526020600020905b815481529060010190602001808311610c7257829003601f168201915b505050505081565b610c9f611e0f565b8051610cb290600d906020840190612aa4565b5050565b610cc03382611e69565b610cdc5760405162461bcd60e51b8152600401610b6390612fad565b610c04838383611ee8565b6000610cf283611046565b8210610d545760405162461bcd60e51b815260206004820152602b60248201527f455243373231456e756d657261626c653a206f776e657220696e646578206f7560448201526a74206f6620626f756e647360a81b6064820152608401610b63565b506001600160a01b03919091166000908152600660209081526040808320938352929052205490565b600060135442108015610db757507f0000000000000000000000000000000000000000000000000000000000000000610db560085490565b105b905090565b610dc4611e0f565b6000610dd1600447613027565b6015546040519192506001600160a01b03169082156108fc029083906000818181858888f19350505050158015610e0c573d6000803e3d6000fd5b506016546040516001600160a01b039091169082156108fc029083906000818181858888f19350505050158015610e47573d6000803e3d6000fd5b506017546040516001600160a01b039091169082156108fc029083906000818181858888f19350505050158015610e82573d6000803e3d6000fd5b506018546040516001600160a01b03909116904780156108fc02916000818181858888f19350505050158015610cb2573d6000803e3d6000fd5b610c04838383604051806020016040528060008152506116a4565b6000610ee260085490565b8210610f455760405162461bcd60e51b815260206004820152602c60248201527f455243373231456e756d657261626c653a20676c6f62616c20696e646578206f60448201526b7574206f6620626f756e647360a01b6064820152608401610b63565b60088281548110610f5857610f5861303b565b90600052602060002001549050919050565b610f72611e0f565b6010805460ff19169055565b610f86611e0f565b8051610cb290600b906020840190612aa4565b610fa1611e0f565b60008111610fe15760405162461bcd60e51b815260206004820152600d60248201526c496e76616c696420707269636560981b6044820152606401610b63565b600f55565b6000818152600260205260408120546001600160a01b031680610a2f5760405162461bcd60e51b8152602060048201526018602482015277115490cdcc8c4e881a5b9d985b1a59081d1bdad95b88125160421b6044820152606401610b63565b60006001600160a01b0382166110b05760405162461bcd60e51b815260206004820152602960248201527f4552433732313a2061646472657373207a65726f206973206e6f7420612076616044820152683634b21037bbb732b960b91b6064820152608401610b63565b506001600160a01b031660009081526003602052604090205490565b6110d4611e0f565b6110de600061208f565b565b606060006110ed83611046565b905060008167ffffffffffffffff81111561110a5761110a612c3a565b604051908082528060200260200182016040528015611133578160200160208202803683370190505b50905060005b8281101561117a5761114b8582610ce7565b82828151811061115d5761115d61303b565b60209081029190910101528061117281613051565b915050611139565b509392505050565b60606000828461119187611046565b61119b919061306c565b8111156111b957846111ac87611046565b6111b6919061306c565b90505b60008167ffffffffffffffff8111156111d4576111d4612c3a565b6040519080825280602002602001820160405280156111fd578160200160208202803683370190505b50905060005b8281101561124857611219886104b0838a613083565b82828151811061122b5761122b61303b565b60209081029190910101528061124081613051565b915050611203565b50806112548388613083565b935093505050935093915050565b61126a611e0f565b600081116112aa5760405162461bcd60e51b815260206004820152600d60248201526c496e76616c696420707269636560981b6044820152606401610b63565b600e55565b606060018054610a4490612f72565b6112c6611e0f565b6040516370a0823160e01b81523060048201526000906001600160a01b038316906370a0823190602401602060405180830381865afa15801561130d573d6000803e3d6000fd5b505050506040513d601f19601f82011682018060405250810190611331919061309b565b9050806113805760405162461bcd60e51b815260206004820152601b60248201527f43616e6e6f74207265636f766572207a65726f2062616c616e636500000000006044820152606401610b63565b610cb26001600160a01b03831633836120e1565b60105460ff166113dd5760405162461bcd60e51b815260206004820152601460248201527314d85b19481b9bdd081cdd185c9d1959081e595d60621b6044820152606401610b63565b6013544210158061141657507f000000000000000000000000000000000000000000000000000000000000000061141360085490565b10155b6114625760405162461bcd60e51b815260206004820152601760248201527f5761697420666f722070726573616c6520746f20656e640000000000000000006044820152606401610b63565b7f00000000000000000000000000000000000000000000000000000000000000008161148d60085490565b6114979190613083565b11156114da5760405162461bcd60e51b815260206004820152601260248201527145786365656473206d617820737570706c7960701b6044820152606401610b63565b60008111801561150a57507f00000000000000000000000000000000000000000000000000000000000000008111155b6115475760405162461bcd60e51b815260206004820152600e60248201526d125b9d985b1a5908185b5bdd5b9d60921b6044820152606401610b63565b80600e5461155591906130b4565b34146115995760405162461bcd60e51b815260206004820152601360248201527256616c75652073656e7420213d20707269636560681b6044820152606401610b63565b6115a33382612133565b50565b610cb233838361216e565b6115b9611e0f565b6000601254116116025760405162461bcd60e51b815260206004820152601460248201527314d85b19481b9bdd081cdd185c9d1959081e595d60621b6044820152606401610b63565b601354421061164b5760405162461bcd60e51b8152602060048201526015602482015274141c995cd85b1948185b1c9958591e48195b991959605a1b6044820152606401610b63565b42601355565b611659611e0f565b60125461169557426012819055611691907f000000000000000000000000000000000000000000000000000000000000000090613083565b6013555b6010805460ff19166001179055565b6116ae3383611e69565b6116ca5760405162461bcd60e51b8152600401610b6390612fad565b6116d68484848461223d565b50505050565b6116e4611e0f565b6040516323b872dd60e01b8152306004820152336024820152604481018290526001600160a01b038316906323b872dd90606401600060405180830381600087803b15801561173257600080fd5b505af1158015611746573d6000803e3d6000fd5b505050505050565b6000818152600260205260409020546060906001600160a01b03166117b55760405162461bcd60e51b815260206004820152601f60248201527f55524920717565727920666f72206e6f6e6578697374656e7420746f6b656e006044820152606401610b63565b6000600b80546117c490612f72565b9050116117e05760405180602001604052806000815250610a2f565b600b6117eb83612270565b6040516020016117fc9291906130ef565b60405160208183030381529060405292915050565b611819611e0f565b60105460ff16156118635760405162461bcd60e51b8152602060048201526014602482015273135a5b9d08185b1c9958591e481cdd185c9d195960621b6044820152606401610b63565b7f00000000000000000000000000000000000000000000000000000000000000008161188e60085490565b6118989190613083565b11156118da5760405162461bcd60e51b815260206004820152601160248201527045786365656473206d6178537570706c7960781b6044820152606401610b63565b610cb28282612133565b6118ec611e0f565b81819050601160008282546119019190613083565b90915550506011547f000000000000000000000000000000000000000000000000000000000000000010156119785760405162461bcd60e51b815260206004820152601960248201527f45786365656473206d61782070726573616c652073706f7473000000000000006044820152606401610b63565b60005b81811015610c045760016014600085858581811061199b5761199b61303b565b90506020020160208101906119b09190612d4b565b6001600160a01b031681526020810191909152604001600020805460ff19169115159190911790556119e181613051565b905061197b565b6119f0611e0f565b6001600160a01b038116611a555760405162461bcd60e51b815260206004820152602660248201527f4f776e61626c653a206e6577206f776e657220697320746865207a65726f206160448201526564647265737360d01b6064820152608401610b63565b6115a38161208f565b3360009081526014602052604090205460ff16611ab05760405162461bcd60e51b815260206004820152601060248201526f13db9b1e481dda1a5d195b1a5cdd195960821b6044820152606401610b63565b60105460ff16611b025760405162461bcd60e51b815260206004820152601760248201527f50726573616c65206e6f742073746172746564207965740000000000000000006044820152606401610b63565b6013544210611b435760405162461bcd60e51b815260206004820152600d60248201526c141c995cd85b1948195b991959609a1b6044820152606401610b63565b7f0000000000000000000000000000000000000000000000000000000000000000611b6d60085490565b10611bad5760405162461bcd60e51b815260206004820152601060248201526f141c995cd85b19481cdbdb19081bdd5d60821b6044820152606401610b63565b7f000000000000000000000000000000000000000000000000000000000000000081611bd860085490565b611be29190613083565b1115611c295760405162461bcd60e51b8152602060048201526016602482015275457863656564732070726573616c6520737570706c7960501b6044820152606401610b63565b600081118015611c5957507f00000000000000000000000000000000000000000000000000000000000000008111155b611c965760405162461bcd60e51b815260206004820152600e60248201526d125b9d985b1a5908185b5bdd5b9d60921b6044820152606401610b63565b80600f54611ca491906130b4565b34146115995760405162461bcd60e51b815260206004820152601b60248201527f56616c75652073656e7420213d2070726573616c6520707269636500000000006044820152606401610b63565b60006001600160e01b031982166380ac58cd60e01b1480611d2357506001600160e01b03198216635b5e139f60e01b145b80610a2f57506301ffc9a760e01b6001600160e01b0319831614610a2f565b6000818152600260205260409020546001600160a01b03166115a35760405162461bcd60e51b8152602060048201526018602482015277115490cdcc8c4e881a5b9d985b1a59081d1bdad95b88125160421b6044820152606401610b63565b600081815260046020526040902080546001600160a01b0319166001600160a01b0384169081179091558190611dd682610fe6565b6001600160a01b03167f8c5be1e5ebec7d5bd14f71427d1e84f3dd0314c0f7b2291e5b200ac8c7c3b92560405160405180910390a45050565b600a546001600160a01b031633146110de5760405162461bcd60e51b815260206004820181905260248201527f4f776e61626c653a2063616c6c6572206973206e6f7420746865206f776e65726044820152606401610b63565b600080611e7583610fe6565b9050806001600160a01b0316846001600160a01b03161480611ebc57506001600160a01b0380821660009081526005602090815260408083209388168352929052205460ff165b80611ee05750836001600160a01b0316611ed584610ac7565b6001600160a01b0316145b949350505050565b826001600160a01b0316611efb82610fe6565b6001600160a01b031614611f5f5760405162461bcd60e51b815260206004820152602560248201527f4552433732313a207472616e736665722066726f6d20696e636f72726563742060448201526437bbb732b960d91b6064820152608401610b63565b6001600160a01b038216611fc15760405162461bcd60e51b8152602060048201526024808201527f4552433732313a207472616e7366657220746f20746865207a65726f206164646044820152637265737360e01b6064820152608401610b63565b611fcc83838361236e565b611fd7600082611da1565b6001600160a01b038316600090815260036020526040812080546001929061200090849061306c565b90915550506001600160a01b038216600090815260036020526040812080546001929061202e908490613083565b909155505060008181526002602052604080822080546001600160a01b0319166001600160a01b0386811691821790925591518493918716917fddf252ad1be2c89b69c2b068fc378daa952ba7f163c4a11628f55a4df523b3ef91a4505050565b600a80546001600160a01b038381166001600160a01b0319831681179093556040519116919082907f8be0079c531659141344cd1fd0a4f28419497f9722a3daafe3b4186f6b6457e090600090a35050565b604080516001600160a01b038416602482015260448082018490528251808303909101815260649091019091526020810180516001600160e01b031663a9059cbb60e01b179052610c04908490612426565b60005b81811015610c045761214c600c80546001019055565b61215e83612159600c5490565b6124f8565b61216781613051565b9050612136565b816001600160a01b0316836001600160a01b031614156121d05760405162461bcd60e51b815260206004820152601960248201527f4552433732313a20617070726f766520746f2063616c6c6572000000000000006044820152606401610b63565b6001600160a01b03838116600081815260056020908152604080832094871680845294825291829020805460ff191686151590811790915591519182527f17307eab39ab6107e8899845ad3d59bd9653f200f220920489ca2b5937696c31910160405180910390a3505050565b612248848484611ee8565b61225484848484612512565b6116d65760405162461bcd60e51b8152600401610b63906131aa565b6060816122945750506040805180820190915260018152600360fc1b602082015290565b8160005b81156122be57806122a881613051565b91506122b79050600a83613027565b9150612298565b60008167ffffffffffffffff8111156122d9576122d9612c3a565b6040519080825280601f01601f191660200182016040528015612303576020820181803683370190505b5090505b8415611ee05761231860018361306c565b9150612325600a866131fc565b612330906030613083565b60f81b8183815181106123455761234561303b565b60200101906001600160f81b031916908160001a905350612367600a86613027565b9450612307565b6001600160a01b0383166123c9576123c481600880546000838152600960205260408120829055600182018355919091527ff3f7a9fe364faab93b216da50a3214154f22a0a2b415b23a84c8169e8b636ee30155565b6123ec565b816001600160a01b0316836001600160a01b0316146123ec576123ec8382612610565b6001600160a01b03821661240357610c04816126ad565b826001600160a01b0316826001600160a01b031614610c0457610c04828261275c565b600061247b826040518060400160405280602081526020017f5361666545524332303a206c6f772d6c6576656c2063616c6c206661696c6564815250856001600160a01b03166127a09092919063ffffffff16565b805190915015610c0457808060200190518101906124999190613210565b610c045760405162461bcd60e51b815260206004820152602a60248201527f5361666545524332303a204552433230206f7065726174696f6e20646964206e6044820152691bdd081cdd58d8d9595960b21b6064820152608401610b63565b610cb28282604051806020016040528060008152506127b9565b60006001600160a01b0384163b1561260557604051630a85bd0160e11b81526001600160a01b0385169063150b7a029061255690339089908890889060040161322d565b6020604051808303816000875af1925050508015612591575060408051601f3d908101601f1916820190925261258e9181019061326a565b60015b6125eb573d8080156125bf576040519150601f19603f3d011682016040523d82523d6000602084013e6125c4565b606091505b5080516125e35760405162461bcd60e51b8152600401610b63906131aa565b805181602001fd5b6001600160e01b031916630a85bd0160e11b149050611ee0565b506001949350505050565b6000600161261d84611046565b612627919061306c565b60008381526007602052604090205490915080821461267a576001600160a01b03841660009081526006602090815260408083208584528252808320548484528184208190558352600790915290208190555b5060009182526007602090815260408084208490556001600160a01b039094168352600681528383209183525290812055565b6008546000906126bf9060019061306c565b600083815260096020526040812054600880549394509092849081106126e7576126e761303b565b9060005260206000200154905080600883815481106127085761270861303b565b600091825260208083209091019290925582815260099091526040808220849055858252812055600880548061274057612740613287565b6001900381819060005260206000200160009055905550505050565b600061276783611046565b6001600160a01b039093166000908152600660209081526040808320868452825280832085905593825260079052919091209190915550565b60606127af84846000856127ec565b90505b9392505050565b6127c3838361291d565b6127d06000848484612512565b610c045760405162461bcd60e51b8152600401610b63906131aa565b60608247101561284d5760405162461bcd60e51b815260206004820152602660248201527f416464726573733a20696e73756666696369656e742062616c616e636520666f6044820152651c8818d85b1b60d21b6064820152608401610b63565b6001600160a01b0385163b6128a45760405162461bcd60e51b815260206004820152601d60248201527f416464726573733a2063616c6c20746f206e6f6e2d636f6e74726163740000006044820152606401610b63565b600080866001600160a01b031685876040516128c0919061329d565b60006040518083038185875af1925050503d80600081146128fd576040519150601f19603f3d011682016040523d82523d6000602084013e612902565b606091505b5091509150612912828286612a6b565b979650505050505050565b6001600160a01b0382166129735760405162461bcd60e51b815260206004820181905260248201527f4552433732313a206d696e7420746f20746865207a65726f20616464726573736044820152606401610b63565b6000818152600260205260409020546001600160a01b0316156129d85760405162461bcd60e51b815260206004820152601c60248201527f4552433732313a20746f6b656e20616c7265616479206d696e746564000000006044820152606401610b63565b6129e46000838361236e565b6001600160a01b0382166000908152600360205260408120805460019290612a0d908490613083565b909155505060008181526002602052604080822080546001600160a01b0319166001600160a01b03861690811790915590518392907fddf252ad1be2c89b69c2b068fc378daa952ba7f163c4a11628f55a4df523b3ef908290a45050565b60608315612a7a5750816127b2565b825115612a8a5782518084602001fd5b8160405162461bcd60e51b8152600401610b639190612bc8565b828054612ab090612f72565b90600052602060002090601f016020900481019282612ad25760008555612b18565b82601f10612aeb57805160ff1916838001178555612b18565b82800160010185558215612b18579182015b82811115612b18578251825591602001919060010190612afd565b50612b24929150612b28565b5090565b5b80821115612b245760008155600101612b29565b6001600160e01b0319811681146115a357600080fd5b600060208284031215612b6557600080fd5b81356127b281612b3d565b60005b83811015612b8b578181015183820152602001612b73565b838111156116d65750506000910152565b60008151808452612bb4816020860160208601612b70565b601f01601f19169290920160200192915050565b6020815260006127b26020830184612b9c565b600060208284031215612bed57600080fd5b5035919050565b80356001600160a01b0381168114612c0b57600080fd5b919050565b60008060408385031215612c2357600080fd5b612c2c83612bf4565b946020939093013593505050565b634e487b7160e01b600052604160045260246000fd5b600067ffffffffffffffff80841115612c6b57612c6b612c3a565b604051601f8501601f19908116603f01168101908282118183101715612c9357612c93612c3a565b81604052809350858152868686011115612cac57600080fd5b858560208301376000602087830101525050509392505050565b600060208284031215612cd857600080fd5b813567ffffffffffffffff811115612cef57600080fd5b8201601f81018413612d0057600080fd5b611ee084823560208401612c50565b600080600060608486031215612d2457600080fd5b612d2d84612bf4565b9250612d3b60208501612bf4565b9150604084013590509250925092565b600060208284031215612d5d57600080fd5b6127b282612bf4565b600081518084526020808501945080840160005b83811015612d9657815187529582019590820190600101612d7a565b509495945050505050565b6020815260006127b26020830184612d66565b600080600060608486031215612dc957600080fd5b612dd284612bf4565b95602085013595506040909401359392505050565b604081526000612dfa6040830185612d66565b90508260208301529392505050565b80151581146115a357600080fd5b60008060408385031215612e2a57600080fd5b612e3383612bf4565b91506020830135612e4381612e09565b809150509250929050565b60008060008060808587031215612e6457600080fd5b612e6d85612bf4565b9350612e7b60208601612bf4565b925060408501359150606085013567ffffffffffffffff811115612e9e57600080fd5b8501601f81018713612eaf57600080fd5b612ebe87823560208401612c50565b91505092959194509250565b60008060208385031215612edd57600080fd5b823567ffffffffffffffff80821115612ef557600080fd5b818501915085601f830112612f0957600080fd5b813581811115612f1857600080fd5b8660208260051b8501011115612f2d57600080fd5b60209290920196919550909350505050565b60008060408385031215612f5257600080fd5b612f5b83612bf4565b9150612f6960208401612bf4565b90509250929050565b600181811c90821680612f8657607f821691505b60208210811415612fa757634e487b7160e01b600052602260045260246000fd5b50919050565b6020808252602e908201527f4552433732313a2063616c6c6572206973206e6f7420746f6b656e206f776e6560408201526d1c881b9bdc88185c1c1c9bdd995960921b606082015260800190565b634e487b7160e01b600052601260045260246000fd5b634e487b7160e01b600052601160045260246000fd5b60008261303657613036612ffb565b500490565b634e487b7160e01b600052603260045260246000fd5b600060001982141561306557613065613011565b5060010190565b60008282101561307e5761307e613011565b500390565b6000821982111561309657613096613011565b500190565b6000602082840312156130ad57600080fd5b5051919050565b60008160001904831182151516156130ce576130ce613011565b500290565b600081516130e5818560208601612b70565b9290920192915050565b600080845481600182811c91508083168061310b57607f831692505b602080841082141561312b57634e487b7160e01b86526022600452602486fd5b81801561313f57600181146131505761317d565b60ff1986168952848901965061317d565b60008b81526020902060005b868110156131755781548b82015290850190830161315c565b505084890196505b5050505050506131a161319082866130d3565b64173539b7b760d91b815260050190565b95945050505050565b60208082526032908201527f4552433732313a207472616e7366657220746f206e6f6e20455243373231526560408201527131b2b4bb32b91034b6b83632b6b2b73a32b960711b606082015260800190565b60008261320b5761320b612ffb565b500690565b60006020828403121561322257600080fd5b81516127b281612e09565b6001600160a01b038581168252841660208201526040810183905260806060820181905260009061326090830184612b9c565b9695505050505050565b60006020828403121561327c57600080fd5b81516127b281612b3d565b634e487b7160e01b600052603160045260246000fd5b600082516132af818460208701612b70565b919091019291505056fea2646970667358221220978dfefa025862c9e3a324a0a5c5bb119aa59b0b327611c2ca2024658b8e694f64736f6c634300080b0033","opcodes":"PUSH2 0x140 PUSH1 0x40 DUP2 SWAP1 MSTORE PUSH1 0x0 PUSH2 0x120 DUP2 SWAP1 MSTORE PUSH3 0x1D SWAP2 PUSH1 0xD SWAP2 PUSH3 0x1A5 JUMP JUMPDEST POP PUSH1 0x32 PUSH1 0x80 MSTORE PUSH2 0x1518 PUSH1 0xC0 MSTORE PUSH2 0x3E8 PUSH1 0xE0 MSTORE PUSH2 0x258 PUSH2 0x100 MSTORE PUSH8 0x27F7D0BDB920000 PUSH1 0xE SSTORE PUSH8 0x214E8348C4F0000 PUSH1 0xF SSTORE PUSH1 0x10 DUP1 SLOAD PUSH1 0xFF NOT AND SWAP1 SSTORE CALLVALUE DUP1 ISZERO PUSH3 0x65 JUMPI PUSH1 0x0 DUP1 REVERT JUMPDEST POP PUSH1 0x40 MLOAD PUSH3 0x37D2 CODESIZE SUB DUP1 PUSH3 0x37D2 DUP4 CODECOPY DUP2 ADD PUSH1 0x40 DUP2 SWAP1 MSTORE PUSH3 0x88 SWAP2 PUSH3 0x335 JUMP JUMPDEST DUP8 DUP8 DUP7 DUP3 DUP3 DUP2 PUSH1 0x0 SWAP1 DUP1 MLOAD SWAP1 PUSH1 0x20 ADD SWAP1 PUSH3 0xA5 SWAP3 SWAP2 SWAP1 PUSH3 0x1A5 JUMP JUMPDEST POP DUP1 MLOAD PUSH3 0xBB SWAP1 PUSH1 0x1 SWAP1 PUSH1 0x20 DUP5 ADD SWAP1 PUSH3 0x1A5 JUMP JUMPDEST POP POP POP PUSH3 0xD8 PUSH3 0xD2 PUSH3 0x14F PUSH1 0x20 SHL PUSH1 0x20 SHR JUMP JUMPDEST PUSH3 0x153 JUMP JUMPDEST DUP1 MLOAD PUSH3 0xED SWAP1 PUSH1 0xB SWAP1 PUSH1 0x20 DUP5 ADD SWAP1 PUSH3 0x1A5 JUMP JUMPDEST POP POP POP PUSH1 0xA0 SWAP7 SWAP1 SWAP7 MSTORE PUSH1 0x15 DUP1 SLOAD PUSH1 0x1 PUSH1 0x1 PUSH1 0xA0 SHL SUB SWAP6 DUP7 AND PUSH1 0x1 PUSH1 0x1 PUSH1 0xA0 SHL SUB NOT SWAP2 DUP3 AND OR SWAP1 SWAP2 SSTORE PUSH1 0x16 DUP1 SLOAD SWAP5 DUP7 AND SWAP5 DUP3 AND SWAP5 SWAP1 SWAP5 OR SWAP1 SWAP4 SSTORE PUSH1 0x17 DUP1 SLOAD SWAP3 DUP6 AND SWAP3 DUP5 AND SWAP3 SWAP1 SWAP3 OR SWAP1 SWAP2 SSTORE PUSH1 0x18 DUP1 SLOAD SWAP2 SWAP1 SWAP4 AND SWAP2 AND OR SWAP1 SSTORE POP PUSH3 0x458 SWAP3 POP POP POP JUMP JUMPDEST CALLER SWAP1 JUMP JUMPDEST PUSH1 0xA DUP1 SLOAD PUSH1 0x1 PUSH1 0x1 PUSH1 0xA0 SHL SUB DUP4 DUP2 AND PUSH1 0x1 PUSH1 0x1 PUSH1 0xA0 SHL SUB NOT DUP4 AND DUP2 OR SWAP1 SWAP4 SSTORE PUSH1 0x40 MLOAD SWAP2 AND SWAP2 SWAP1 DUP3 SWAP1 PUSH32 0x8BE0079C531659141344CD1FD0A4F28419497F9722A3DAAFE3B4186F6B6457E0 SWAP1 PUSH1 0x0 SWAP1 LOG3 POP POP JUMP JUMPDEST DUP3 DUP1 SLOAD PUSH3 0x1B3 SWAP1 PUSH3 0x41B JUMP JUMPDEST SWAP1 PUSH1 0x0 MSTORE PUSH1 0x20 PUSH1 0x0 KECCAK256 SWAP1 PUSH1 0x1F ADD PUSH1 0x20 SWAP1 DIV DUP2 ADD SWAP3 DUP3 PUSH3 0x1D7 JUMPI PUSH1 0x0 DUP6 SSTORE PUSH3 0x222 JUMP JUMPDEST DUP3 PUSH1 0x1F LT PUSH3 0x1F2 JUMPI DUP1 MLOAD PUSH1 0xFF NOT AND DUP4 DUP1 ADD OR DUP6 SSTORE PUSH3 0x222 JUMP JUMPDEST DUP3 DUP1 ADD PUSH1 0x1 ADD DUP6 SSTORE DUP3 ISZERO PUSH3 0x222 JUMPI SWAP2 DUP3 ADD JUMPDEST DUP3 DUP2 GT ISZERO PUSH3 0x222 JUMPI DUP3 MLOAD DUP3 SSTORE SWAP2 PUSH1 0x20 ADD SWAP2 SWAP1 PUSH1 0x1 ADD SWAP1 PUSH3 0x205 JUMP JUMPDEST POP PUSH3 0x230 SWAP3 SWAP2 POP PUSH3 0x234 JUMP JUMPDEST POP SWAP1 JUMP JUMPDEST JUMPDEST DUP1 DUP3 GT ISZERO PUSH3 0x230 JUMPI PUSH1 0x0 DUP2 SSTORE PUSH1 0x1 ADD PUSH3 0x235 JUMP JUMPDEST PUSH4 0x4E487B71 PUSH1 0xE0 SHL PUSH1 0x0 MSTORE PUSH1 0x41 PUSH1 0x4 MSTORE PUSH1 0x24 PUSH1 0x0 REVERT JUMPDEST PUSH1 0x0 DUP3 PUSH1 0x1F DUP4 ADD SLT PUSH3 0x273 JUMPI PUSH1 0x0 DUP1 REVERT JUMPDEST DUP2 MLOAD PUSH1 0x1 PUSH1 0x1 PUSH1 0x40 SHL SUB DUP1 DUP3 GT ISZERO PUSH3 0x290 JUMPI PUSH3 0x290 PUSH3 0x24B JUMP JUMPDEST PUSH1 0x40 MLOAD PUSH1 0x1F DUP4 ADD PUSH1 0x1F NOT SWAP1 DUP2 AND PUSH1 0x3F ADD AND DUP2 ADD SWAP1 DUP3 DUP3 GT DUP2 DUP4 LT OR ISZERO PUSH3 0x2BB JUMPI PUSH3 0x2BB PUSH3 0x24B JUMP JUMPDEST DUP2 PUSH1 0x40 MSTORE DUP4 DUP2 MSTORE PUSH1 0x20 SWAP3 POP DUP7 DUP4 DUP6 DUP9 ADD ADD GT ISZERO PUSH3 0x2D8 JUMPI PUSH1 0x0 DUP1 REVERT JUMPDEST PUSH1 0x0 SWAP2 POP JUMPDEST DUP4 DUP3 LT ISZERO PUSH3 0x2FC JUMPI DUP6 DUP3 ADD DUP4 ADD MLOAD DUP2 DUP4 ADD DUP5 ADD MSTORE SWAP1 DUP3 ADD SWAP1 PUSH3 0x2DD JUMP JUMPDEST DUP4 DUP3 GT ISZERO PUSH3 0x30E JUMPI PUSH1 0x0 DUP4 DUP6 DUP4 ADD ADD MSTORE JUMPDEST SWAP7 SWAP6 POP POP POP POP POP POP JUMP JUMPDEST DUP1 MLOAD PUSH1 0x1 PUSH1 0x1 PUSH1 0xA0 SHL SUB DUP2 AND DUP2 EQ PUSH3 0x330 JUMPI PUSH1 0x0 DUP1 REVERT JUMPDEST SWAP2 SWAP1 POP JUMP JUMPDEST PUSH1 0x0 DUP1 PUSH1 0x0 DUP1 PUSH1 0x0 DUP1 PUSH1 0x0 DUP1 PUSH2 0x100 DUP10 DUP12 SUB SLT ISZERO PUSH3 0x353 JUMPI PUSH1 0x0 DUP1 REVERT JUMPDEST DUP9 MLOAD PUSH1 0x1 PUSH1 0x1 PUSH1 0x40 SHL SUB DUP1 DUP3 GT ISZERO PUSH3 0x36B JUMPI PUSH1 0x0 DUP1 REVERT JUMPDEST PUSH3 0x379 DUP13 DUP4 DUP14 ADD PUSH3 0x261 JUMP JUMPDEST SWAP10 POP PUSH1 0x20 DUP12 ADD MLOAD SWAP2 POP DUP1 DUP3 GT ISZERO PUSH3 0x390 JUMPI PUSH1 0x0 DUP1 REVERT JUMPDEST PUSH3 0x39E DUP13 DUP4 DUP14 ADD PUSH3 0x261 JUMP JUMPDEST SWAP9 POP PUSH1 0x40 DUP12 ADD MLOAD SWAP8 POP PUSH1 0x60 DUP12 ADD MLOAD SWAP2 POP DUP1 DUP3 GT ISZERO PUSH3 0x3BC JUMPI PUSH1 0x0 DUP1 REVERT JUMPDEST POP PUSH3 0x3CB DUP12 DUP3 DUP13 ADD PUSH3 0x261 JUMP JUMPDEST SWAP6 POP POP PUSH3 0x3DC PUSH1 0x80 DUP11 ADD PUSH3 0x318 JUMP JUMPDEST SWAP4 POP PUSH3 0x3EC PUSH1 0xA0 DUP11 ADD PUSH3 0x318 JUMP JUMPDEST SWAP3 POP PUSH3 0x3FC PUSH1 0xC0 DUP11 ADD PUSH3 0x318 JUMP JUMPDEST SWAP2 POP PUSH3 0x40C PUSH1 0xE0 DUP11 ADD PUSH3 0x318 JUMP JUMPDEST SWAP1 POP SWAP3 SWAP6 SWAP9 POP SWAP3 SWAP6 SWAP9 SWAP1 SWAP4 SWAP7 POP JUMP JUMPDEST PUSH1 0x1 DUP2 DUP2 SHR SWAP1 DUP3 AND DUP1 PUSH3 0x430 JUMPI PUSH1 0x7F DUP3 AND SWAP2 POP JUMPDEST PUSH1 0x20 DUP3 LT DUP2 EQ ISZERO PUSH3 0x452 JUMPI PUSH4 0x4E487B71 PUSH1 0xE0 SHL PUSH1 0x0 MSTORE PUSH1 0x22 PUSH1 0x4 MSTORE PUSH1 0x24 PUSH1 0x0 REVERT JUMPDEST POP SWAP2 SWAP1 POP JUMP JUMPDEST PUSH1 0x80 MLOAD PUSH1 0xA0 MLOAD PUSH1 0xC0 MLOAD PUSH1 0xE0 MLOAD PUSH2 0x100 MLOAD PUSH2 0x32EF PUSH3 0x4E3 PUSH1 0x0 CODECOPY PUSH1 0x0 DUP2 DUP2 PUSH2 0x693 ADD MSTORE PUSH2 0x190B ADD MSTORE PUSH1 0x0 DUP2 DUP2 PUSH2 0x581 ADD MSTORE DUP2 DUP2 PUSH2 0xD8D ADD MSTORE DUP2 DUP2 PUSH2 0x13EB ADD MSTORE DUP2 DUP2 PUSH2 0x1B45 ADD MSTORE PUSH2 0x1BAF ADD MSTORE PUSH1 0x0 DUP2 DUP2 PUSH2 0x5EA ADD MSTORE PUSH2 0x166C ADD MSTORE PUSH1 0x0 DUP2 DUP2 PUSH2 0x8DE ADD MSTORE DUP2 DUP2 PUSH2 0x1464 ADD MSTORE PUSH2 0x1865 ADD MSTORE PUSH1 0x0 DUP2 DUP2 PUSH2 0x932 ADD MSTORE DUP2 DUP2 PUSH2 0x14E7 ADD MSTORE PUSH2 0x1C36 ADD MSTORE PUSH2 0x32EF PUSH1 0x0 RETURN INVALID PUSH1 0x80 PUSH1 0x40 MSTORE PUSH1 0x4 CALLDATASIZE LT PUSH2 0x31E JUMPI PUSH1 0x0 CALLDATALOAD PUSH1 0xE0 SHR DUP1 PUSH4 0x7E5C49DC GT PUSH2 0x1AB JUMPI DUP1 PUSH4 0xB66A0E5D GT PUSH2 0xF7 JUMPI DUP1 PUSH4 0xDC5CD7AE GT PUSH2 0x95 JUMPI DUP1 PUSH4 0xE985E9C5 GT PUSH2 0x6F JUMPI DUP1 PUSH4 0xE985E9C5 EQ PUSH2 0x974 JUMPI DUP1 PUSH4 0xEB8D2444 EQ PUSH2 0x9BD JUMPI DUP1 PUSH4 0xF2FDE38B EQ PUSH2 0x9D7 JUMPI DUP1 PUSH4 0xF759867A EQ PUSH2 0x9F7 JUMPI PUSH1 0x0 DUP1 REVERT JUMPDEST DUP1 PUSH4 0xDC5CD7AE EQ PUSH2 0x900 JUMPI DUP1 PUSH4 0xDE7FCB1D EQ PUSH2 0x920 JUMPI DUP1 PUSH4 0xE612C0AD EQ PUSH2 0x954 JUMPI PUSH1 0x0 DUP1 REVERT JUMPDEST DUP1 PUSH4 0xC87B56DD GT PUSH2 0xD1 JUMPI DUP1 PUSH4 0xC87B56DD EQ PUSH2 0x86C JUMPI DUP1 PUSH4 0xCC47A40B EQ PUSH2 0x88C JUMPI DUP1 PUSH4 0xD53F6977 EQ PUSH2 0x8AC JUMPI DUP1 PUSH4 0xD5ABEB01 EQ PUSH2 0x8CC JUMPI PUSH1 0x0 DUP1 REVERT JUMPDEST DUP1 PUSH4 0xB66A0E5D EQ PUSH2 0x817 JUMPI DUP1 PUSH4 0xB88D4FDE EQ PUSH2 0x82C JUMPI DUP1 PUSH4 0xBB0FD147 EQ PUSH2 0x84C JUMPI PUSH1 0x0 DUP1 REVERT JUMPDEST DUP1 PUSH4 0x91B7F5ED GT PUSH2 0x164 JUMPI DUP1 PUSH4 0xA035B1FE GT PUSH2 0x13E JUMPI DUP1 PUSH4 0xA035B1FE EQ PUSH2 0x7B9 JUMPI DUP1 PUSH4 0xA0712D68 EQ PUSH2 0x7CF JUMPI DUP1 PUSH4 0xA22CB465 EQ PUSH2 0x7E2 JUMPI DUP1 PUSH4 0xA43BE57B EQ PUSH2 0x802 JUMPI PUSH1 0x0 DUP1 REVERT JUMPDEST DUP1 PUSH4 0x91B7F5ED EQ PUSH2 0x764 JUMPI DUP1 PUSH4 0x95D89B41 EQ PUSH2 0x784 JUMPI DUP1 PUSH4 0x9BE65A60 EQ PUSH2 0x799 JUMPI PUSH1 0x0 DUP1 REVERT JUMPDEST DUP1 PUSH4 0x7E5C49DC EQ PUSH2 0x681 JUMPI DUP1 PUSH4 0x8462151C EQ PUSH2 0x6B5 JUMPI DUP1 PUSH4 0x854EC1AF EQ PUSH2 0x6E2 JUMPI DUP1 PUSH4 0x8C8D2EDE EQ PUSH2 0x710 JUMPI DUP1 PUSH4 0x8DA5CB5B EQ PUSH2 0x730 JUMPI DUP1 PUSH4 0x9147DD1B EQ PUSH2 0x74E JUMPI PUSH1 0x0 DUP1 REVERT JUMPDEST DUP1 PUSH4 0x38B10568 GT PUSH2 0x26A JUMPI DUP1 PUSH4 0x55367BA9 GT PUSH2 0x223 JUMPI DUP1 PUSH4 0x5A94133C GT PUSH2 0x1FD JUMPI DUP1 PUSH4 0x5A94133C EQ PUSH2 0x60C JUMPI DUP1 PUSH4 0x6352211E EQ PUSH2 0x62C JUMPI DUP1 PUSH4 0x70A08231 EQ PUSH2 0x64C JUMPI DUP1 PUSH4 0x715018A6 EQ PUSH2 0x66C JUMPI PUSH1 0x0 DUP1 REVERT JUMPDEST DUP1 PUSH4 0x55367BA9 EQ PUSH2 0x5A3 JUMPI DUP1 PUSH4 0x55F804B3 EQ PUSH2 0x5B8 JUMPI DUP1 PUSH4 0x5868C32A EQ PUSH2 0x5D8 JUMPI PUSH1 0x0 DUP1 REVERT JUMPDEST DUP1 PUSH4 0x38B10568 EQ PUSH2 0x4CA JUMPI DUP1 PUSH4 0x3CA54FD3 EQ PUSH2 0x4EA JUMPI DUP1 PUSH4 0x3CCFD60B EQ PUSH2 0x51A JUMPI DUP1 PUSH4 0x42842E0E EQ PUSH2 0x52F JUMPI DUP1 PUSH4 0x4F6CCCE7 EQ PUSH2 0x54F JUMPI DUP1 PUSH4 0x51D670A3 EQ PUSH2 0x56F JUMPI PUSH1 0x0 DUP1 REVERT JUMPDEST DUP1 PUSH4 0xF7309E8 GT PUSH2 0x2D7 JUMPI DUP1 PUSH4 0x229F3E29 GT PUSH2 0x2B1 JUMPI DUP1 PUSH4 0x229F3E29 EQ PUSH2 0x45F JUMPI DUP1 PUSH4 0x23B872DD EQ PUSH2 0x475 JUMPI DUP1 PUSH4 0x2F745C59 EQ PUSH2 0x495 JUMPI DUP1 PUSH4 0x30F72CD4 EQ PUSH2 0x4B5 JUMPI PUSH1 0x0 DUP1 REVERT JUMPDEST DUP1 PUSH4 0xF7309E8 EQ PUSH2 0x415 JUMPI DUP1 PUSH4 0x10969523 EQ PUSH2 0x42A JUMPI DUP1 PUSH4 0x18160DDD EQ PUSH2 0x44A JUMPI PUSH1 0x0 DUP1 REVERT JUMPDEST DUP1 PUSH4 0x1FFC9A7 EQ PUSH2 0x32A JUMPI DUP1 PUSH4 0x6FDDE03 EQ PUSH2 0x35F JUMPI DUP1 PUSH4 0x7FEE2A6 EQ PUSH2 0x381 JUMPI DUP1 PUSH4 0x81812FC EQ PUSH2 0x3A5 JUMPI DUP1 PUSH4 0x95EA7B3 EQ PUSH2 0x3DD JUMPI DUP1 PUSH4 0xEF94A50 EQ PUSH2 0x3FF JUMPI PUSH1 0x0 DUP1 REVERT JUMPDEST CALLDATASIZE PUSH2 0x325 JUMPI STOP JUMPDEST PUSH1 0x0 DUP1 REVERT JUMPDEST CALLVALUE DUP1 ISZERO PUSH2 0x336 JUMPI PUSH1 0x0 DUP1 REVERT JUMPDEST POP PUSH2 0x34A PUSH2 0x345 CALLDATASIZE PUSH1 0x4 PUSH2 0x2B53 JUMP JUMPDEST PUSH2 0xA0A JUMP JUMPDEST PUSH1 0x40 MLOAD SWAP1 ISZERO ISZERO DUP2 MSTORE PUSH1 0x20 ADD JUMPDEST PUSH1 0x40 MLOAD DUP1 SWAP2 SUB SWAP1 RETURN JUMPDEST CALLVALUE DUP1 ISZERO PUSH2 0x36B JUMPI PUSH1 0x0 DUP1 REVERT JUMPDEST POP PUSH2 0x374 PUSH2 0xA35 JUMP JUMPDEST PUSH1 0x40 MLOAD PUSH2 0x356 SWAP2 SWAP1 PUSH2 0x2BC8 JUMP JUMPDEST CALLVALUE DUP1 ISZERO PUSH2 0x38D JUMPI PUSH1 0x0 DUP1 REVERT JUMPDEST POP PUSH2 0x397 PUSH1 0x12 SLOAD DUP2 JUMP JUMPDEST PUSH1 0x40 MLOAD SWAP1 DUP2 MSTORE PUSH1 0x20 ADD PUSH2 0x356 JUMP JUMPDEST CALLVALUE DUP1 ISZERO PUSH2 0x3B1 JUMPI PUSH1 0x0 DUP1 REVERT JUMPDEST POP PUSH2 0x3C5 PUSH2 0x3C0 CALLDATASIZE PUSH1 0x4 PUSH2 0x2BDB JUMP JUMPDEST PUSH2 0xAC7 JUMP JUMPDEST PUSH1 0x40 MLOAD PUSH1 0x1 PUSH1 0x1 PUSH1 0xA0 SHL SUB SWAP1 SWAP2 AND DUP2 MSTORE PUSH1 0x20 ADD PUSH2 0x356 JUMP JUMPDEST CALLVALUE DUP1 ISZERO PUSH2 0x3E9 JUMPI PUSH1 0x0 DUP1 REVERT JUMPDEST POP PUSH2 0x3FD PUSH2 0x3F8 CALLDATASIZE PUSH1 0x4 PUSH2 0x2C10 JUMP JUMPDEST PUSH2 0xAEE JUMP JUMPDEST STOP JUMPDEST CALLVALUE DUP1 ISZERO PUSH2 0x40B JUMPI PUSH1 0x0 DUP1 REVERT JUMPDEST POP PUSH2 0x397 PUSH1 0x11 SLOAD DUP2 JUMP JUMPDEST CALLVALUE DUP1 ISZERO PUSH2 0x421 JUMPI PUSH1 0x0 DUP1 REVERT JUMPDEST POP PUSH2 0x374 PUSH2 0xC09 JUMP JUMPDEST CALLVALUE DUP1 ISZERO PUSH2 0x436 JUMPI PUSH1 0x0 DUP1 REVERT JUMPDEST POP PUSH2 0x3FD PUSH2 0x445 CALLDATASIZE PUSH1 0x4 PUSH2 0x2CC6 JUMP JUMPDEST PUSH2 0xC97 JUMP JUMPDEST CALLVALUE DUP1 ISZERO PUSH2 0x456 JUMPI PUSH1 0x0 DUP1 REVERT JUMPDEST POP PUSH1 0x8 SLOAD PUSH2 0x397 JUMP JUMPDEST CALLVALUE DUP1 ISZERO PUSH2 0x46B JUMPI PUSH1 0x0 DUP1 REVERT JUMPDEST POP PUSH2 0x397 PUSH1 0x13 SLOAD DUP2 JUMP JUMPDEST CALLVALUE DUP1 ISZERO PUSH2 0x481 JUMPI PUSH1 0x0 DUP1 REVERT JUMPDEST POP PUSH2 0x3FD PUSH2 0x490 CALLDATASIZE PUSH1 0x4 PUSH2 0x2D0F JUMP JUMPDEST PUSH2 0xCB6 JUMP JUMPDEST CALLVALUE DUP1 ISZERO PUSH2 0x4A1 JUMPI PUSH1 0x0 DUP1 REVERT JUMPDEST POP PUSH2 0x397 PUSH2 0x4B0 CALLDATASIZE PUSH1 0x4 PUSH2 0x2C10 JUMP JUMPDEST PUSH2 0xCE7 JUMP JUMPDEST CALLVALUE DUP1 ISZERO PUSH2 0x4C1 JUMPI PUSH1 0x0 DUP1 REVERT JUMPDEST POP PUSH2 0x34A PUSH2 0xD7D JUMP JUMPDEST CALLVALUE DUP1 ISZERO PUSH2 0x4D6 JUMPI PUSH1 0x0 DUP1 REVERT JUMPDEST POP PUSH1 0x17 SLOAD PUSH2 0x3C5 SWAP1 PUSH1 0x1 PUSH1 0x1 PUSH1 0xA0 SHL SUB AND DUP2 JUMP JUMPDEST CALLVALUE DUP1 ISZERO PUSH2 0x4F6 JUMPI PUSH1 0x0 DUP1 REVERT JUMPDEST POP PUSH2 0x34A PUSH2 0x505 CALLDATASIZE PUSH1 0x4 PUSH2 0x2D4B JUMP JUMPDEST PUSH1 0x14 PUSH1 0x20 MSTORE PUSH1 0x0 SWAP1 DUP2 MSTORE PUSH1 0x40 SWAP1 KECCAK256 SLOAD PUSH1 0xFF AND DUP2 JUMP JUMPDEST CALLVALUE DUP1 ISZERO PUSH2 0x526 JUMPI PUSH1 0x0 DUP1 REVERT JUMPDEST POP PUSH2 0x3FD PUSH2 0xDBC JUMP JUMPDEST CALLVALUE DUP1 ISZERO PUSH2 0x53B JUMPI PUSH1 0x0 DUP1 REVERT JUMPDEST POP PUSH2 0x3FD PUSH2 0x54A CALLDATASIZE PUSH1 0x4 PUSH2 0x2D0F JUMP JUMPDEST PUSH2 0xEBC JUMP JUMPDEST CALLVALUE DUP1 ISZERO PUSH2 0x55B JUMPI PUSH1 0x0 DUP1 REVERT JUMPDEST POP PUSH2 0x397 PUSH2 0x56A CALLDATASIZE PUSH1 0x4 PUSH2 0x2BDB JUMP JUMPDEST PUSH2 0xED7 JUMP JUMPDEST CALLVALUE DUP1 ISZERO PUSH2 0x57B JUMPI PUSH1 0x0 DUP1 REVERT JUMPDEST POP PUSH2 0x397 PUSH32 0x0 DUP2 JUMP JUMPDEST CALLVALUE DUP1 ISZERO PUSH2 0x5AF JUMPI PUSH1 0x0 DUP1 REVERT JUMPDEST POP PUSH2 0x3FD PUSH2 0xF6A JUMP JUMPDEST CALLVALUE DUP1 ISZERO PUSH2 0x5C4 JUMPI PUSH1 0x0 DUP1 REVERT JUMPDEST POP PUSH2 0x3FD PUSH2 0x5D3 CALLDATASIZE PUSH1 0x4 PUSH2 0x2CC6 JUMP JUMPDEST PUSH2 0xF7E JUMP JUMPDEST CALLVALUE DUP1 ISZERO PUSH2 0x5E4 JUMPI PUSH1 0x0 DUP1 REVERT JUMPDEST POP PUSH2 0x397 PUSH32 0x0 DUP2 JUMP JUMPDEST CALLVALUE DUP1 ISZERO PUSH2 0x618 JUMPI PUSH1 0x0 DUP1 REVERT JUMPDEST POP PUSH2 0x3FD PUSH2 0x627 CALLDATASIZE PUSH1 0x4 PUSH2 0x2BDB JUMP JUMPDEST PUSH2 0xF99 JUMP JUMPDEST CALLVALUE DUP1 ISZERO PUSH2 0x638 JUMPI PUSH1 0x0 DUP1 REVERT JUMPDEST POP PUSH2 0x3C5 PUSH2 0x647 CALLDATASIZE PUSH1 0x4 PUSH2 0x2BDB JUMP JUMPDEST PUSH2 0xFE6 JUMP JUMPDEST CALLVALUE DUP1 ISZERO PUSH2 0x658 JUMPI PUSH1 0x0 DUP1 REVERT JUMPDEST POP PUSH2 0x397 PUSH2 0x667 CALLDATASIZE PUSH1 0x4 PUSH2 0x2D4B JUMP JUMPDEST PUSH2 0x1046 JUMP JUMPDEST CALLVALUE DUP1 ISZERO PUSH2 0x678 JUMPI PUSH1 0x0 DUP1 REVERT JUMPDEST POP PUSH2 0x3FD PUSH2 0x10CC JUMP JUMPDEST CALLVALUE DUP1 ISZERO PUSH2 0x68D JUMPI PUSH1 0x0 DUP1 REVERT JUMPDEST POP PUSH2 0x397 PUSH32 0x0 DUP2 JUMP JUMPDEST CALLVALUE DUP1 ISZERO PUSH2 0x6C1 JUMPI PUSH1 0x0 DUP1 REVERT JUMPDEST POP PUSH2 0x6D5 PUSH2 0x6D0 CALLDATASIZE PUSH1 0x4 PUSH2 0x2D4B JUMP JUMPDEST PUSH2 0x10E0 JUMP JUMPDEST PUSH1 0x40 MLOAD PUSH2 0x356 SWAP2 SWAP1 PUSH2 0x2DA1 JUMP JUMPDEST CALLVALUE DUP1 ISZERO PUSH2 0x6EE JUMPI PUSH1 0x0 DUP1 REVERT JUMPDEST POP PUSH2 0x702 PUSH2 0x6FD CALLDATASIZE PUSH1 0x4 PUSH2 0x2DB4 JUMP JUMPDEST PUSH2 0x1182 JUMP JUMPDEST PUSH1 0x40 MLOAD PUSH2 0x356 SWAP3 SWAP2 SWAP1 PUSH2 0x2DE7 JUMP JUMPDEST CALLVALUE DUP1 ISZERO PUSH2 0x71C JUMPI PUSH1 0x0 DUP1 REVERT JUMPDEST POP PUSH1 0x15 SLOAD PUSH2 0x3C5 SWAP1 PUSH1 0x1 PUSH1 0x1 PUSH1 0xA0 SHL SUB AND DUP2 JUMP JUMPDEST CALLVALUE DUP1 ISZERO PUSH2 0x73C JUMPI PUSH1 0x0 DUP1 REVERT JUMPDEST POP PUSH1 0xA SLOAD PUSH1 0x1 PUSH1 0x1 PUSH1 0xA0 SHL SUB AND PUSH2 0x3C5 JUMP JUMPDEST CALLVALUE DUP1 ISZERO PUSH2 0x75A JUMPI PUSH1 0x0 DUP1 REVERT JUMPDEST POP PUSH2 0x397 PUSH1 0xF SLOAD DUP2 JUMP JUMPDEST CALLVALUE DUP1 ISZERO PUSH2 0x770 JUMPI PUSH1 0x0 DUP1 REVERT JUMPDEST POP PUSH2 0x3FD PUSH2 0x77F CALLDATASIZE PUSH1 0x4 PUSH2 0x2BDB JUMP JUMPDEST PUSH2 0x1262 JUMP JUMPDEST CALLVALUE DUP1 ISZERO PUSH2 0x790 JUMPI PUSH1 0x0 DUP1 REVERT JUMPDEST POP PUSH2 0x374 PUSH2 0x12AF JUMP JUMPDEST CALLVALUE DUP1 ISZERO PUSH2 0x7A5 JUMPI PUSH1 0x0 DUP1 REVERT JUMPDEST POP PUSH2 0x3FD PUSH2 0x7B4 CALLDATASIZE PUSH1 0x4 PUSH2 0x2D4B JUMP JUMPDEST PUSH2 0x12BE JUMP JUMPDEST CALLVALUE DUP1 ISZERO PUSH2 0x7C5 JUMPI PUSH1 0x0 DUP1 REVERT JUMPDEST POP PUSH2 0x397 PUSH1 0xE SLOAD DUP2 JUMP JUMPDEST PUSH2 0x3FD PUSH2 0x7DD CALLDATASIZE PUSH1 0x4 PUSH2 0x2BDB JUMP JUMPDEST PUSH2 0x1394 JUMP JUMPDEST CALLVALUE DUP1 ISZERO PUSH2 0x7EE JUMPI PUSH1 0x0 DUP1 REVERT JUMPDEST POP PUSH2 0x3FD PUSH2 0x7FD CALLDATASIZE PUSH1 0x4 PUSH2 0x2E17 JUMP JUMPDEST PUSH2 0x15A6 JUMP JUMPDEST CALLVALUE DUP1 ISZERO PUSH2 0x80E JUMPI PUSH1 0x0 DUP1 REVERT JUMPDEST POP PUSH2 0x3FD PUSH2 0x15B1 JUMP JUMPDEST CALLVALUE DUP1 ISZERO PUSH2 0x823 JUMPI PUSH1 0x0 DUP1 REVERT JUMPDEST POP PUSH2 0x3FD PUSH2 0x1651 JUMP JUMPDEST CALLVALUE DUP1 ISZERO PUSH2 0x838 JUMPI PUSH1 0x0 DUP1 REVERT JUMPDEST POP PUSH2 0x3FD PUSH2 0x847 CALLDATASIZE PUSH1 0x4 PUSH2 0x2E4E JUMP JUMPDEST PUSH2 0x16A4 JUMP JUMPDEST CALLVALUE DUP1 ISZERO PUSH2 0x858 JUMPI PUSH1 0x0 DUP1 REVERT JUMPDEST POP PUSH2 0x3FD PUSH2 0x867 CALLDATASIZE PUSH1 0x4 PUSH2 0x2C10 JUMP JUMPDEST PUSH2 0x16DC JUMP JUMPDEST CALLVALUE DUP1 ISZERO PUSH2 0x878 JUMPI PUSH1 0x0 DUP1 REVERT JUMPDEST POP PUSH2 0x374 PUSH2 0x887 CALLDATASIZE PUSH1 0x4 PUSH2 0x2BDB JUMP JUMPDEST PUSH2 0x174E JUMP JUMPDEST CALLVALUE DUP1 ISZERO PUSH2 0x898 JUMPI PUSH1 0x0 DUP1 REVERT JUMPDEST POP PUSH2 0x3FD PUSH2 0x8A7 CALLDATASIZE PUSH1 0x4 PUSH2 0x2C10 JUMP JUMPDEST PUSH2 0x1811 JUMP JUMPDEST CALLVALUE DUP1 ISZERO PUSH2 0x8B8 JUMPI PUSH1 0x0 DUP1 REVERT JUMPDEST POP PUSH1 0x18 SLOAD PUSH2 0x3C5 SWAP1 PUSH1 0x1 PUSH1 0x1 PUSH1 0xA0 SHL SUB AND DUP2 JUMP JUMPDEST CALLVALUE DUP1 ISZERO PUSH2 0x8D8 JUMPI PUSH1 0x0 DUP1 REVERT JUMPDEST POP PUSH2 0x397 PUSH32 0x0 DUP2 JUMP JUMPDEST CALLVALUE DUP1 ISZERO PUSH2 0x90C JUMPI PUSH1 0x0 DUP1 REVERT JUMPDEST POP PUSH2 0x3FD PUSH2 0x91B CALLDATASIZE PUSH1 0x4 PUSH2 0x2ECA JUMP JUMPDEST PUSH2 0x18E4 JUMP JUMPDEST CALLVALUE DUP1 ISZERO PUSH2 0x92C JUMPI PUSH1 0x0 DUP1 REVERT JUMPDEST POP PUSH2 0x397 PUSH32 0x0 DUP2 JUMP JUMPDEST CALLVALUE DUP1 ISZERO PUSH2 0x960 JUMPI PUSH1 0x0 DUP1 REVERT JUMPDEST POP PUSH1 0x16 SLOAD PUSH2 0x3C5 SWAP1 PUSH1 0x1 PUSH1 0x1 PUSH1 0xA0 SHL SUB AND DUP2 JUMP JUMPDEST CALLVALUE DUP1 ISZERO PUSH2 0x980 JUMPI PUSH1 0x0 DUP1 REVERT JUMPDEST POP PUSH2 0x34A PUSH2 0x98F CALLDATASIZE PUSH1 0x4 PUSH2 0x2F3F JUMP JUMPDEST PUSH1 0x1 PUSH1 0x1 PUSH1 0xA0 SHL SUB SWAP2 DUP3 AND PUSH1 0x0 SWAP1 DUP2 MSTORE PUSH1 0x5 PUSH1 0x20 SWAP1 DUP2 MSTORE PUSH1 0x40 DUP1 DUP4 KECCAK256 SWAP4 SWAP1 SWAP5 AND DUP3 MSTORE SWAP2 SWAP1 SWAP2 MSTORE KECCAK256 SLOAD PUSH1 0xFF AND SWAP1 JUMP JUMPDEST CALLVALUE DUP1 ISZERO PUSH2 0x9C9 JUMPI PUSH1 0x0 DUP1 REVERT JUMPDEST POP PUSH1 0x10 SLOAD PUSH2 0x34A SWAP1 PUSH1 0xFF AND DUP2 JUMP JUMPDEST CALLVALUE DUP1 ISZERO PUSH2 0x9E3 JUMPI PUSH1 0x0 DUP1 REVERT JUMPDEST POP PUSH2 0x3FD PUSH2 0x9F2 CALLDATASIZE PUSH1 0x4 PUSH2 0x2D4B JUMP JUMPDEST PUSH2 0x19E8 JUMP JUMPDEST PUSH2 0x3FD PUSH2 0xA05 CALLDATASIZE PUSH1 0x4 PUSH2 0x2BDB JUMP JUMPDEST PUSH2 0x1A5E JUMP JUMPDEST PUSH1 0x0 PUSH1 0x1 PUSH1 0x1 PUSH1 0xE0 SHL SUB NOT DUP3 AND PUSH4 0x780E9D63 PUSH1 0xE0 SHL EQ DUP1 PUSH2 0xA2F JUMPI POP PUSH2 0xA2F DUP3 PUSH2 0x1CF2 JUMP JUMPDEST SWAP3 SWAP2 POP POP JUMP JUMPDEST PUSH1 0x60 PUSH1 0x0 DUP1 SLOAD PUSH2 0xA44 SWAP1 PUSH2 0x2F72 JUMP JUMPDEST DUP1 PUSH1 0x1F ADD PUSH1 0x20 DUP1 SWAP2 DIV MUL PUSH1 0x20 ADD PUSH1 0x40 MLOAD SWAP1 DUP2 ADD PUSH1 0x40 MSTORE DUP1 SWAP3 SWAP2 SWAP1 DUP2 DUP2 MSTORE PUSH1 0x20 ADD DUP3 DUP1 SLOAD PUSH2 0xA70 SWAP1 PUSH2 0x2F72 JUMP JUMPDEST DUP1 ISZERO PUSH2 0xABD JUMPI DUP1 PUSH1 0x1F LT PUSH2 0xA92 JUMPI PUSH2 0x100 DUP1 DUP4 SLOAD DIV MUL DUP4 MSTORE SWAP2 PUSH1 0x20 ADD SWAP2 PUSH2 0xABD JUMP JUMPDEST DUP3 ADD SWAP2 SWAP1 PUSH1 0x0 MSTORE PUSH1 0x20 PUSH1 0x0 KECCAK256 SWAP1 JUMPDEST DUP2 SLOAD DUP2 MSTORE SWAP1 PUSH1 0x1 ADD SWAP1 PUSH1 0x20 ADD DUP1 DUP4 GT PUSH2 0xAA0 JUMPI DUP3 SWAP1 SUB PUSH1 0x1F AND DUP3 ADD SWAP2 JUMPDEST POP POP POP POP POP SWAP1 POP SWAP1 JUMP JUMPDEST PUSH1 0x0 PUSH2 0xAD2 DUP3 PUSH2 0x1D42 JUMP JUMPDEST POP PUSH1 0x0 SWAP1 DUP2 MSTORE PUSH1 0x4 PUSH1 0x20 MSTORE PUSH1 0x40 SWAP1 KECCAK256 SLOAD PUSH1 0x1 PUSH1 0x1 PUSH1 0xA0 SHL SUB AND SWAP1 JUMP JUMPDEST PUSH1 0x0 PUSH2 0xAF9 DUP3 PUSH2 0xFE6 JUMP JUMPDEST SWAP1 POP DUP1 PUSH1 0x1 PUSH1 0x1 PUSH1 0xA0 SHL SUB AND DUP4 PUSH1 0x1 PUSH1 0x1 PUSH1 0xA0 SHL SUB AND EQ ISZERO PUSH2 0xB6C JUMPI PUSH1 0x40 MLOAD PUSH3 0x461BCD PUSH1 0xE5 SHL DUP2 MSTORE PUSH1 0x20 PUSH1 0x4 DUP3 ADD MSTORE PUSH1 0x21 PUSH1 0x24 DUP3 ADD MSTORE PUSH32 0x4552433732313A20617070726F76616C20746F2063757272656E74206F776E65 PUSH1 0x44 DUP3 ADD MSTORE PUSH1 0x39 PUSH1 0xF9 SHL PUSH1 0x64 DUP3 ADD MSTORE PUSH1 0x84 ADD JUMPDEST PUSH1 0x40 MLOAD DUP1 SWAP2 SUB SWAP1 REVERT JUMPDEST CALLER PUSH1 0x1 PUSH1 0x1 PUSH1 0xA0 SHL SUB DUP3 AND EQ DUP1 PUSH2 0xB88 JUMPI POP PUSH2 0xB88 DUP2 CALLER PUSH2 0x98F JUMP JUMPDEST PUSH2 0xBFA JUMPI PUSH1 0x40 MLOAD PUSH3 0x461BCD PUSH1 0xE5 SHL DUP2 MSTORE PUSH1 0x20 PUSH1 0x4 DUP3 ADD MSTORE PUSH1 0x3E PUSH1 0x24 DUP3 ADD MSTORE PUSH32 0x4552433732313A20617070726F76652063616C6C6572206973206E6F7420746F PUSH1 0x44 DUP3 ADD MSTORE PUSH32 0x6B656E206F776E6572206E6F7220617070726F76656420666F7220616C6C0000 PUSH1 0x64 DUP3 ADD MSTORE PUSH1 0x84 ADD PUSH2 0xB63 JUMP JUMPDEST PUSH2 0xC04 DUP4 DUP4 PUSH2 0x1DA1 JUMP JUMPDEST POP POP POP JUMP JUMPDEST PUSH1 0xD DUP1 SLOAD PUSH2 0xC16 SWAP1 PUSH2 0x2F72 JUMP JUMPDEST DUP1 PUSH1 0x1F ADD PUSH1 0x20 DUP1 SWAP2 DIV MUL PUSH1 0x20 ADD PUSH1 0x40 MLOAD SWAP1 DUP2 ADD PUSH1 0x40 MSTORE DUP1 SWAP3 SWAP2 SWAP1 DUP2 DUP2 MSTORE PUSH1 0x20 ADD DUP3 DUP1 SLOAD PUSH2 0xC42 SWAP1 PUSH2 0x2F72 JUMP JUMPDEST DUP1 ISZERO PUSH2 0xC8F JUMPI DUP1 PUSH1 0x1F LT PUSH2 0xC64 JUMPI PUSH2 0x100 DUP1 DUP4 SLOAD DIV MUL DUP4 MSTORE SWAP2 PUSH1 0x20 ADD SWAP2 PUSH2 0xC8F JUMP JUMPDEST DUP3 ADD SWAP2 SWAP1 PUSH1 0x0 MSTORE PUSH1 0x20 PUSH1 0x0 KECCAK256 SWAP1 JUMPDEST DUP2 SLOAD DUP2 MSTORE SWAP1 PUSH1 0x1 ADD SWAP1 PUSH1 0x20 ADD DUP1 DUP4 GT PUSH2 0xC72 JUMPI DUP3 SWAP1 SUB PUSH1 0x1F AND DUP3 ADD SWAP2 JUMPDEST POP POP POP POP POP DUP2 JUMP JUMPDEST PUSH2 0xC9F PUSH2 0x1E0F JUMP JUMPDEST DUP1 MLOAD PUSH2 0xCB2 SWAP1 PUSH1 0xD SWAP1 PUSH1 0x20 DUP5 ADD SWAP1 PUSH2 0x2AA4 JUMP JUMPDEST POP POP JUMP JUMPDEST PUSH2 0xCC0 CALLER DUP3 PUSH2 0x1E69 JUMP JUMPDEST PUSH2 0xCDC JUMPI PUSH1 0x40 MLOAD PUSH3 0x461BCD PUSH1 0xE5 SHL DUP2 MSTORE PUSH1 0x4 ADD PUSH2 0xB63 SWAP1 PUSH2 0x2FAD JUMP JUMPDEST PUSH2 0xC04 DUP4 DUP4 DUP4 PUSH2 0x1EE8 JUMP JUMPDEST PUSH1 0x0 PUSH2 0xCF2 DUP4 PUSH2 0x1046 JUMP JUMPDEST DUP3 LT PUSH2 0xD54 JUMPI PUSH1 0x40 MLOAD PUSH3 0x461BCD PUSH1 0xE5 SHL DUP2 MSTORE PUSH1 0x20 PUSH1 0x4 DUP3 ADD MSTORE PUSH1 0x2B PUSH1 0x24 DUP3 ADD MSTORE PUSH32 0x455243373231456E756D657261626C653A206F776E657220696E646578206F75 PUSH1 0x44 DUP3 ADD MSTORE PUSH11 0x74206F6620626F756E6473 PUSH1 0xA8 SHL PUSH1 0x64 DUP3 ADD MSTORE PUSH1 0x84 ADD PUSH2 0xB63 JUMP JUMPDEST POP PUSH1 0x1 PUSH1 0x1 PUSH1 0xA0 SHL SUB SWAP2 SWAP1 SWAP2 AND PUSH1 0x0 SWAP1 DUP2 MSTORE PUSH1 0x6 PUSH1 0x20 SWAP1 DUP2 MSTORE PUSH1 0x40 DUP1 DUP4 KECCAK256 SWAP4 DUP4 MSTORE SWAP3 SWAP1 MSTORE KECCAK256 SLOAD SWAP1 JUMP JUMPDEST PUSH1 0x0 PUSH1 0x13 SLOAD TIMESTAMP LT DUP1 ISZERO PUSH2 0xDB7 JUMPI POP PUSH32 0x0 PUSH2 0xDB5 PUSH1 0x8 SLOAD SWAP1 JUMP JUMPDEST LT JUMPDEST SWAP1 POP SWAP1 JUMP JUMPDEST PUSH2 0xDC4 PUSH2 0x1E0F JUMP JUMPDEST PUSH1 0x0 PUSH2 0xDD1 PUSH1 0x4 SELFBALANCE PUSH2 0x3027 JUMP JUMPDEST PUSH1 0x15 SLOAD PUSH1 0x40 MLOAD SWAP2 SWAP3 POP PUSH1 0x1 PUSH1 0x1 PUSH1 0xA0 SHL SUB AND SWAP1 DUP3 ISZERO PUSH2 0x8FC MUL SWAP1 DUP4 SWAP1 PUSH1 0x0 DUP2 DUP2 DUP2 DUP6 DUP9 DUP9 CALL SWAP4 POP POP POP POP ISZERO DUP1 ISZERO PUSH2 0xE0C JUMPI RETURNDATASIZE PUSH1 0x0 DUP1 RETURNDATACOPY RETURNDATASIZE PUSH1 0x0 REVERT JUMPDEST POP PUSH1 0x16 SLOAD PUSH1 0x40 MLOAD PUSH1 0x1 PUSH1 0x1 PUSH1 0xA0 SHL SUB SWAP1 SWAP2 AND SWAP1 DUP3 ISZERO PUSH2 0x8FC MUL SWAP1 DUP4 SWAP1 PUSH1 0x0 DUP2 DUP2 DUP2 DUP6 DUP9 DUP9 CALL SWAP4 POP POP POP POP ISZERO DUP1 ISZERO PUSH2 0xE47 JUMPI RETURNDATASIZE PUSH1 0x0 DUP1 RETURNDATACOPY RETURNDATASIZE PUSH1 0x0 REVERT JUMPDEST POP PUSH1 0x17 SLOAD PUSH1 0x40 MLOAD PUSH1 0x1 PUSH1 0x1 PUSH1 0xA0 SHL SUB SWAP1 SWAP2 AND SWAP1 DUP3 ISZERO PUSH2 0x8FC MUL SWAP1 DUP4 SWAP1 PUSH1 0x0 DUP2 DUP2 DUP2 DUP6 DUP9 DUP9 CALL SWAP4 POP POP POP POP ISZERO DUP1 ISZERO PUSH2 0xE82 JUMPI RETURNDATASIZE PUSH1 0x0 DUP1 RETURNDATACOPY RETURNDATASIZE PUSH1 0x0 REVERT JUMPDEST POP PUSH1 0x18 SLOAD PUSH1 0x40 MLOAD PUSH1 0x1 PUSH1 0x1 PUSH1 0xA0 SHL SUB SWAP1 SWAP2 AND SWAP1 SELFBALANCE DUP1 ISZERO PUSH2 0x8FC MUL SWAP2 PUSH1 0x0 DUP2 DUP2 DUP2 DUP6 DUP9 DUP9 CALL SWAP4 POP POP POP POP ISZERO DUP1 ISZERO PUSH2 0xCB2 JUMPI RETURNDATASIZE PUSH1 0x0 DUP1 RETURNDATACOPY RETURNDATASIZE PUSH1 0x0 REVERT JUMPDEST PUSH2 0xC04 DUP4 DUP4 DUP4 PUSH1 0x40 MLOAD DUP1 PUSH1 0x20 ADD PUSH1 0x40 MSTORE DUP1 PUSH1 0x0 DUP2 MSTORE POP PUSH2 0x16A4 JUMP JUMPDEST PUSH1 0x0 PUSH2 0xEE2 PUSH1 0x8 SLOAD SWAP1 JUMP JUMPDEST DUP3 LT PUSH2 0xF45 JUMPI PUSH1 0x40 MLOAD PUSH3 0x461BCD PUSH1 0xE5 SHL DUP2 MSTORE PUSH1 0x20 PUSH1 0x4 DUP3 ADD MSTORE PUSH1 0x2C PUSH1 0x24 DUP3 ADD MSTORE PUSH32 0x455243373231456E756D657261626C653A20676C6F62616C20696E646578206F PUSH1 0x44 DUP3 ADD MSTORE PUSH12 0x7574206F6620626F756E6473 PUSH1 0xA0 SHL PUSH1 0x64 DUP3 ADD MSTORE PUSH1 0x84 ADD PUSH2 0xB63 JUMP JUMPDEST PUSH1 0x8 DUP3 DUP2 SLOAD DUP2 LT PUSH2 0xF58 JUMPI PUSH2 0xF58 PUSH2 0x303B JUMP JUMPDEST SWAP1 PUSH1 0x0 MSTORE PUSH1 0x20 PUSH1 0x0 KECCAK256 ADD SLOAD SWAP1 POP SWAP2 SWAP1 POP JUMP JUMPDEST PUSH2 0xF72 PUSH2 0x1E0F JUMP JUMPDEST PUSH1 0x10 DUP1 SLOAD PUSH1 0xFF NOT AND SWAP1 SSTORE JUMP JUMPDEST PUSH2 0xF86 PUSH2 0x1E0F JUMP JUMPDEST DUP1 MLOAD PUSH2 0xCB2 SWAP1 PUSH1 0xB SWAP1 PUSH1 0x20 DUP5 ADD SWAP1 PUSH2 0x2AA4 JUMP JUMPDEST PUSH2 0xFA1 PUSH2 0x1E0F JUMP JUMPDEST PUSH1 0x0 DUP2 GT PUSH2 0xFE1 JUMPI PUSH1 0x40 MLOAD PUSH3 0x461BCD PUSH1 0xE5 SHL DUP2 MSTORE PUSH1 0x20 PUSH1 0x4 DUP3 ADD MSTORE PUSH1 0xD PUSH1 0x24 DUP3 ADD MSTORE PUSH13 0x496E76616C6964207072696365 PUSH1 0x98 SHL PUSH1 0x44 DUP3 ADD MSTORE PUSH1 0x64 ADD PUSH2 0xB63 JUMP JUMPDEST PUSH1 0xF SSTORE JUMP JUMPDEST PUSH1 0x0 DUP2 DUP2 MSTORE PUSH1 0x2 PUSH1 0x20 MSTORE PUSH1 0x40 DUP2 KECCAK256 SLOAD PUSH1 0x1 PUSH1 0x1 PUSH1 0xA0 SHL SUB AND DUP1 PUSH2 0xA2F JUMPI PUSH1 0x40 MLOAD PUSH3 0x461BCD PUSH1 0xE5 SHL DUP2 MSTORE PUSH1 0x20 PUSH1 0x4 DUP3 ADD MSTORE PUSH1 0x18 PUSH1 0x24 DUP3 ADD MSTORE PUSH24 0x115490CDCC8C4E881A5B9D985B1A59081D1BDAD95B881251 PUSH1 0x42 SHL PUSH1 0x44 DUP3 ADD MSTORE PUSH1 0x64 ADD PUSH2 0xB63 JUMP JUMPDEST PUSH1 0x0 PUSH1 0x1 PUSH1 0x1 PUSH1 0xA0 SHL SUB DUP3 AND PUSH2 0x10B0 JUMPI PUSH1 0x40 MLOAD PUSH3 0x461BCD PUSH1 0xE5 SHL DUP2 MSTORE PUSH1 0x20 PUSH1 0x4 DUP3 ADD MSTORE PUSH1 0x29 PUSH1 0x24 DUP3 ADD MSTORE PUSH32 0x4552433732313A2061646472657373207A65726F206973206E6F742061207661 PUSH1 0x44 DUP3 ADD MSTORE PUSH9 0x3634B21037BBB732B9 PUSH1 0xB9 SHL PUSH1 0x64 DUP3 ADD MSTORE PUSH1 0x84 ADD PUSH2 0xB63 JUMP JUMPDEST POP PUSH1 0x1 PUSH1 0x1 PUSH1 0xA0 SHL SUB AND PUSH1 0x0 SWAP1 DUP2 MSTORE PUSH1 0x3 PUSH1 0x20 MSTORE PUSH1 0x40 SWAP1 KECCAK256 SLOAD SWAP1 JUMP JUMPDEST PUSH2 0x10D4 PUSH2 0x1E0F JUMP JUMPDEST PUSH2 0x10DE PUSH1 0x0 PUSH2 0x208F JUMP JUMPDEST JUMP JUMPDEST PUSH1 0x60 PUSH1 0x0 PUSH2 0x10ED DUP4 PUSH2 0x1046 JUMP JUMPDEST SWAP1 POP PUSH1 0x0 DUP2 PUSH8 0xFFFFFFFFFFFFFFFF DUP2 GT ISZERO PUSH2 0x110A JUMPI PUSH2 0x110A PUSH2 0x2C3A JUMP JUMPDEST PUSH1 0x40 MLOAD SWAP1 DUP1 DUP3 MSTORE DUP1 PUSH1 0x20 MUL PUSH1 0x20 ADD DUP3 ADD PUSH1 0x40 MSTORE DUP1 ISZERO PUSH2 0x1133 JUMPI DUP2 PUSH1 0x20 ADD PUSH1 0x20 DUP3 MUL DUP1 CALLDATASIZE DUP4 CALLDATACOPY ADD SWAP1 POP JUMPDEST POP SWAP1 POP PUSH1 0x0 JUMPDEST DUP3 DUP2 LT ISZERO PUSH2 0x117A JUMPI PUSH2 0x114B DUP6 DUP3 PUSH2 0xCE7 JUMP JUMPDEST DUP3 DUP3 DUP2 MLOAD DUP2 LT PUSH2 0x115D JUMPI PUSH2 0x115D PUSH2 0x303B JUMP JUMPDEST PUSH1 0x20 SWAP1 DUP2 MUL SWAP2 SWAP1 SWAP2 ADD ADD MSTORE DUP1 PUSH2 0x1172 DUP2 PUSH2 0x3051 JUMP JUMPDEST SWAP2 POP POP PUSH2 0x1139 JUMP JUMPDEST POP SWAP4 SWAP3 POP POP POP JUMP JUMPDEST PUSH1 0x60 PUSH1 0x0 DUP3 DUP5 PUSH2 0x1191 DUP8 PUSH2 0x1046 JUMP JUMPDEST PUSH2 0x119B SWAP2 SWAP1 PUSH2 0x306C JUMP JUMPDEST DUP2 GT ISZERO PUSH2 0x11B9 JUMPI DUP5 PUSH2 0x11AC DUP8 PUSH2 0x1046 JUMP JUMPDEST PUSH2 0x11B6 SWAP2 SWAP1 PUSH2 0x306C JUMP JUMPDEST SWAP1 POP JUMPDEST PUSH1 0x0 DUP2 PUSH8 0xFFFFFFFFFFFFFFFF DUP2 GT ISZERO PUSH2 0x11D4 JUMPI PUSH2 0x11D4 PUSH2 0x2C3A JUMP JUMPDEST PUSH1 0x40 MLOAD SWAP1 DUP1 DUP3 MSTORE DUP1 PUSH1 0x20 MUL PUSH1 0x20 ADD DUP3 ADD PUSH1 0x40 MSTORE DUP1 ISZERO PUSH2 0x11FD JUMPI DUP2 PUSH1 0x20 ADD PUSH1 0x20 DUP3 MUL DUP1 CALLDATASIZE DUP4 CALLDATACOPY ADD SWAP1 POP JUMPDEST POP SWAP1 POP PUSH1 0x0 JUMPDEST DUP3 DUP2 LT ISZERO PUSH2 0x1248 JUMPI PUSH2 0x1219 DUP9 PUSH2 0x4B0 DUP4 DUP11 PUSH2 0x3083 JUMP JUMPDEST DUP3 DUP3 DUP2 MLOAD DUP2 LT PUSH2 0x122B JUMPI PUSH2 0x122B PUSH2 0x303B JUMP JUMPDEST PUSH1 0x20 SWAP1 DUP2 MUL SWAP2 SWAP1 SWAP2 ADD ADD MSTORE DUP1 PUSH2 0x1240 DUP2 PUSH2 0x3051 JUMP JUMPDEST SWAP2 POP POP PUSH2 0x1203 JUMP JUMPDEST POP DUP1 PUSH2 0x1254 DUP4 DUP9 PUSH2 0x3083 JUMP JUMPDEST SWAP4 POP SWAP4 POP POP POP SWAP4 POP SWAP4 SWAP2 POP POP JUMP JUMPDEST PUSH2 0x126A PUSH2 0x1E0F JUMP JUMPDEST PUSH1 0x0 DUP2 GT PUSH2 0x12AA JUMPI PUSH1 0x40 MLOAD PUSH3 0x461BCD PUSH1 0xE5 SHL DUP2 MSTORE PUSH1 0x20 PUSH1 0x4 DUP3 ADD MSTORE PUSH1 0xD PUSH1 0x24 DUP3 ADD MSTORE PUSH13 0x496E76616C6964207072696365 PUSH1 0x98 SHL PUSH1 0x44 DUP3 ADD MSTORE PUSH1 0x64 ADD PUSH2 0xB63 JUMP JUMPDEST PUSH1 0xE SSTORE JUMP JUMPDEST PUSH1 0x60 PUSH1 0x1 DUP1 SLOAD PUSH2 0xA44 SWAP1 PUSH2 0x2F72 JUMP JUMPDEST PUSH2 0x12C6 PUSH2 0x1E0F JUMP JUMPDEST PUSH1 0x40 MLOAD PUSH4 0x70A08231 PUSH1 0xE0 SHL DUP2 MSTORE ADDRESS PUSH1 0x4 DUP3 ADD MSTORE PUSH1 0x0 SWAP1 PUSH1 0x1 PUSH1 0x1 PUSH1 0xA0 SHL SUB DUP4 AND SWAP1 PUSH4 0x70A08231 SWAP1 PUSH1 0x24 ADD PUSH1 0x20 PUSH1 0x40 MLOAD DUP1 DUP4 SUB DUP2 DUP7 GAS STATICCALL ISZERO DUP1 ISZERO PUSH2 0x130D JUMPI RETURNDATASIZE PUSH1 0x0 DUP1 RETURNDATACOPY RETURNDATASIZE PUSH1 0x0 REVERT JUMPDEST POP POP POP POP PUSH1 0x40 MLOAD RETURNDATASIZE PUSH1 0x1F NOT PUSH1 0x1F DUP3 ADD AND DUP3 ADD DUP1 PUSH1 0x40 MSTORE POP DUP2 ADD SWAP1 PUSH2 0x1331 SWAP2 SWAP1 PUSH2 0x309B JUMP JUMPDEST SWAP1 POP DUP1 PUSH2 0x1380 JUMPI PUSH1 0x40 MLOAD PUSH3 0x461BCD PUSH1 0xE5 SHL DUP2 MSTORE PUSH1 0x20 PUSH1 0x4 DUP3 ADD MSTORE PUSH1 0x1B PUSH1 0x24 DUP3 ADD MSTORE PUSH32 0x43616E6E6F74207265636F766572207A65726F2062616C616E63650000000000 PUSH1 0x44 DUP3 ADD MSTORE PUSH1 0x64 ADD PUSH2 0xB63 JUMP JUMPDEST PUSH2 0xCB2 PUSH1 0x1 PUSH1 0x1 PUSH1 0xA0 SHL SUB DUP4 AND CALLER DUP4 PUSH2 0x20E1 JUMP JUMPDEST PUSH1 0x10 SLOAD PUSH1 0xFF AND PUSH2 0x13DD JUMPI PUSH1 0x40 MLOAD PUSH3 0x461BCD PUSH1 0xE5 SHL DUP2 MSTORE PUSH1 0x20 PUSH1 0x4 DUP3 ADD MSTORE PUSH1 0x14 PUSH1 0x24 DUP3 ADD MSTORE PUSH20 0x14D85B19481B9BDD081CDD185C9D1959081E595D PUSH1 0x62 SHL PUSH1 0x44 DUP3 ADD MSTORE PUSH1 0x64 ADD PUSH2 0xB63 JUMP JUMPDEST PUSH1 0x13 SLOAD TIMESTAMP LT ISZERO DUP1 PUSH2 0x1416 JUMPI POP PUSH32 0x0 PUSH2 0x1413 PUSH1 0x8 SLOAD SWAP1 JUMP JUMPDEST LT ISZERO JUMPDEST PUSH2 0x1462 JUMPI PUSH1 0x40 MLOAD PUSH3 0x461BCD PUSH1 0xE5 SHL DUP2 MSTORE PUSH1 0x20 PUSH1 0x4 DUP3 ADD MSTORE PUSH1 0x17 PUSH1 0x24 DUP3 ADD MSTORE PUSH32 0x5761697420666F722070726573616C6520746F20656E64000000000000000000 PUSH1 0x44 DUP3 ADD MSTORE PUSH1 0x64 ADD PUSH2 0xB63 JUMP JUMPDEST PUSH32 0x0 DUP2 PUSH2 0x148D PUSH1 0x8 SLOAD SWAP1 JUMP JUMPDEST PUSH2 0x1497 SWAP2 SWAP1 PUSH2 0x3083 JUMP JUMPDEST GT ISZERO PUSH2 0x14DA JUMPI PUSH1 0x40 MLOAD PUSH3 0x461BCD PUSH1 0xE5 SHL DUP2 MSTORE PUSH1 0x20 PUSH1 0x4 DUP3 ADD MSTORE PUSH1 0x12 PUSH1 0x24 DUP3 ADD MSTORE PUSH18 0x45786365656473206D617820737570706C79 PUSH1 0x70 SHL PUSH1 0x44 DUP3 ADD MSTORE PUSH1 0x64 ADD PUSH2 0xB63 JUMP JUMPDEST PUSH1 0x0 DUP2 GT DUP1 ISZERO PUSH2 0x150A JUMPI POP PUSH32 0x0 DUP2 GT ISZERO JUMPDEST PUSH2 0x1547 JUMPI PUSH1 0x40 MLOAD PUSH3 0x461BCD PUSH1 0xE5 SHL DUP2 MSTORE PUSH1 0x20 PUSH1 0x4 DUP3 ADD MSTORE PUSH1 0xE PUSH1 0x24 DUP3 ADD MSTORE PUSH14 0x125B9D985B1A5908185B5BDD5B9D PUSH1 0x92 SHL PUSH1 0x44 DUP3 ADD MSTORE PUSH1 0x64 ADD PUSH2 0xB63 JUMP JUMPDEST DUP1 PUSH1 0xE SLOAD PUSH2 0x1555 SWAP2 SWAP1 PUSH2 0x30B4 JUMP JUMPDEST CALLVALUE EQ PUSH2 0x1599 JUMPI PUSH1 0x40 MLOAD PUSH3 0x461BCD PUSH1 0xE5 SHL DUP2 MSTORE PUSH1 0x20 PUSH1 0x4 DUP3 ADD MSTORE PUSH1 0x13 PUSH1 0x24 DUP3 ADD MSTORE PUSH19 0x56616C75652073656E7420213D207072696365 PUSH1 0x68 SHL PUSH1 0x44 DUP3 ADD MSTORE PUSH1 0x64 ADD PUSH2 0xB63 JUMP JUMPDEST PUSH2 0x15A3 CALLER DUP3 PUSH2 0x2133 JUMP JUMPDEST POP JUMP JUMPDEST PUSH2 0xCB2 CALLER DUP4 DUP4 PUSH2 0x216E JUMP JUMPDEST PUSH2 0x15B9 PUSH2 0x1E0F JUMP JUMPDEST PUSH1 0x0 PUSH1 0x12 SLOAD GT PUSH2 0x1602 JUMPI PUSH1 0x40 MLOAD PUSH3 0x461BCD PUSH1 0xE5 SHL DUP2 MSTORE PUSH1 0x20 PUSH1 0x4 DUP3 ADD MSTORE PUSH1 0x14 PUSH1 0x24 DUP3 ADD MSTORE PUSH20 0x14D85B19481B9BDD081CDD185C9D1959081E595D PUSH1 0x62 SHL PUSH1 0x44 DUP3 ADD MSTORE PUSH1 0x64 ADD PUSH2 0xB63 JUMP JUMPDEST PUSH1 0x13 SLOAD TIMESTAMP LT PUSH2 0x164B JUMPI PUSH1 0x40 MLOAD PUSH3 0x461BCD PUSH1 0xE5 SHL DUP2 MSTORE PUSH1 0x20 PUSH1 0x4 DUP3 ADD MSTORE PUSH1 0x15 PUSH1 0x24 DUP3 ADD MSTORE PUSH21 0x141C995CD85B1948185B1C9958591E48195B991959 PUSH1 0x5A SHL PUSH1 0x44 DUP3 ADD MSTORE PUSH1 0x64 ADD PUSH2 0xB63 JUMP JUMPDEST TIMESTAMP PUSH1 0x13 SSTORE JUMP JUMPDEST PUSH2 0x1659 PUSH2 0x1E0F JUMP JUMPDEST PUSH1 0x12 SLOAD PUSH2 0x1695 JUMPI TIMESTAMP PUSH1 0x12 DUP2 SWAP1 SSTORE PUSH2 0x1691 SWAP1 PUSH32 0x0 SWAP1 PUSH2 0x3083 JUMP JUMPDEST PUSH1 0x13 SSTORE JUMPDEST PUSH1 0x10 DUP1 SLOAD PUSH1 0xFF NOT AND PUSH1 0x1 OR SWAP1 SSTORE JUMP JUMPDEST PUSH2 0x16AE CALLER DUP4 PUSH2 0x1E69 JUMP JUMPDEST PUSH2 0x16CA JUMPI PUSH1 0x40 MLOAD PUSH3 0x461BCD PUSH1 0xE5 SHL DUP2 MSTORE PUSH1 0x4 ADD PUSH2 0xB63 SWAP1 PUSH2 0x2FAD JUMP JUMPDEST PUSH2 0x16D6 DUP5 DUP5 DUP5 DUP5 PUSH2 0x223D JUMP JUMPDEST POP POP POP POP JUMP JUMPDEST PUSH2 0x16E4 PUSH2 0x1E0F JUMP JUMPDEST PUSH1 0x40 MLOAD PUSH4 0x23B872DD PUSH1 0xE0 SHL DUP2 MSTORE ADDRESS PUSH1 0x4 DUP3 ADD MSTORE CALLER PUSH1 0x24 DUP3 ADD MSTORE PUSH1 0x44 DUP2 ADD DUP3 SWAP1 MSTORE PUSH1 0x1 PUSH1 0x1 PUSH1 0xA0 SHL SUB DUP4 AND SWAP1 PUSH4 0x23B872DD SWAP1 PUSH1 0x64 ADD PUSH1 0x0 PUSH1 0x40 MLOAD DUP1 DUP4 SUB DUP2 PUSH1 0x0 DUP8 DUP1 EXTCODESIZE ISZERO DUP1 ISZERO PUSH2 0x1732 JUMPI PUSH1 0x0 DUP1 REVERT JUMPDEST POP GAS CALL ISZERO DUP1 ISZERO PUSH2 0x1746 JUMPI RETURNDATASIZE PUSH1 0x0 DUP1 RETURNDATACOPY RETURNDATASIZE PUSH1 0x0 REVERT JUMPDEST POP POP POP POP POP POP JUMP JUMPDEST PUSH1 0x0 DUP2 DUP2 MSTORE PUSH1 0x2 PUSH1 0x20 MSTORE PUSH1 0x40 SWAP1 KECCAK256 SLOAD PUSH1 0x60 SWAP1 PUSH1 0x1 PUSH1 0x1 PUSH1 0xA0 SHL SUB AND PUSH2 0x17B5 JUMPI PUSH1 0x40 MLOAD PUSH3 0x461BCD PUSH1 0xE5 SHL DUP2 MSTORE PUSH1 0x20 PUSH1 0x4 DUP3 ADD MSTORE PUSH1 0x1F PUSH1 0x24 DUP3 ADD MSTORE PUSH32 0x55524920717565727920666F72206E6F6E6578697374656E7420746F6B656E00 PUSH1 0x44 DUP3 ADD MSTORE PUSH1 0x64 ADD PUSH2 0xB63 JUMP JUMPDEST PUSH1 0x0 PUSH1 0xB DUP1 SLOAD PUSH2 0x17C4 SWAP1 PUSH2 0x2F72 JUMP JUMPDEST SWAP1 POP GT PUSH2 0x17E0 JUMPI PUSH1 0x40 MLOAD DUP1 PUSH1 0x20 ADD PUSH1 0x40 MSTORE DUP1 PUSH1 0x0 DUP2 MSTORE POP PUSH2 0xA2F JUMP JUMPDEST PUSH1 0xB PUSH2 0x17EB DUP4 PUSH2 0x2270 JUMP JUMPDEST PUSH1 0x40 MLOAD PUSH1 0x20 ADD PUSH2 0x17FC SWAP3 SWAP2 SWAP1 PUSH2 0x30EF JUMP JUMPDEST PUSH1 0x40 MLOAD PUSH1 0x20 DUP2 DUP4 SUB SUB DUP2 MSTORE SWAP1 PUSH1 0x40 MSTORE SWAP3 SWAP2 POP POP JUMP JUMPDEST PUSH2 0x1819 PUSH2 0x1E0F JUMP JUMPDEST PUSH1 0x10 SLOAD PUSH1 0xFF AND ISZERO PUSH2 0x1863 JUMPI PUSH1 0x40 MLOAD PUSH3 0x461BCD PUSH1 0xE5 SHL DUP2 MSTORE PUSH1 0x20 PUSH1 0x4 DUP3 ADD MSTORE PUSH1 0x14 PUSH1 0x24 DUP3 ADD MSTORE PUSH20 0x135A5B9D08185B1C9958591E481CDD185C9D1959 PUSH1 0x62 SHL PUSH1 0x44 DUP3 ADD MSTORE PUSH1 0x64 ADD PUSH2 0xB63 JUMP JUMPDEST PUSH32 0x0 DUP2 PUSH2 0x188E PUSH1 0x8 SLOAD SWAP1 JUMP JUMPDEST PUSH2 0x1898 SWAP2 SWAP1 PUSH2 0x3083 JUMP JUMPDEST GT ISZERO PUSH2 0x18DA JUMPI PUSH1 0x40 MLOAD PUSH3 0x461BCD PUSH1 0xE5 SHL DUP2 MSTORE PUSH1 0x20 PUSH1 0x4 DUP3 ADD MSTORE PUSH1 0x11 PUSH1 0x24 DUP3 ADD MSTORE PUSH17 0x45786365656473206D6178537570706C79 PUSH1 0x78 SHL PUSH1 0x44 DUP3 ADD MSTORE PUSH1 0x64 ADD PUSH2 0xB63 JUMP JUMPDEST PUSH2 0xCB2 DUP3 DUP3 PUSH2 0x2133 JUMP JUMPDEST PUSH2 0x18EC PUSH2 0x1E0F JUMP JUMPDEST DUP2 DUP2 SWAP1 POP PUSH1 0x11 PUSH1 0x0 DUP3 DUP3 SLOAD PUSH2 0x1901 SWAP2 SWAP1 PUSH2 0x3083 JUMP JUMPDEST SWAP1 SWAP2 SSTORE POP POP PUSH1 0x11 SLOAD PUSH32 0x0 LT ISZERO PUSH2 0x1978 JUMPI PUSH1 0x40 MLOAD PUSH3 0x461BCD PUSH1 0xE5 SHL DUP2 MSTORE PUSH1 0x20 PUSH1 0x4 DUP3 ADD MSTORE PUSH1 0x19 PUSH1 0x24 DUP3 ADD MSTORE PUSH32 0x45786365656473206D61782070726573616C652073706F747300000000000000 PUSH1 0x44 DUP3 ADD MSTORE PUSH1 0x64 ADD PUSH2 0xB63 JUMP JUMPDEST PUSH1 0x0 JUMPDEST DUP2 DUP2 LT ISZERO PUSH2 0xC04 JUMPI PUSH1 0x1 PUSH1 0x14 PUSH1 0x0 DUP6 DUP6 DUP6 DUP2 DUP2 LT PUSH2 0x199B JUMPI PUSH2 0x199B PUSH2 0x303B JUMP JUMPDEST SWAP1 POP PUSH1 0x20 MUL ADD PUSH1 0x20 DUP2 ADD SWAP1 PUSH2 0x19B0 SWAP2 SWAP1 PUSH2 0x2D4B JUMP JUMPDEST PUSH1 0x1 PUSH1 0x1 PUSH1 0xA0 SHL SUB AND DUP2 MSTORE PUSH1 0x20 DUP2 ADD SWAP2 SWAP1 SWAP2 MSTORE PUSH1 0x40 ADD PUSH1 0x0 KECCAK256 DUP1 SLOAD PUSH1 0xFF NOT AND SWAP2 ISZERO ISZERO SWAP2 SWAP1 SWAP2 OR SWAP1 SSTORE PUSH2 0x19E1 DUP2 PUSH2 0x3051 JUMP JUMPDEST SWAP1 POP PUSH2 0x197B JUMP JUMPDEST PUSH2 0x19F0 PUSH2 0x1E0F JUMP JUMPDEST PUSH1 0x1 PUSH1 0x1 PUSH1 0xA0 SHL SUB DUP2 AND PUSH2 0x1A55 JUMPI PUSH1 0x40 MLOAD PUSH3 0x461BCD PUSH1 0xE5 SHL DUP2 MSTORE PUSH1 0x20 PUSH1 0x4 DUP3 ADD MSTORE PUSH1 0x26 PUSH1 0x24 DUP3 ADD MSTORE PUSH32 0x4F776E61626C653A206E6577206F776E657220697320746865207A65726F2061 PUSH1 0x44 DUP3 ADD MSTORE PUSH6 0x646472657373 PUSH1 0xD0 SHL PUSH1 0x64 DUP3 ADD MSTORE PUSH1 0x84 ADD PUSH2 0xB63 JUMP JUMPDEST PUSH2 0x15A3 DUP2 PUSH2 0x208F JUMP JUMPDEST CALLER PUSH1 0x0 SWAP1 DUP2 MSTORE PUSH1 0x14 PUSH1 0x20 MSTORE PUSH1 0x40 SWAP1 KECCAK256 SLOAD PUSH1 0xFF AND PUSH2 0x1AB0 JUMPI PUSH1 0x40 MLOAD PUSH3 0x461BCD PUSH1 0xE5 SHL DUP2 MSTORE PUSH1 0x20 PUSH1 0x4 DUP3 ADD MSTORE PUSH1 0x10 PUSH1 0x24 DUP3 ADD MSTORE PUSH16 0x13DB9B1E481DDA1A5D195B1A5CDD1959 PUSH1 0x82 SHL PUSH1 0x44 DUP3 ADD MSTORE PUSH1 0x64 ADD PUSH2 0xB63 JUMP JUMPDEST PUSH1 0x10 SLOAD PUSH1 0xFF AND PUSH2 0x1B02 JUMPI PUSH1 0x40 MLOAD PUSH3 0x461BCD PUSH1 0xE5 SHL DUP2 MSTORE PUSH1 0x20 PUSH1 0x4 DUP3 ADD MSTORE PUSH1 0x17 PUSH1 0x24 DUP3 ADD MSTORE PUSH32 0x50726573616C65206E6F74207374617274656420796574000000000000000000 PUSH1 0x44 DUP3 ADD MSTORE PUSH1 0x64 ADD PUSH2 0xB63 JUMP JUMPDEST PUSH1 0x13 SLOAD TIMESTAMP LT PUSH2 0x1B43 JUMPI PUSH1 0x40 MLOAD PUSH3 0x461BCD PUSH1 0xE5 SHL DUP2 MSTORE PUSH1 0x20 PUSH1 0x4 DUP3 ADD MSTORE PUSH1 0xD PUSH1 0x24 DUP3 ADD MSTORE PUSH13 0x141C995CD85B1948195B991959 PUSH1 0x9A SHL PUSH1 0x44 DUP3 ADD MSTORE PUSH1 0x64 ADD PUSH2 0xB63 JUMP JUMPDEST PUSH32 0x0 PUSH2 0x1B6D PUSH1 0x8 SLOAD SWAP1 JUMP JUMPDEST LT PUSH2 0x1BAD JUMPI PUSH1 0x40 MLOAD PUSH3 0x461BCD PUSH1 0xE5 SHL DUP2 MSTORE PUSH1 0x20 PUSH1 0x4 DUP3 ADD MSTORE PUSH1 0x10 PUSH1 0x24 DUP3 ADD MSTORE PUSH16 0x141C995CD85B19481CDBDB19081BDD5D PUSH1 0x82 SHL PUSH1 0x44 DUP3 ADD MSTORE PUSH1 0x64 ADD PUSH2 0xB63 JUMP JUMPDEST PUSH32 0x0 DUP2 PUSH2 0x1BD8 PUSH1 0x8 SLOAD SWAP1 JUMP JUMPDEST PUSH2 0x1BE2 SWAP2 SWAP1 PUSH2 0x3083 JUMP JUMPDEST GT ISZERO PUSH2 0x1C29 JUMPI PUSH1 0x40 MLOAD PUSH3 0x461BCD PUSH1 0xE5 SHL DUP2 MSTORE PUSH1 0x20 PUSH1 0x4 DUP3 ADD MSTORE PUSH1 0x16 PUSH1 0x24 DUP3 ADD MSTORE PUSH22 0x457863656564732070726573616C6520737570706C79 PUSH1 0x50 SHL PUSH1 0x44 DUP3 ADD MSTORE PUSH1 0x64 ADD PUSH2 0xB63 JUMP JUMPDEST PUSH1 0x0 DUP2 GT DUP1 ISZERO PUSH2 0x1C59 JUMPI POP PUSH32 0x0 DUP2 GT ISZERO JUMPDEST PUSH2 0x1C96 JUMPI PUSH1 0x40 MLOAD PUSH3 0x461BCD PUSH1 0xE5 SHL DUP2 MSTORE PUSH1 0x20 PUSH1 0x4 DUP3 ADD MSTORE PUSH1 0xE PUSH1 0x24 DUP3 ADD MSTORE PUSH14 0x125B9D985B1A5908185B5BDD5B9D PUSH1 0x92 SHL PUSH1 0x44 DUP3 ADD MSTORE PUSH1 0x64 ADD PUSH2 0xB63 JUMP JUMPDEST DUP1 PUSH1 0xF SLOAD PUSH2 0x1CA4 SWAP2 SWAP1 PUSH2 0x30B4 JUMP JUMPDEST CALLVALUE EQ PUSH2 0x1599 JUMPI PUSH1 0x40 MLOAD PUSH3 0x461BCD PUSH1 0xE5 SHL DUP2 MSTORE PUSH1 0x20 PUSH1 0x4 DUP3 ADD MSTORE PUSH1 0x1B PUSH1 0x24 DUP3 ADD MSTORE PUSH32 0x56616C75652073656E7420213D2070726573616C652070726963650000000000 PUSH1 0x44 DUP3 ADD MSTORE PUSH1 0x64 ADD PUSH2 0xB63 JUMP JUMPDEST PUSH1 0x0 PUSH1 0x1 PUSH1 0x1 PUSH1 0xE0 SHL SUB NOT DUP3 AND PUSH4 0x80AC58CD PUSH1 0xE0 SHL EQ DUP1 PUSH2 0x1D23 JUMPI POP PUSH1 0x1 PUSH1 0x1 PUSH1 0xE0 SHL SUB NOT DUP3 AND PUSH4 0x5B5E139F PUSH1 0xE0 SHL EQ JUMPDEST DUP1 PUSH2 0xA2F JUMPI POP PUSH4 0x1FFC9A7 PUSH1 0xE0 SHL PUSH1 0x1 PUSH1 0x1 PUSH1 0xE0 SHL SUB NOT DUP4 AND EQ PUSH2 0xA2F JUMP JUMPDEST PUSH1 0x0 DUP2 DUP2 MSTORE PUSH1 0x2 PUSH1 0x20 MSTORE PUSH1 0x40 SWAP1 KECCAK256 SLOAD PUSH1 0x1 PUSH1 0x1 PUSH1 0xA0 SHL SUB AND PUSH2 0x15A3 JUMPI PUSH1 0x40 MLOAD PUSH3 0x461BCD PUSH1 0xE5 SHL DUP2 MSTORE PUSH1 0x20 PUSH1 0x4 DUP3 ADD MSTORE PUSH1 0x18 PUSH1 0x24 DUP3 ADD MSTORE PUSH24 0x115490CDCC8C4E881A5B9D985B1A59081D1BDAD95B881251 PUSH1 0x42 SHL PUSH1 0x44 DUP3 ADD MSTORE PUSH1 0x64 ADD PUSH2 0xB63 JUMP JUMPDEST PUSH1 0x0 DUP2 DUP2 MSTORE PUSH1 0x4 PUSH1 0x20 MSTORE PUSH1 0x40 SWAP1 KECCAK256 DUP1 SLOAD PUSH1 0x1 PUSH1 0x1 PUSH1 0xA0 SHL SUB NOT AND PUSH1 0x1 PUSH1 0x1 PUSH1 0xA0 SHL SUB DUP5 AND SWAP1 DUP2 OR SWAP1 SWAP2 SSTORE DUP2 SWAP1 PUSH2 0x1DD6 DUP3 PUSH2 0xFE6 JUMP JUMPDEST PUSH1 0x1 PUSH1 0x1 PUSH1 0xA0 SHL SUB AND PUSH32 0x8C5BE1E5EBEC7D5BD14F71427D1E84F3DD0314C0F7B2291E5B200AC8C7C3B925 PUSH1 0x40 MLOAD PUSH1 0x40 MLOAD DUP1 SWAP2 SUB SWAP1 LOG4 POP POP JUMP JUMPDEST PUSH1 0xA SLOAD PUSH1 0x1 PUSH1 0x1 PUSH1 0xA0 SHL SUB AND CALLER EQ PUSH2 0x10DE JUMPI PUSH1 0x40 MLOAD PUSH3 0x461BCD PUSH1 0xE5 SHL DUP2 MSTORE PUSH1 0x20 PUSH1 0x4 DUP3 ADD DUP2 SWAP1 MSTORE PUSH1 0x24 DUP3 ADD MSTORE PUSH32 0x4F776E61626C653A2063616C6C6572206973206E6F7420746865206F776E6572 PUSH1 0x44 DUP3 ADD MSTORE PUSH1 0x64 ADD PUSH2 0xB63 JUMP JUMPDEST PUSH1 0x0 DUP1 PUSH2 0x1E75 DUP4 PUSH2 0xFE6 JUMP JUMPDEST SWAP1 POP DUP1 PUSH1 0x1 PUSH1 0x1 PUSH1 0xA0 SHL SUB AND DUP5 PUSH1 0x1 PUSH1 0x1 PUSH1 0xA0 SHL SUB AND EQ DUP1 PUSH2 0x1EBC JUMPI POP PUSH1 0x1 PUSH1 0x1 PUSH1 0xA0 SHL SUB DUP1 DUP3 AND PUSH1 0x0 SWAP1 DUP2 MSTORE PUSH1 0x5 PUSH1 0x20 SWAP1 DUP2 MSTORE PUSH1 0x40 DUP1 DUP4 KECCAK256 SWAP4 DUP9 AND DUP4 MSTORE SWAP3 SWAP1 MSTORE KECCAK256 SLOAD PUSH1 0xFF AND JUMPDEST DUP1 PUSH2 0x1EE0 JUMPI POP DUP4 PUSH1 0x1 PUSH1 0x1 PUSH1 0xA0 SHL SUB AND PUSH2 0x1ED5 DUP5 PUSH2 0xAC7 JUMP JUMPDEST PUSH1 0x1 PUSH1 0x1 PUSH1 0xA0 SHL SUB AND EQ JUMPDEST SWAP5 SWAP4 POP POP POP POP JUMP JUMPDEST DUP3 PUSH1 0x1 PUSH1 0x1 PUSH1 0xA0 SHL SUB AND PUSH2 0x1EFB DUP3 PUSH2 0xFE6 JUMP JUMPDEST PUSH1 0x1 PUSH1 0x1 PUSH1 0xA0 SHL SUB AND EQ PUSH2 0x1F5F JUMPI PUSH1 0x40 MLOAD PUSH3 0x461BCD PUSH1 0xE5 SHL DUP2 MSTORE PUSH1 0x20 PUSH1 0x4 DUP3 ADD MSTORE PUSH1 0x25 PUSH1 0x24 DUP3 ADD MSTORE PUSH32 0x4552433732313A207472616E736665722066726F6D20696E636F727265637420 PUSH1 0x44 DUP3 ADD MSTORE PUSH5 0x37BBB732B9 PUSH1 0xD9 SHL PUSH1 0x64 DUP3 ADD MSTORE PUSH1 0x84 ADD PUSH2 0xB63 JUMP JUMPDEST PUSH1 0x1 PUSH1 0x1 PUSH1 0xA0 SHL SUB DUP3 AND PUSH2 0x1FC1 JUMPI PUSH1 0x40 MLOAD PUSH3 0x461BCD PUSH1 0xE5 SHL DUP2 MSTORE PUSH1 0x20 PUSH1 0x4 DUP3 ADD MSTORE PUSH1 0x24 DUP1 DUP3 ADD MSTORE PUSH32 0x4552433732313A207472616E7366657220746F20746865207A65726F20616464 PUSH1 0x44 DUP3 ADD MSTORE PUSH4 0x72657373 PUSH1 0xE0 SHL PUSH1 0x64 DUP3 ADD MSTORE PUSH1 0x84 ADD PUSH2 0xB63 JUMP JUMPDEST PUSH2 0x1FCC DUP4 DUP4 DUP4 PUSH2 0x236E JUMP JUMPDEST PUSH2 0x1FD7 PUSH1 0x0 DUP3 PUSH2 0x1DA1 JUMP JUMPDEST PUSH1 0x1 PUSH1 0x1 PUSH1 0xA0 SHL SUB DUP4 AND PUSH1 0x0 SWAP1 DUP2 MSTORE PUSH1 0x3 PUSH1 0x20 MSTORE PUSH1 0x40 DUP2 KECCAK256 DUP1 SLOAD PUSH1 0x1 SWAP3 SWAP1 PUSH2 0x2000 SWAP1 DUP5 SWAP1 PUSH2 0x306C JUMP JUMPDEST SWAP1 SWAP2 SSTORE POP POP PUSH1 0x1 PUSH1 0x1 PUSH1 0xA0 SHL SUB DUP3 AND PUSH1 0x0 SWAP1 DUP2 MSTORE PUSH1 0x3 PUSH1 0x20 MSTORE PUSH1 0x40 DUP2 KECCAK256 DUP1 SLOAD PUSH1 0x1 SWAP3 SWAP1 PUSH2 0x202E SWAP1 DUP5 SWAP1 PUSH2 0x3083 JUMP JUMPDEST SWAP1 SWAP2 SSTORE POP POP PUSH1 0x0 DUP2 DUP2 MSTORE PUSH1 0x2 PUSH1 0x20 MSTORE PUSH1 0x40 DUP1 DUP3 KECCAK256 DUP1 SLOAD PUSH1 0x1 PUSH1 0x1 PUSH1 0xA0 SHL SUB NOT AND PUSH1 0x1 PUSH1 0x1 PUSH1 0xA0 SHL SUB DUP7 DUP2 AND SWAP2 DUP3 OR SWAP1 SWAP3 SSTORE SWAP2 MLOAD DUP5 SWAP4 SWAP2 DUP8 AND SWAP2 PUSH32 0xDDF252AD1BE2C89B69C2B068FC378DAA952BA7F163C4A11628F55A4DF523B3EF SWAP2 LOG4 POP POP POP JUMP JUMPDEST PUSH1 0xA DUP1 SLOAD PUSH1 0x1 PUSH1 0x1 PUSH1 0xA0 SHL SUB DUP4 DUP2 AND PUSH1 0x1 PUSH1 0x1 PUSH1 0xA0 SHL SUB NOT DUP4 AND DUP2 OR SWAP1 SWAP4 SSTORE PUSH1 0x40 MLOAD SWAP2 AND SWAP2 SWAP1 DUP3 SWAP1 PUSH32 0x8BE0079C531659141344CD1FD0A4F28419497F9722A3DAAFE3B4186F6B6457E0 SWAP1 PUSH1 0x0 SWAP1 LOG3 POP POP JUMP JUMPDEST PUSH1 0x40 DUP1 MLOAD PUSH1 0x1 PUSH1 0x1 PUSH1 0xA0 SHL SUB DUP5 AND PUSH1 0x24 DUP3 ADD MSTORE PUSH1 0x44 DUP1 DUP3 ADD DUP5 SWAP1 MSTORE DUP3 MLOAD DUP1 DUP4 SUB SWAP1 SWAP2 ADD DUP2 MSTORE PUSH1 0x64 SWAP1 SWAP2 ADD SWAP1 SWAP2 MSTORE PUSH1 0x20 DUP2 ADD DUP1 MLOAD PUSH1 0x1 PUSH1 0x1 PUSH1 0xE0 SHL SUB AND PUSH4 0xA9059CBB PUSH1 0xE0 SHL OR SWAP1 MSTORE PUSH2 0xC04 SWAP1 DUP5 SWAP1 PUSH2 0x2426 JUMP JUMPDEST PUSH1 0x0 JUMPDEST DUP2 DUP2 LT ISZERO PUSH2 0xC04 JUMPI PUSH2 0x214C PUSH1 0xC DUP1 SLOAD PUSH1 0x1 ADD SWAP1 SSTORE JUMP JUMPDEST PUSH2 0x215E DUP4 PUSH2 0x2159 PUSH1 0xC SLOAD SWAP1 JUMP JUMPDEST PUSH2 0x24F8 JUMP JUMPDEST PUSH2 0x2167 DUP2 PUSH2 0x3051 JUMP JUMPDEST SWAP1 POP PUSH2 0x2136 JUMP JUMPDEST DUP2 PUSH1 0x1 PUSH1 0x1 PUSH1 0xA0 SHL SUB AND DUP4 PUSH1 0x1 PUSH1 0x1 PUSH1 0xA0 SHL SUB AND EQ ISZERO PUSH2 0x21D0 JUMPI PUSH1 0x40 MLOAD PUSH3 0x461BCD PUSH1 0xE5 SHL DUP2 MSTORE PUSH1 0x20 PUSH1 0x4 DUP3 ADD MSTORE PUSH1 0x19 PUSH1 0x24 DUP3 ADD MSTORE PUSH32 0x4552433732313A20617070726F766520746F2063616C6C657200000000000000 PUSH1 0x44 DUP3 ADD MSTORE PUSH1 0x64 ADD PUSH2 0xB63 JUMP JUMPDEST PUSH1 0x1 PUSH1 0x1 PUSH1 0xA0 SHL SUB DUP4 DUP2 AND PUSH1 0x0 DUP2 DUP2 MSTORE PUSH1 0x5 PUSH1 0x20 SWAP1 DUP2 MSTORE PUSH1 0x40 DUP1 DUP4 KECCAK256 SWAP5 DUP8 AND DUP1 DUP5 MSTORE SWAP5 DUP3 MSTORE SWAP2 DUP3 SWAP1 KECCAK256 DUP1 SLOAD PUSH1 0xFF NOT AND DUP7 ISZERO ISZERO SWAP1 DUP2 OR SWAP1 SWAP2 SSTORE SWAP2 MLOAD SWAP2 DUP3 MSTORE PUSH32 0x17307EAB39AB6107E8899845AD3D59BD9653F200F220920489CA2B5937696C31 SWAP2 ADD PUSH1 0x40 MLOAD DUP1 SWAP2 SUB SWAP1 LOG3 POP POP POP JUMP JUMPDEST PUSH2 0x2248 DUP5 DUP5 DUP5 PUSH2 0x1EE8 JUMP JUMPDEST PUSH2 0x2254 DUP5 DUP5 DUP5 DUP5 PUSH2 0x2512 JUMP JUMPDEST PUSH2 0x16D6 JUMPI PUSH1 0x40 MLOAD PUSH3 0x461BCD PUSH1 0xE5 SHL DUP2 MSTORE PUSH1 0x4 ADD PUSH2 0xB63 SWAP1 PUSH2 0x31AA JUMP JUMPDEST PUSH1 0x60 DUP2 PUSH2 0x2294 JUMPI POP POP PUSH1 0x40 DUP1 MLOAD DUP1 DUP3 ADD SWAP1 SWAP2 MSTORE PUSH1 0x1 DUP2 MSTORE PUSH1 0x3 PUSH1 0xFC SHL PUSH1 0x20 DUP3 ADD MSTORE SWAP1 JUMP JUMPDEST DUP2 PUSH1 0x0 JUMPDEST DUP2 ISZERO PUSH2 0x22BE JUMPI DUP1 PUSH2 0x22A8 DUP2 PUSH2 0x3051 JUMP JUMPDEST SWAP2 POP PUSH2 0x22B7 SWAP1 POP PUSH1 0xA DUP4 PUSH2 0x3027 JUMP JUMPDEST SWAP2 POP PUSH2 0x2298 JUMP JUMPDEST PUSH1 0x0 DUP2 PUSH8 0xFFFFFFFFFFFFFFFF DUP2 GT ISZERO PUSH2 0x22D9 JUMPI PUSH2 0x22D9 PUSH2 0x2C3A JUMP JUMPDEST PUSH1 0x40 MLOAD SWAP1 DUP1 DUP3 MSTORE DUP1 PUSH1 0x1F ADD PUSH1 0x1F NOT AND PUSH1 0x20 ADD DUP3 ADD PUSH1 0x40 MSTORE DUP1 ISZERO PUSH2 0x2303 JUMPI PUSH1 0x20 DUP3 ADD DUP2 DUP1 CALLDATASIZE DUP4 CALLDATACOPY ADD SWAP1 POP JUMPDEST POP SWAP1 POP JUMPDEST DUP5 ISZERO PUSH2 0x1EE0 JUMPI PUSH2 0x2318 PUSH1 0x1 DUP4 PUSH2 0x306C JUMP JUMPDEST SWAP2 POP PUSH2 0x2325 PUSH1 0xA DUP7 PUSH2 0x31FC JUMP JUMPDEST PUSH2 0x2330 SWAP1 PUSH1 0x30 PUSH2 0x3083 JUMP JUMPDEST PUSH1 0xF8 SHL DUP2 DUP4 DUP2 MLOAD DUP2 LT PUSH2 0x2345 JUMPI PUSH2 0x2345 PUSH2 0x303B JUMP JUMPDEST PUSH1 0x20 ADD ADD SWAP1 PUSH1 0x1 PUSH1 0x1 PUSH1 0xF8 SHL SUB NOT AND SWAP1 DUP2 PUSH1 0x0 BYTE SWAP1 MSTORE8 POP PUSH2 0x2367 PUSH1 0xA DUP7 PUSH2 0x3027 JUMP JUMPDEST SWAP5 POP PUSH2 0x2307 JUMP JUMPDEST PUSH1 0x1 PUSH1 0x1 PUSH1 0xA0 SHL SUB DUP4 AND PUSH2 0x23C9 JUMPI PUSH2 0x23C4 DUP2 PUSH1 0x8 DUP1 SLOAD PUSH1 0x0 DUP4 DUP2 MSTORE PUSH1 0x9 PUSH1 0x20 MSTORE PUSH1 0x40 DUP2 KECCAK256 DUP3 SWAP1 SSTORE PUSH1 0x1 DUP3 ADD DUP4 SSTORE SWAP2 SWAP1 SWAP2 MSTORE PUSH32 0xF3F7A9FE364FAAB93B216DA50A3214154F22A0A2B415B23A84C8169E8B636EE3 ADD SSTORE JUMP JUMPDEST PUSH2 0x23EC JUMP JUMPDEST DUP2 PUSH1 0x1 PUSH1 0x1 PUSH1 0xA0 SHL SUB AND DUP4 PUSH1 0x1 PUSH1 0x1 PUSH1 0xA0 SHL SUB AND EQ PUSH2 0x23EC JUMPI PUSH2 0x23EC DUP4 DUP3 PUSH2 0x2610 JUMP JUMPDEST PUSH1 0x1 PUSH1 0x1 PUSH1 0xA0 SHL SUB DUP3 AND PUSH2 0x2403 JUMPI PUSH2 0xC04 DUP2 PUSH2 0x26AD JUMP JUMPDEST DUP3 PUSH1 0x1 PUSH1 0x1 PUSH1 0xA0 SHL SUB AND DUP3 PUSH1 0x1 PUSH1 0x1 PUSH1 0xA0 SHL SUB AND EQ PUSH2 0xC04 JUMPI PUSH2 0xC04 DUP3 DUP3 PUSH2 0x275C JUMP JUMPDEST PUSH1 0x0 PUSH2 0x247B DUP3 PUSH1 0x40 MLOAD DUP1 PUSH1 0x40 ADD PUSH1 0x40 MSTORE DUP1 PUSH1 0x20 DUP2 MSTORE PUSH1 0x20 ADD PUSH32 0x5361666545524332303A206C6F772D6C6576656C2063616C6C206661696C6564 DUP2 MSTORE POP DUP6 PUSH1 0x1 PUSH1 0x1 PUSH1 0xA0 SHL SUB AND PUSH2 0x27A0 SWAP1 SWAP3 SWAP2 SWAP1 PUSH4 0xFFFFFFFF AND JUMP JUMPDEST DUP1 MLOAD SWAP1 SWAP2 POP ISZERO PUSH2 0xC04 JUMPI DUP1 DUP1 PUSH1 0x20 ADD SWAP1 MLOAD DUP2 ADD SWAP1 PUSH2 0x2499 SWAP2 SWAP1 PUSH2 0x3210 JUMP JUMPDEST PUSH2 0xC04 JUMPI PUSH1 0x40 MLOAD PUSH3 0x461BCD PUSH1 0xE5 SHL DUP2 MSTORE PUSH1 0x20 PUSH1 0x4 DUP3 ADD MSTORE PUSH1 0x2A PUSH1 0x24 DUP3 ADD MSTORE PUSH32 0x5361666545524332303A204552433230206F7065726174696F6E20646964206E PUSH1 0x44 DUP3 ADD MSTORE PUSH10 0x1BDD081CDD58D8D95959 PUSH1 0xB2 SHL PUSH1 0x64 DUP3 ADD MSTORE PUSH1 0x84 ADD PUSH2 0xB63 JUMP JUMPDEST PUSH2 0xCB2 DUP3 DUP3 PUSH1 0x40 MLOAD DUP1 PUSH1 0x20 ADD PUSH1 0x40 MSTORE DUP1 PUSH1 0x0 DUP2 MSTORE POP PUSH2 0x27B9 JUMP JUMPDEST PUSH1 0x0 PUSH1 0x1 PUSH1 0x1 PUSH1 0xA0 SHL SUB DUP5 AND EXTCODESIZE ISZERO PUSH2 0x2605 JUMPI PUSH1 0x40 MLOAD PUSH4 0xA85BD01 PUSH1 0xE1 SHL DUP2 MSTORE PUSH1 0x1 PUSH1 0x1 PUSH1 0xA0 SHL SUB DUP6 AND SWAP1 PUSH4 0x150B7A02 SWAP1 PUSH2 0x2556 SWAP1 CALLER SWAP1 DUP10 SWAP1 DUP9 SWAP1 DUP9 SWAP1 PUSH1 0x4 ADD PUSH2 0x322D JUMP JUMPDEST PUSH1 0x20 PUSH1 0x40 MLOAD DUP1 DUP4 SUB DUP2 PUSH1 0x0 DUP8 GAS CALL SWAP3 POP POP POP DUP1 ISZERO PUSH2 0x2591 JUMPI POP PUSH1 0x40 DUP1 MLOAD PUSH1 0x1F RETURNDATASIZE SWAP1 DUP2 ADD PUSH1 0x1F NOT AND DUP3 ADD SWAP1 SWAP3 MSTORE PUSH2 0x258E SWAP2 DUP2 ADD SWAP1 PUSH2 0x326A JUMP JUMPDEST PUSH1 0x1 JUMPDEST PUSH2 0x25EB JUMPI RETURNDATASIZE DUP1 DUP1 ISZERO PUSH2 0x25BF JUMPI PUSH1 0x40 MLOAD SWAP2 POP PUSH1 0x1F NOT PUSH1 0x3F RETURNDATASIZE ADD AND DUP3 ADD PUSH1 0x40 MSTORE RETURNDATASIZE DUP3 MSTORE RETURNDATASIZE PUSH1 0x0 PUSH1 0x20 DUP5 ADD RETURNDATACOPY PUSH2 0x25C4 JUMP JUMPDEST PUSH1 0x60 SWAP2 POP JUMPDEST POP DUP1 MLOAD PUSH2 0x25E3 JUMPI PUSH1 0x40 MLOAD PUSH3 0x461BCD PUSH1 0xE5 SHL DUP2 MSTORE PUSH1 0x4 ADD PUSH2 0xB63 SWAP1 PUSH2 0x31AA JUMP JUMPDEST DUP1 MLOAD DUP2 PUSH1 0x20 ADD REVERT JUMPDEST PUSH1 0x1 PUSH1 0x1 PUSH1 0xE0 SHL SUB NOT AND PUSH4 0xA85BD01 PUSH1 0xE1 SHL EQ SWAP1 POP PUSH2 0x1EE0 JUMP JUMPDEST POP PUSH1 0x1 SWAP5 SWAP4 POP POP POP POP JUMP JUMPDEST PUSH1 0x0 PUSH1 0x1 PUSH2 0x261D DUP5 PUSH2 0x1046 JUMP JUMPDEST PUSH2 0x2627 SWAP2 SWAP1 PUSH2 0x306C JUMP JUMPDEST PUSH1 0x0 DUP4 DUP2 MSTORE PUSH1 0x7 PUSH1 0x20 MSTORE PUSH1 0x40 SWAP1 KECCAK256 SLOAD SWAP1 SWAP2 POP DUP1 DUP3 EQ PUSH2 0x267A JUMPI PUSH1 0x1 PUSH1 0x1 PUSH1 0xA0 SHL SUB DUP5 AND PUSH1 0x0 SWAP1 DUP2 MSTORE PUSH1 0x6 PUSH1 0x20 SWAP1 DUP2 MSTORE PUSH1 0x40 DUP1 DUP4 KECCAK256 DUP6 DUP5 MSTORE DUP3 MSTORE DUP1 DUP4 KECCAK256 SLOAD DUP5 DUP5 MSTORE DUP2 DUP5 KECCAK256 DUP2 SWAP1 SSTORE DUP4 MSTORE PUSH1 0x7 SWAP1 SWAP2 MSTORE SWAP1 KECCAK256 DUP2 SWAP1 SSTORE JUMPDEST POP PUSH1 0x0 SWAP2 DUP3 MSTORE PUSH1 0x7 PUSH1 0x20 SWAP1 DUP2 MSTORE PUSH1 0x40 DUP1 DUP5 KECCAK256 DUP5 SWAP1 SSTORE PUSH1 0x1 PUSH1 0x1 PUSH1 0xA0 SHL SUB SWAP1 SWAP5 AND DUP4 MSTORE PUSH1 0x6 DUP2 MSTORE DUP4 DUP4 KECCAK256 SWAP2 DUP4 MSTORE MSTORE SWAP1 DUP2 KECCAK256 SSTORE JUMP JUMPDEST PUSH1 0x8 SLOAD PUSH1 0x0 SWAP1 PUSH2 0x26BF SWAP1 PUSH1 0x1 SWAP1 PUSH2 0x306C JUMP JUMPDEST PUSH1 0x0 DUP4 DUP2 MSTORE PUSH1 0x9 PUSH1 0x20 MSTORE PUSH1 0x40 DUP2 KECCAK256 SLOAD PUSH1 0x8 DUP1 SLOAD SWAP4 SWAP5 POP SWAP1 SWAP3 DUP5 SWAP1 DUP2 LT PUSH2 0x26E7 JUMPI PUSH2 0x26E7 PUSH2 0x303B JUMP JUMPDEST SWAP1 PUSH1 0x0 MSTORE PUSH1 0x20 PUSH1 0x0 KECCAK256 ADD SLOAD SWAP1 POP DUP1 PUSH1 0x8 DUP4 DUP2 SLOAD DUP2 LT PUSH2 0x2708 JUMPI PUSH2 0x2708 PUSH2 0x303B JUMP JUMPDEST PUSH1 0x0 SWAP2 DUP3 MSTORE PUSH1 0x20 DUP1 DUP4 KECCAK256 SWAP1 SWAP2 ADD SWAP3 SWAP1 SWAP3 SSTORE DUP3 DUP2 MSTORE PUSH1 0x9 SWAP1 SWAP2 MSTORE PUSH1 0x40 DUP1 DUP3 KECCAK256 DUP5 SWAP1 SSTORE DUP6 DUP3 MSTORE DUP2 KECCAK256 SSTORE PUSH1 0x8 DUP1 SLOAD DUP1 PUSH2 0x2740 JUMPI PUSH2 0x2740 PUSH2 0x3287 JUMP JUMPDEST PUSH1 0x1 SWAP1 SUB DUP2 DUP2 SWAP1 PUSH1 0x0 MSTORE PUSH1 0x20 PUSH1 0x0 KECCAK256 ADD PUSH1 0x0 SWAP1 SSTORE SWAP1 SSTORE POP POP POP POP JUMP JUMPDEST PUSH1 0x0 PUSH2 0x2767 DUP4 PUSH2 0x1046 JUMP JUMPDEST PUSH1 0x1 PUSH1 0x1 PUSH1 0xA0 SHL SUB SWAP1 SWAP4 AND PUSH1 0x0 SWAP1 DUP2 MSTORE PUSH1 0x6 PUSH1 0x20 SWAP1 DUP2 MSTORE PUSH1 0x40 DUP1 DUP4 KECCAK256 DUP7 DUP5 MSTORE DUP3 MSTORE DUP1 DUP4 KECCAK256 DUP6 SWAP1 SSTORE SWAP4 DUP3 MSTORE PUSH1 0x7 SWAP1 MSTORE SWAP2 SWAP1 SWAP2 KECCAK256 SWAP2 SWAP1 SWAP2 SSTORE POP JUMP JUMPDEST PUSH1 0x60 PUSH2 0x27AF DUP5 DUP5 PUSH1 0x0 DUP6 PUSH2 0x27EC JUMP JUMPDEST SWAP1 POP JUMPDEST SWAP4 SWAP3 POP POP POP JUMP JUMPDEST PUSH2 0x27C3 DUP4 DUP4 PUSH2 0x291D JUMP JUMPDEST PUSH2 0x27D0 PUSH1 0x0 DUP5 DUP5 DUP5 PUSH2 0x2512 JUMP JUMPDEST PUSH2 0xC04 JUMPI PUSH1 0x40 MLOAD PUSH3 0x461BCD PUSH1 0xE5 SHL DUP2 MSTORE PUSH1 0x4 ADD PUSH2 0xB63 SWAP1 PUSH2 0x31AA JUMP JUMPDEST PUSH1 0x60 DUP3 SELFBALANCE LT ISZERO PUSH2 0x284D JUMPI PUSH1 0x40 MLOAD PUSH3 0x461BCD PUSH1 0xE5 SHL DUP2 MSTORE PUSH1 0x20 PUSH1 0x4 DUP3 ADD MSTORE PUSH1 0x26 PUSH1 0x24 DUP3 ADD MSTORE PUSH32 0x416464726573733A20696E73756666696369656E742062616C616E636520666F PUSH1 0x44 DUP3 ADD MSTORE PUSH6 0x1C8818D85B1B PUSH1 0xD2 SHL PUSH1 0x64 DUP3 ADD MSTORE PUSH1 0x84 ADD PUSH2 0xB63 JUMP JUMPDEST PUSH1 0x1 PUSH1 0x1 PUSH1 0xA0 SHL SUB DUP6 AND EXTCODESIZE PUSH2 0x28A4 JUMPI PUSH1 0x40 MLOAD PUSH3 0x461BCD PUSH1 0xE5 SHL DUP2 MSTORE PUSH1 0x20 PUSH1 0x4 DUP3 ADD MSTORE PUSH1 0x1D PUSH1 0x24 DUP3 ADD MSTORE PUSH32 0x416464726573733A2063616C6C20746F206E6F6E2D636F6E7472616374000000 PUSH1 0x44 DUP3 ADD MSTORE PUSH1 0x64 ADD PUSH2 0xB63 JUMP JUMPDEST PUSH1 0x0 DUP1 DUP7 PUSH1 0x1 PUSH1 0x1 PUSH1 0xA0 SHL SUB AND DUP6 DUP8 PUSH1 0x40 MLOAD PUSH2 0x28C0 SWAP2 SWAP1 PUSH2 0x329D JUMP JUMPDEST PUSH1 0x0 PUSH1 0x40 MLOAD DUP1 DUP4 SUB DUP2 DUP6 DUP8 GAS CALL SWAP3 POP POP POP RETURNDATASIZE DUP1 PUSH1 0x0 DUP2 EQ PUSH2 0x28FD JUMPI PUSH1 0x40 MLOAD SWAP2 POP PUSH1 0x1F NOT PUSH1 0x3F RETURNDATASIZE ADD AND DUP3 ADD PUSH1 0x40 MSTORE RETURNDATASIZE DUP3 MSTORE RETURNDATASIZE PUSH1 0x0 PUSH1 0x20 DUP5 ADD RETURNDATACOPY PUSH2 0x2902 JUMP JUMPDEST PUSH1 0x60 SWAP2 POP JUMPDEST POP SWAP2 POP SWAP2 POP PUSH2 0x2912 DUP3 DUP3 DUP7 PUSH2 0x2A6B JUMP JUMPDEST SWAP8 SWAP7 POP POP POP POP POP POP POP JUMP JUMPDEST PUSH1 0x1 PUSH1 0x1 PUSH1 0xA0 SHL SUB DUP3 AND PUSH2 0x2973 JUMPI PUSH1 0x40 MLOAD PUSH3 0x461BCD PUSH1 0xE5 SHL DUP2 MSTORE PUSH1 0x20 PUSH1 0x4 DUP3 ADD DUP2 SWAP1 MSTORE PUSH1 0x24 DUP3 ADD MSTORE PUSH32 0x4552433732313A206D696E7420746F20746865207A65726F2061646472657373 PUSH1 0x44 DUP3 ADD MSTORE PUSH1 0x64 ADD PUSH2 0xB63 JUMP JUMPDEST PUSH1 0x0 DUP2 DUP2 MSTORE PUSH1 0x2 PUSH1 0x20 MSTORE PUSH1 0x40 SWAP1 KECCAK256 SLOAD PUSH1 0x1 PUSH1 0x1 PUSH1 0xA0 SHL SUB AND ISZERO PUSH2 0x29D8 JUMPI PUSH1 0x40 MLOAD PUSH3 0x461BCD PUSH1 0xE5 SHL DUP2 MSTORE PUSH1 0x20 PUSH1 0x4 DUP3 ADD MSTORE PUSH1 0x1C PUSH1 0x24 DUP3 ADD MSTORE PUSH32 0x4552433732313A20746F6B656E20616C7265616479206D696E74656400000000 PUSH1 0x44 DUP3 ADD MSTORE PUSH1 0x64 ADD PUSH2 0xB63 JUMP JUMPDEST PUSH2 0x29E4 PUSH1 0x0 DUP4 DUP4 PUSH2 0x236E JUMP JUMPDEST PUSH1 0x1 PUSH1 0x1 PUSH1 0xA0 SHL SUB DUP3 AND PUSH1 0x0 SWAP1 DUP2 MSTORE PUSH1 0x3 PUSH1 0x20 MSTORE PUSH1 0x40 DUP2 KECCAK256 DUP1 SLOAD PUSH1 0x1 SWAP3 SWAP1 PUSH2 0x2A0D SWAP1 DUP5 SWAP1 PUSH2 0x3083 JUMP JUMPDEST SWAP1 SWAP2 SSTORE POP POP PUSH1 0x0 DUP2 DUP2 MSTORE PUSH1 0x2 PUSH1 0x20 MSTORE PUSH1 0x40 DUP1 DUP3 KECCAK256 DUP1 SLOAD PUSH1 0x1 PUSH1 0x1 PUSH1 0xA0 SHL SUB NOT AND PUSH1 0x1 PUSH1 0x1 PUSH1 0xA0 SHL SUB DUP7 AND SWAP1 DUP2 OR SWAP1 SWAP2 SSTORE SWAP1 MLOAD DUP4 SWAP3 SWAP1 PUSH32 0xDDF252AD1BE2C89B69C2B068FC378DAA952BA7F163C4A11628F55A4DF523B3EF SWAP1 DUP3 SWAP1 LOG4 POP POP JUMP JUMPDEST PUSH1 0x60 DUP4 ISZERO PUSH2 0x2A7A JUMPI POP DUP2 PUSH2 0x27B2 JUMP JUMPDEST DUP3 MLOAD ISZERO PUSH2 0x2A8A JUMPI DUP3 MLOAD DUP1 DUP5 PUSH1 0x20 ADD REVERT JUMPDEST DUP2 PUSH1 0x40 MLOAD PUSH3 0x461BCD PUSH1 0xE5 SHL DUP2 MSTORE PUSH1 0x4 ADD PUSH2 0xB63 SWAP2 SWAP1 PUSH2 0x2BC8 JUMP JUMPDEST DUP3 DUP1 SLOAD PUSH2 0x2AB0 SWAP1 PUSH2 0x2F72 JUMP JUMPDEST SWAP1 PUSH1 0x0 MSTORE PUSH1 0x20 PUSH1 0x0 KECCAK256 SWAP1 PUSH1 0x1F ADD PUSH1 0x20 SWAP1 DIV DUP2 ADD SWAP3 DUP3 PUSH2 0x2AD2 JUMPI PUSH1 0x0 DUP6 SSTORE PUSH2 0x2B18 JUMP JUMPDEST DUP3 PUSH1 0x1F LT PUSH2 0x2AEB JUMPI DUP1 MLOAD PUSH1 0xFF NOT AND DUP4 DUP1 ADD OR DUP6 SSTORE PUSH2 0x2B18 JUMP JUMPDEST DUP3 DUP1 ADD PUSH1 0x1 ADD DUP6 SSTORE DUP3 ISZERO PUSH2 0x2B18 JUMPI SWAP2 DUP3 ADD JUMPDEST DUP3 DUP2 GT ISZERO PUSH2 0x2B18 JUMPI DUP3 MLOAD DUP3 SSTORE SWAP2 PUSH1 0x20 ADD SWAP2 SWAP1 PUSH1 0x1 ADD SWAP1 PUSH2 0x2AFD JUMP JUMPDEST POP PUSH2 0x2B24 SWAP3 SWAP2 POP PUSH2 0x2B28 JUMP JUMPDEST POP SWAP1 JUMP JUMPDEST JUMPDEST DUP1 DUP3 GT ISZERO PUSH2 0x2B24 JUMPI PUSH1 0x0 DUP2 SSTORE PUSH1 0x1 ADD PUSH2 0x2B29 JUMP JUMPDEST PUSH1 0x1 PUSH1 0x1 PUSH1 0xE0 SHL SUB NOT DUP2 AND DUP2 EQ PUSH2 0x15A3 JUMPI PUSH1 0x0 DUP1 REVERT JUMPDEST PUSH1 0x0 PUSH1 0x20 DUP3 DUP5 SUB SLT ISZERO PUSH2 0x2B65 JUMPI PUSH1 0x0 DUP1 REVERT JUMPDEST DUP2 CALLDATALOAD PUSH2 0x27B2 DUP2 PUSH2 0x2B3D JUMP JUMPDEST PUSH1 0x0 JUMPDEST DUP4 DUP2 LT ISZERO PUSH2 0x2B8B JUMPI DUP2 DUP2 ADD MLOAD DUP4 DUP3 ADD MSTORE PUSH1 0x20 ADD PUSH2 0x2B73 JUMP JUMPDEST DUP4 DUP2 GT ISZERO PUSH2 0x16D6 JUMPI POP POP PUSH1 0x0 SWAP2 ADD MSTORE JUMP JUMPDEST PUSH1 0x0 DUP2 MLOAD DUP1 DUP5 MSTORE PUSH2 0x2BB4 DUP2 PUSH1 0x20 DUP7 ADD PUSH1 0x20 DUP7 ADD PUSH2 0x2B70 JUMP JUMPDEST PUSH1 0x1F ADD PUSH1 0x1F NOT AND SWAP3 SWAP1 SWAP3 ADD PUSH1 0x20 ADD SWAP3 SWAP2 POP POP JUMP JUMPDEST PUSH1 0x20 DUP2 MSTORE PUSH1 0x0 PUSH2 0x27B2 PUSH1 0x20 DUP4 ADD DUP5 PUSH2 0x2B9C JUMP JUMPDEST PUSH1 0x0 PUSH1 0x20 DUP3 DUP5 SUB SLT ISZERO PUSH2 0x2BED JUMPI PUSH1 0x0 DUP1 REVERT JUMPDEST POP CALLDATALOAD SWAP2 SWAP1 POP JUMP JUMPDEST DUP1 CALLDATALOAD PUSH1 0x1 PUSH1 0x1 PUSH1 0xA0 SHL SUB DUP2 AND DUP2 EQ PUSH2 0x2C0B JUMPI PUSH1 0x0 DUP1 REVERT JUMPDEST SWAP2 SWAP1 POP JUMP JUMPDEST PUSH1 0x0 DUP1 PUSH1 0x40 DUP4 DUP6 SUB SLT ISZERO PUSH2 0x2C23 JUMPI PUSH1 0x0 DUP1 REVERT JUMPDEST PUSH2 0x2C2C DUP4 PUSH2 0x2BF4 JUMP JUMPDEST SWAP5 PUSH1 0x20 SWAP4 SWAP1 SWAP4 ADD CALLDATALOAD SWAP4 POP POP POP JUMP JUMPDEST PUSH4 0x4E487B71 PUSH1 0xE0 SHL PUSH1 0x0 MSTORE PUSH1 0x41 PUSH1 0x4 MSTORE PUSH1 0x24 PUSH1 0x0 REVERT JUMPDEST PUSH1 0x0 PUSH8 0xFFFFFFFFFFFFFFFF DUP1 DUP5 GT ISZERO PUSH2 0x2C6B JUMPI PUSH2 0x2C6B PUSH2 0x2C3A JUMP JUMPDEST PUSH1 0x40 MLOAD PUSH1 0x1F DUP6 ADD PUSH1 0x1F NOT SWAP1 DUP2 AND PUSH1 0x3F ADD AND DUP2 ADD SWAP1 DUP3 DUP3 GT DUP2 DUP4 LT OR ISZERO PUSH2 0x2C93 JUMPI PUSH2 0x2C93 PUSH2 0x2C3A JUMP JUMPDEST DUP2 PUSH1 0x40 MSTORE DUP1 SWAP4 POP DUP6 DUP2 MSTORE DUP7 DUP7 DUP7 ADD GT ISZERO PUSH2 0x2CAC JUMPI PUSH1 0x0 DUP1 REVERT JUMPDEST DUP6 DUP6 PUSH1 0x20 DUP4 ADD CALLDATACOPY PUSH1 0x0 PUSH1 0x20 DUP8 DUP4 ADD ADD MSTORE POP POP POP SWAP4 SWAP3 POP POP POP JUMP JUMPDEST PUSH1 0x0 PUSH1 0x20 DUP3 DUP5 SUB SLT ISZERO PUSH2 0x2CD8 JUMPI PUSH1 0x0 DUP1 REVERT JUMPDEST DUP2 CALLDATALOAD PUSH8 0xFFFFFFFFFFFFFFFF DUP2 GT ISZERO PUSH2 0x2CEF JUMPI PUSH1 0x0 DUP1 REVERT JUMPDEST DUP3 ADD PUSH1 0x1F DUP2 ADD DUP5 SGT PUSH2 0x2D00 JUMPI PUSH1 0x0 DUP1 REVERT JUMPDEST PUSH2 0x1EE0 DUP5 DUP3 CALLDATALOAD PUSH1 0x20 DUP5 ADD PUSH2 0x2C50 JUMP JUMPDEST PUSH1 0x0 DUP1 PUSH1 0x0 PUSH1 0x60 DUP5 DUP7 SUB SLT ISZERO PUSH2 0x2D24 JUMPI PUSH1 0x0 DUP1 REVERT JUMPDEST PUSH2 0x2D2D DUP5 PUSH2 0x2BF4 JUMP JUMPDEST SWAP3 POP PUSH2 0x2D3B PUSH1 0x20 DUP6 ADD PUSH2 0x2BF4 JUMP JUMPDEST SWAP2 POP PUSH1 0x40 DUP5 ADD CALLDATALOAD SWAP1 POP SWAP3 POP SWAP3 POP SWAP3 JUMP JUMPDEST PUSH1 0x0 PUSH1 0x20 DUP3 DUP5 SUB SLT ISZERO PUSH2 0x2D5D JUMPI PUSH1 0x0 DUP1 REVERT JUMPDEST PUSH2 0x27B2 DUP3 PUSH2 0x2BF4 JUMP JUMPDEST PUSH1 0x0 DUP2 MLOAD DUP1 DUP5 MSTORE PUSH1 0x20 DUP1 DUP6 ADD SWAP5 POP DUP1 DUP5 ADD PUSH1 0x0 JUMPDEST DUP4 DUP2 LT ISZERO PUSH2 0x2D96 JUMPI DUP2 MLOAD DUP8 MSTORE SWAP6 DUP3 ADD SWAP6 SWAP1 DUP3 ADD SWAP1 PUSH1 0x1 ADD PUSH2 0x2D7A JUMP JUMPDEST POP SWAP5 SWAP6 SWAP5 POP POP POP POP POP JUMP JUMPDEST PUSH1 0x20 DUP2 MSTORE PUSH1 0x0 PUSH2 0x27B2 PUSH1 0x20 DUP4 ADD DUP5 PUSH2 0x2D66 JUMP JUMPDEST PUSH1 0x0 DUP1 PUSH1 0x0 PUSH1 0x60 DUP5 DUP7 SUB SLT ISZERO PUSH2 0x2DC9 JUMPI PUSH1 0x0 DUP1 REVERT JUMPDEST PUSH2 0x2DD2 DUP5 PUSH2 0x2BF4 JUMP JUMPDEST SWAP6 PUSH1 0x20 DUP6 ADD CALLDATALOAD SWAP6 POP PUSH1 0x40 SWAP1 SWAP5 ADD CALLDATALOAD SWAP4 SWAP3 POP POP POP JUMP JUMPDEST PUSH1 0x40 DUP2 MSTORE PUSH1 0x0 PUSH2 0x2DFA PUSH1 0x40 DUP4 ADD DUP6 PUSH2 0x2D66 JUMP JUMPDEST SWAP1 POP DUP3 PUSH1 0x20 DUP4 ADD MSTORE SWAP4 SWAP3 POP POP POP JUMP JUMPDEST DUP1 ISZERO ISZERO DUP2 EQ PUSH2 0x15A3 JUMPI PUSH1 0x0 DUP1 REVERT JUMPDEST PUSH1 0x0 DUP1 PUSH1 0x40 DUP4 DUP6 SUB SLT ISZERO PUSH2 0x2E2A JUMPI PUSH1 0x0 DUP1 REVERT JUMPDEST PUSH2 0x2E33 DUP4 PUSH2 0x2BF4 JUMP JUMPDEST SWAP2 POP PUSH1 0x20 DUP4 ADD CALLDATALOAD PUSH2 0x2E43 DUP2 PUSH2 0x2E09 JUMP JUMPDEST DUP1 SWAP2 POP POP SWAP3 POP SWAP3 SWAP1 POP JUMP JUMPDEST PUSH1 0x0 DUP1 PUSH1 0x0 DUP1 PUSH1 0x80 DUP6 DUP8 SUB SLT ISZERO PUSH2 0x2E64 JUMPI PUSH1 0x0 DUP1 REVERT JUMPDEST PUSH2 0x2E6D DUP6 PUSH2 0x2BF4 JUMP JUMPDEST SWAP4 POP PUSH2 0x2E7B PUSH1 0x20 DUP7 ADD PUSH2 0x2BF4 JUMP JUMPDEST SWAP3 POP PUSH1 0x40 DUP6 ADD CALLDATALOAD SWAP2 POP PUSH1 0x60 DUP6 ADD CALLDATALOAD PUSH8 0xFFFFFFFFFFFFFFFF DUP2 GT ISZERO PUSH2 0x2E9E JUMPI PUSH1 0x0 DUP1 REVERT JUMPDEST DUP6 ADD PUSH1 0x1F DUP2 ADD DUP8 SGT PUSH2 0x2EAF JUMPI PUSH1 0x0 DUP1 REVERT JUMPDEST PUSH2 0x2EBE DUP8 DUP3 CALLDATALOAD PUSH1 0x20 DUP5 ADD PUSH2 0x2C50 JUMP JUMPDEST SWAP2 POP POP SWAP3 SWAP6 SWAP2 SWAP5 POP SWAP3 POP JUMP JUMPDEST PUSH1 0x0 DUP1 PUSH1 0x20 DUP4 DUP6 SUB SLT ISZERO PUSH2 0x2EDD JUMPI PUSH1 0x0 DUP1 REVERT JUMPDEST DUP3 CALLDATALOAD PUSH8 0xFFFFFFFFFFFFFFFF DUP1 DUP3 GT ISZERO PUSH2 0x2EF5 JUMPI PUSH1 0x0 DUP1 REVERT JUMPDEST DUP2 DUP6 ADD SWAP2 POP DUP6 PUSH1 0x1F DUP4 ADD SLT PUSH2 0x2F09 JUMPI PUSH1 0x0 DUP1 REVERT JUMPDEST DUP2 CALLDATALOAD DUP2 DUP2 GT ISZERO PUSH2 0x2F18 JUMPI PUSH1 0x0 DUP1 REVERT JUMPDEST DUP7 PUSH1 0x20 DUP3 PUSH1 0x5 SHL DUP6 ADD ADD GT ISZERO PUSH2 0x2F2D JUMPI PUSH1 0x0 DUP1 REVERT JUMPDEST PUSH1 0x20 SWAP3 SWAP1 SWAP3 ADD SWAP7 SWAP2 SWAP6 POP SWAP1 SWAP4 POP POP POP POP JUMP JUMPDEST PUSH1 0x0 DUP1 PUSH1 0x40 DUP4 DUP6 SUB SLT ISZERO PUSH2 0x2F52 JUMPI PUSH1 0x0 DUP1 REVERT JUMPDEST PUSH2 0x2F5B DUP4 PUSH2 0x2BF4 JUMP JUMPDEST SWAP2 POP PUSH2 0x2F69 PUSH1 0x20 DUP5 ADD PUSH2 0x2BF4 JUMP JUMPDEST SWAP1 POP SWAP3 POP SWAP3 SWAP1 POP JUMP JUMPDEST PUSH1 0x1 DUP2 DUP2 SHR SWAP1 DUP3 AND DUP1 PUSH2 0x2F86 JUMPI PUSH1 0x7F DUP3 AND SWAP2 POP JUMPDEST PUSH1 0x20 DUP3 LT DUP2 EQ ISZERO PUSH2 0x2FA7 JUMPI PUSH4 0x4E487B71 PUSH1 0xE0 SHL PUSH1 0x0 MSTORE PUSH1 0x22 PUSH1 0x4 MSTORE PUSH1 0x24 PUSH1 0x0 REVERT JUMPDEST POP SWAP2 SWAP1 POP JUMP JUMPDEST PUSH1 0x20 DUP1 DUP3 MSTORE PUSH1 0x2E SWAP1 DUP3 ADD MSTORE PUSH32 0x4552433732313A2063616C6C6572206973206E6F7420746F6B656E206F776E65 PUSH1 0x40 DUP3 ADD MSTORE PUSH14 0x1C881B9BDC88185C1C1C9BDD9959 PUSH1 0x92 SHL PUSH1 0x60 DUP3 ADD MSTORE PUSH1 0x80 ADD SWAP1 JUMP JUMPDEST PUSH4 0x4E487B71 PUSH1 0xE0 SHL PUSH1 0x0 MSTORE PUSH1 0x12 PUSH1 0x4 MSTORE PUSH1 0x24 PUSH1 0x0 REVERT JUMPDEST PUSH4 0x4E487B71 PUSH1 0xE0 SHL PUSH1 0x0 MSTORE PUSH1 0x11 PUSH1 0x4 MSTORE PUSH1 0x24 PUSH1 0x0 REVERT JUMPDEST PUSH1 0x0 DUP3 PUSH2 0x3036 JUMPI PUSH2 0x3036 PUSH2 0x2FFB JUMP JUMPDEST POP DIV SWAP1 JUMP JUMPDEST PUSH4 0x4E487B71 PUSH1 0xE0 SHL PUSH1 0x0 MSTORE PUSH1 0x32 PUSH1 0x4 MSTORE PUSH1 0x24 PUSH1 0x0 REVERT JUMPDEST PUSH1 0x0 PUSH1 0x0 NOT DUP3 EQ ISZERO PUSH2 0x3065 JUMPI PUSH2 0x3065 PUSH2 0x3011 JUMP JUMPDEST POP PUSH1 0x1 ADD SWAP1 JUMP JUMPDEST PUSH1 0x0 DUP3 DUP3 LT ISZERO PUSH2 0x307E JUMPI PUSH2 0x307E PUSH2 0x3011 JUMP JUMPDEST POP SUB SWAP1 JUMP JUMPDEST PUSH1 0x0 DUP3 NOT DUP3 GT ISZERO PUSH2 0x3096 JUMPI PUSH2 0x3096 PUSH2 0x3011 JUMP JUMPDEST POP ADD SWAP1 JUMP JUMPDEST PUSH1 0x0 PUSH1 0x20 DUP3 DUP5 SUB SLT ISZERO PUSH2 0x30AD JUMPI PUSH1 0x0 DUP1 REVERT JUMPDEST POP MLOAD SWAP2 SWAP1 POP JUMP JUMPDEST PUSH1 0x0 DUP2 PUSH1 0x0 NOT DIV DUP4 GT DUP3 ISZERO ISZERO AND ISZERO PUSH2 0x30CE JUMPI PUSH2 0x30CE PUSH2 0x3011 JUMP JUMPDEST POP MUL SWAP1 JUMP JUMPDEST PUSH1 0x0 DUP2 MLOAD PUSH2 0x30E5 DUP2 DUP6 PUSH1 0x20 DUP7 ADD PUSH2 0x2B70 JUMP JUMPDEST SWAP3 SWAP1 SWAP3 ADD SWAP3 SWAP2 POP POP JUMP JUMPDEST PUSH1 0x0 DUP1 DUP5 SLOAD DUP2 PUSH1 0x1 DUP3 DUP2 SHR SWAP2 POP DUP1 DUP4 AND DUP1 PUSH2 0x310B JUMPI PUSH1 0x7F DUP4 AND SWAP3 POP JUMPDEST PUSH1 0x20 DUP1 DUP5 LT DUP3 EQ ISZERO PUSH2 0x312B JUMPI PUSH4 0x4E487B71 PUSH1 0xE0 SHL DUP7 MSTORE PUSH1 0x22 PUSH1 0x4 MSTORE PUSH1 0x24 DUP7 REVERT JUMPDEST DUP2 DUP1 ISZERO PUSH2 0x313F JUMPI PUSH1 0x1 DUP2 EQ PUSH2 0x3150 JUMPI PUSH2 0x317D JUMP JUMPDEST PUSH1 0xFF NOT DUP7 AND DUP10 MSTORE DUP5 DUP10 ADD SWAP7 POP PUSH2 0x317D JUMP JUMPDEST PUSH1 0x0 DUP12 DUP2 MSTORE PUSH1 0x20 SWAP1 KECCAK256 PUSH1 0x0 JUMPDEST DUP7 DUP2 LT ISZERO PUSH2 0x3175 JUMPI DUP2 SLOAD DUP12 DUP3 ADD MSTORE SWAP1 DUP6 ADD SWAP1 DUP4 ADD PUSH2 0x315C JUMP JUMPDEST POP POP DUP5 DUP10 ADD SWAP7 POP JUMPDEST POP POP POP POP POP POP PUSH2 0x31A1 PUSH2 0x3190 DUP3 DUP7 PUSH2 0x30D3 JUMP JUMPDEST PUSH5 0x173539B7B7 PUSH1 0xD9 SHL DUP2 MSTORE PUSH1 0x5 ADD SWAP1 JUMP JUMPDEST SWAP6 SWAP5 POP POP POP POP POP JUMP JUMPDEST PUSH1 0x20 DUP1 DUP3 MSTORE PUSH1 0x32 SWAP1 DUP3 ADD MSTORE PUSH32 0x4552433732313A207472616E7366657220746F206E6F6E204552433732315265 PUSH1 0x40 DUP3 ADD MSTORE PUSH18 0x31B2B4BB32B91034B6B83632B6B2B73A32B9 PUSH1 0x71 SHL PUSH1 0x60 DUP3 ADD MSTORE PUSH1 0x80 ADD SWAP1 JUMP JUMPDEST PUSH1 0x0 DUP3 PUSH2 0x320B JUMPI PUSH2 0x320B PUSH2 0x2FFB JUMP JUMPDEST POP MOD SWAP1 JUMP JUMPDEST PUSH1 0x0 PUSH1 0x20 DUP3 DUP5 SUB SLT ISZERO PUSH2 0x3222 JUMPI PUSH1 0x0 DUP1 REVERT JUMPDEST DUP2 MLOAD PUSH2 0x27B2 DUP2 PUSH2 0x2E09 JUMP JUMPDEST PUSH1 0x1 PUSH1 0x1 PUSH1 0xA0 SHL SUB DUP6 DUP2 AND DUP3 MSTORE DUP5 AND PUSH1 0x20 DUP3 ADD MSTORE PUSH1 0x40 DUP2 ADD DUP4 SWAP1 MSTORE PUSH1 0x80 PUSH1 0x60 DUP3 ADD DUP2 SWAP1 MSTORE PUSH1 0x0 SWAP1 PUSH2 0x3260 SWAP1 DUP4 ADD DUP5 PUSH2 0x2B9C JUMP JUMPDEST SWAP7 SWAP6 POP POP POP POP POP POP JUMP JUMPDEST PUSH1 0x0 PUSH1 0x20 DUP3 DUP5 SUB SLT ISZERO PUSH2 0x327C JUMPI PUSH1 0x0 DUP1 REVERT JUMPDEST DUP2 MLOAD PUSH2 0x27B2 DUP2 PUSH2 0x2B3D JUMP JUMPDEST PUSH4 0x4E487B71 PUSH1 0xE0 SHL PUSH1 0x0 MSTORE PUSH1 0x31 PUSH1 0x4 MSTORE PUSH1 0x24 PUSH1 0x0 REVERT JUMPDEST PUSH1 0x0 DUP3 MLOAD PUSH2 0x32AF DUP2 DUP5 PUSH1 0x20 DUP8 ADD PUSH2 0x2B70 JUMP JUMPDEST SWAP2 SWAP1 SWAP2 ADD SWAP3 SWAP2 POP POP JUMP INVALID LOG2 PUSH5 0x6970667358 0x22 SLT KECCAK256 SWAP8 DUP14 INVALID STATICCALL MUL PC PUSH3 0xC9E3A3 0x24 LOG0 0xA5 0xC5 0xBB GT SWAP11 0xA5 SWAP12 SIGNEXTEND ORIGIN PUSH23 0x11C2CA2024658B8E694F64736F6C634300080B00330000 "},"methodIdentifiers":{"approve(address,uint256)":"095ea7b3","balanceOf(address)":"70a08231","endPresale()":"a43be57b","getApproved(uint256)":"081812fc","isApprovedForAll(address,address)":"e985e9c5","maxMintPerTx()":"de7fcb1d","maxSupply()":"d5abeb01","mint(uint256)":"a0712d68","mintPresale(uint256)":"f759867a","name()":"06fdde03","owner()":"8da5cb5b","ownerOf(uint256)":"6352211e","pauseSale()":"55367ba9","presaleDuration()":"5868c32a","presaleEnd()":"229f3e29","presaleIsActive()":"30f72cd4","presaleMaxSpots()":"7e5c49dc","presaleMaxTokens()":"51d670a3","presaleSpotsFilled()":"0ef94a50","presaleStartedAt()":"07fee2a6","price()":"a035b1fe","pricePresale()":"9147dd1b","provenance()":"0f7309e8","recoverNonFungibleToken(address,uint256)":"bb0fd147","recoverToken(address)":"9be65a60","renounceOwnership()":"715018a6","reserve(address,uint256)":"cc47a40b","safeTransferFrom(address,address,uint256)":"42842e0e","safeTransferFrom(address,address,uint256,bytes)":"b88d4fde","saleIsActive()":"eb8d2444","setApprovalForAll(address,bool)":"a22cb465","setBaseURI(string)":"55f804b3","setPrice(uint256)":"91b7f5ed","setPricePresale(uint256)":"5a94133c","setProvenanceHash(string)":"10969523","startSale()":"b66a0e5d","supportsInterface(bytes4)":"01ffc9a7","symbol()":"95d89b41","team1()":"8c8d2ede","team2()":"e612c0ad","team3()":"38b10568","team4()":"d53f6977","tokenByIndex(uint256)":"4f6ccce7","tokenOfOwnerByIndex(address,uint256)":"2f745c59","tokenURI(uint256)":"c87b56dd","tokensOfOwner(address)":"8462151c","tokensOfOwnerBySize(address,uint256,uint256)":"854ec1af","totalSupply()":"18160ddd","transferFrom(address,address,uint256)":"23b872dd","transferOwnership(address)":"f2fde38b","whitelistForPresale(address[])":"dc5cd7ae","whitelistedForPresale(address)":"3ca54fd3","withdraw()":"3ccfd60b"}}}}}